{
  "contractName": "BettingHandshake",
  "abi": [
    {
      "constant": true,
      "inputs": [
        {
          "name": "",
          "type": "uint256"
        }
      ],
      "name": "bets",
      "outputs": [
        {
          "name": "initiator",
          "type": "address"
        },
        {
          "name": "escrow",
          "type": "uint256"
        },
        {
          "name": "balance",
          "type": "uint256"
        },
        {
          "name": "goal",
          "type": "uint256"
        },
        {
          "name": "deadline",
          "type": "uint256"
        },
        {
          "name": "state",
          "type": "uint8"
        },
        {
          "name": "result",
          "type": "uint8"
        }
      ],
      "payable": false,
      "stateMutability": "view",
      "type": "function"
    },
    {
      "constant": true,
      "inputs": [],
      "name": "referee",
      "outputs": [
        {
          "name": "",
          "type": "address"
        }
      ],
      "payable": false,
      "stateMutability": "view",
      "type": "function"
    },
    {
      "constant": true,
      "inputs": [],
      "name": "reviewWindow",
      "outputs": [
        {
          "name": "",
          "type": "uint256"
        }
      ],
      "payable": false,
      "stateMutability": "view",
      "type": "function"
    },
    {
      "constant": true,
      "inputs": [],
      "name": "rejectWindow",
      "outputs": [
        {
          "name": "",
          "type": "uint256"
        }
      ],
      "payable": false,
      "stateMutability": "view",
      "type": "function"
    },
    {
      "inputs": [],
      "payable": false,
      "stateMutability": "nonpayable",
      "type": "constructor"
    },
    {
      "anonymous": false,
      "inputs": [
        {
          "indexed": false,
          "name": "hid",
          "type": "uint256"
        },
        {
          "indexed": false,
          "name": "state",
          "type": "uint8"
        },
        {
          "indexed": false,
          "name": "balance",
          "type": "uint256"
        },
        {
          "indexed": false,
          "name": "escrow",
          "type": "uint256"
        },
        {
          "indexed": false,
          "name": "offchain",
          "type": "bytes32"
        }
      ],
      "name": "__init",
      "type": "event"
    },
    {
      "anonymous": false,
      "inputs": [
        {
          "indexed": false,
          "name": "hid",
          "type": "uint256"
        },
        {
          "indexed": false,
          "name": "state",
          "type": "uint8"
        },
        {
          "indexed": false,
          "name": "balance",
          "type": "uint256"
        },
        {
          "indexed": false,
          "name": "escrow",
          "type": "uint256"
        },
        {
          "indexed": false,
          "name": "offchain",
          "type": "bytes32"
        }
      ],
      "name": "__shake",
      "type": "event"
    },
    {
      "anonymous": false,
      "inputs": [
        {
          "indexed": false,
          "name": "hid",
          "type": "uint256"
        },
        {
          "indexed": false,
          "name": "state",
          "type": "uint8"
        },
        {
          "indexed": false,
          "name": "balance",
          "type": "uint256"
        },
        {
          "indexed": false,
          "name": "escrow",
          "type": "uint256"
        },
        {
          "indexed": false,
          "name": "offchain",
          "type": "bytes32"
        }
      ],
      "name": "__cancelBet",
      "type": "event"
    },
    {
      "anonymous": false,
      "inputs": [
        {
          "indexed": false,
          "name": "hid",
          "type": "uint256"
        },
        {
          "indexed": false,
          "name": "state",
          "type": "uint8"
        },
        {
          "indexed": false,
          "name": "balance",
          "type": "uint256"
        },
        {
          "indexed": false,
          "name": "escrow",
          "type": "uint256"
        },
        {
          "indexed": false,
          "name": "offchain",
          "type": "bytes32"
        }
      ],
      "name": "__closeBet",
      "type": "event"
    },
    {
      "anonymous": false,
      "inputs": [
        {
          "indexed": false,
          "name": "hid",
          "type": "uint256"
        },
        {
          "indexed": false,
          "name": "state",
          "type": "uint8"
        },
        {
          "indexed": false,
          "name": "balance",
          "type": "uint256"
        },
        {
          "indexed": false,
          "name": "escrow",
          "type": "uint256"
        },
        {
          "indexed": false,
          "name": "offchain",
          "type": "bytes32"
        }
      ],
      "name": "__initiatorWon",
      "type": "event"
    },
    {
      "anonymous": false,
      "inputs": [
        {
          "indexed": false,
          "name": "hid",
          "type": "uint256"
        },
        {
          "indexed": false,
          "name": "state",
          "type": "uint8"
        },
        {
          "indexed": false,
          "name": "balance",
          "type": "uint256"
        },
        {
          "indexed": false,
          "name": "escrow",
          "type": "uint256"
        },
        {
          "indexed": false,
          "name": "offchain",
          "type": "bytes32"
        }
      ],
      "name": "__betorWon",
      "type": "event"
    },
    {
      "anonymous": false,
      "inputs": [
        {
          "indexed": false,
          "name": "hid",
          "type": "uint256"
        },
        {
          "indexed": false,
          "name": "state",
          "type": "uint8"
        },
        {
          "indexed": false,
          "name": "balance",
          "type": "uint256"
        },
        {
          "indexed": false,
          "name": "escrow",
          "type": "uint256"
        },
        {
          "indexed": false,
          "name": "offchain",
          "type": "bytes32"
        }
      ],
      "name": "__draw",
      "type": "event"
    },
    {
      "anonymous": false,
      "inputs": [
        {
          "indexed": false,
          "name": "hid",
          "type": "uint256"
        },
        {
          "indexed": false,
          "name": "state",
          "type": "uint8"
        },
        {
          "indexed": false,
          "name": "balance",
          "type": "uint256"
        },
        {
          "indexed": false,
          "name": "escrow",
          "type": "uint256"
        },
        {
          "indexed": false,
          "name": "offchain",
          "type": "bytes32"
        }
      ],
      "name": "__withdraw",
      "type": "event"
    },
    {
      "anonymous": false,
      "inputs": [
        {
          "indexed": false,
          "name": "hid",
          "type": "uint256"
        },
        {
          "indexed": false,
          "name": "state",
          "type": "uint8"
        },
        {
          "indexed": false,
          "name": "balance",
          "type": "uint256"
        },
        {
          "indexed": false,
          "name": "escrow",
          "type": "uint256"
        },
        {
          "indexed": false,
          "name": "offchain",
          "type": "bytes32"
        }
      ],
      "name": "__reject",
      "type": "event"
    },
    {
      "anonymous": false,
      "inputs": [
        {
          "indexed": false,
          "name": "hid",
          "type": "uint256"
        },
        {
          "indexed": false,
          "name": "state",
          "type": "uint8"
        },
        {
          "indexed": false,
          "name": "balance",
          "type": "uint256"
        },
        {
          "indexed": false,
          "name": "escrow",
          "type": "uint256"
        },
        {
          "indexed": false,
          "name": "offchain",
          "type": "bytes32"
        }
      ],
      "name": "__setWinner",
      "type": "event"
    },
    {
      "constant": false,
      "inputs": [
        {
          "name": "acceptors",
          "type": "address[]"
        },
        {
          "name": "goal",
          "type": "uint256"
        },
        {
          "name": "escrow",
          "type": "uint256"
        },
        {
          "name": "deadline",
          "type": "uint256"
        },
        {
          "name": "offchain",
          "type": "bytes32"
        }
      ],
      "name": "initBet",
      "outputs": [],
      "payable": true,
      "stateMutability": "payable",
      "type": "function"
    },
    {
      "constant": false,
      "inputs": [
        {
          "name": "hid",
          "type": "uint256"
        },
        {
          "name": "offchain",
          "type": "bytes32"
        }
      ],
      "name": "shake",
      "outputs": [],
      "payable": true,
      "stateMutability": "payable",
      "type": "function"
    },
    {
      "constant": false,
      "inputs": [
        {
          "name": "hid",
          "type": "uint256"
        },
        {
          "name": "offchain",
          "type": "bytes32"
        }
      ],
      "name": "cancelBet",
      "outputs": [],
      "payable": false,
      "stateMutability": "nonpayable",
      "type": "function"
    },
    {
      "constant": false,
      "inputs": [
        {
          "name": "hid",
          "type": "uint256"
        },
        {
          "name": "offchain",
          "type": "bytes32"
        }
      ],
      "name": "closeBet",
      "outputs": [],
      "payable": false,
      "stateMutability": "nonpayable",
      "type": "function"
    },
    {
      "constant": false,
      "inputs": [
        {
          "name": "hid",
          "type": "uint256"
        },
        {
          "name": "offchain",
          "type": "bytes32"
        }
      ],
      "name": "initiatorWon",
      "outputs": [],
      "payable": false,
      "stateMutability": "nonpayable",
      "type": "function"
    },
    {
      "constant": false,
      "inputs": [
        {
          "name": "hid",
          "type": "uint256"
        },
        {
          "name": "offchain",
          "type": "bytes32"
        }
      ],
      "name": "betorWon",
      "outputs": [],
      "payable": false,
      "stateMutability": "nonpayable",
      "type": "function"
    },
    {
      "constant": false,
      "inputs": [
        {
          "name": "hid",
          "type": "uint256"
        },
        {
          "name": "offchain",
          "type": "bytes32"
        }
      ],
      "name": "draw",
      "outputs": [],
      "payable": false,
      "stateMutability": "nonpayable",
      "type": "function"
    },
    {
      "constant": false,
      "inputs": [
        {
          "name": "hid",
          "type": "uint256"
        },
        {
          "name": "offchain",
          "type": "bytes32"
        }
      ],
      "name": "withdraw",
      "outputs": [],
      "payable": false,
      "stateMutability": "nonpayable",
      "type": "function"
    },
    {
      "constant": false,
      "inputs": [
        {
          "name": "hid",
          "type": "uint256"
        },
        {
          "name": "offchain",
          "type": "bytes32"
        }
      ],
      "name": "reject",
      "outputs": [],
      "payable": false,
      "stateMutability": "nonpayable",
      "type": "function"
    },
    {
      "constant": false,
      "inputs": [
        {
          "name": "hid",
          "type": "uint256"
        },
        {
          "name": "result",
          "type": "uint8"
        },
        {
          "name": "offchain",
          "type": "bytes32"
        }
      ],
      "name": "setWinner",
      "outputs": [],
      "payable": false,
      "stateMutability": "nonpayable",
      "type": "function"
    },
    {
      "constant": true,
      "inputs": [
        {
          "name": "hid",
          "type": "uint256"
        }
      ],
      "name": "getWinValue",
      "outputs": [
        {
          "name": "",
          "type": "uint256"
        }
      ],
      "payable": false,
      "stateMutability": "view",
      "type": "function"
    }
  ],
  "bytecode": "0x60806040526203f4806002556201518060035534801561001e57600080fd5b5033600160006101000a81548173ffffffffffffffffffffffffffffffffffffffff021916908373ffffffffffffffffffffffffffffffffffffffff1602179055506125d08061006f6000396000f3006080604052600436106100db576000357c0100000000000000000000000000000000000000000000000000000000900463ffffffff1680631d43334d146100e057806322af00fa1461011b57806329e93878146101c65780633b1bebd1146102015780634642d7b9146102585780636be1320b14610293578063755f78d9146102ce57806381243eb614610309578063878716be1461038e5780639ca4218f146103d6578063a07a07c414610401578063a5ca03b21461042c578063a8d2021a1461046d578063b09b2f85146104a8578063faf32390146104d6575b600080fd5b3480156100ec57600080fd5b50610119600480360381019080803590602001909291908035600019169060200190929190505050610511565b005b34801561012757600080fd5b50610146600480360381019080803590602001909291905050506107ce565b604051808873ffffffffffffffffffffffffffffffffffffffff1673ffffffffffffffffffffffffffffffffffffffff1681526020018781526020018681526020018581526020018481526020018360098111156101a057fe5b60ff1681526020018260ff1660ff16815260200197505050505050505060405180910390f35b3480156101d257600080fd5b506101ff600480360381019080803590602001909291908035600019169060200190929190505050610859565b005b34801561020d57600080fd5b50610216610a59565b604051808273ffffffffffffffffffffffffffffffffffffffff1673ffffffffffffffffffffffffffffffffffffffff16815260200191505060405180910390f35b34801561026457600080fd5b50610291600480360381019080803590602001909291908035600019169060200190929190505050610a7f565b005b34801561029f57600080fd5b506102cc600480360381019080803590602001909291908035600019169060200190929190505050610c81565b005b3480156102da57600080fd5b50610307600480360381019080803590602001909291908035600019169060200190929190505050610ed3565b005b61038c6004803603810190808035906020019082018035906020019080806020026020016040519081016040528093929190818152602001838360200280828437820191505050505050919291929080359060200190929190803590602001909291908035906020019092919080356000191690602001909291905050506110d3565b005b34801561039a57600080fd5b506103d460048036038101908080359060200190929190803560ff169060200190929190803560001916906020019092919050505061131c565b005b3480156103e257600080fd5b506103eb6114f3565b6040518082815260200191505060405180910390f35b34801561040d57600080fd5b506104166114f9565b6040518082815260200191505060405180910390f35b34801561043857600080fd5b50610457600480360381019080803590602001909291905050506114ff565b6040518082815260200191505060405180910390f35b34801561047957600080fd5b506104a66004803603810190808035906020019092919080356000191690602001909291905050506115d3565b005b6104d4600480360381019080803590602001909291908035600019169060200190929190505050611e87565b005b3480156104e257600080fd5b5061050f6004803603810190808035906020019092919080356000191690602001909291905050506121a1565b005b6000808360008181548110151561052457fe5b906000526020600020906009020160000160009054906101000a900473ffffffffffffffffffffffffffffffffffffffff1673ffffffffffffffffffffffffffffffffffffffff163373ffffffffffffffffffffffffffffffffffffffff1614151561058f57600080fd5b60008581548110151561059e57fe5b90600052602060002090600902019250826003015483600201541015156105c457600080fd5b600083600701805490501480156106025750600060098111156105e357fe5b8360050160009054906101000a900460ff16600981111561060057fe5b145b15610687573373ffffffffffffffffffffffffffffffffffffffff166108fc84600101549081150290604051600060405180830381858888f19350505050158015610651573d6000803e3d6000fd5b506000836001018190555060028360050160006101000a81548160ff0219169083600981111561067d57fe5b0217905550610741565b6001600981111561069457fe5b8360050160009054906101000a900460ff1660098111156106b157fe5b141561074057826003015483600101548460020154028115156106d057fe5b048360010154039150818360010160008282540392505081905550826002015483600301819055503373ffffffffffffffffffffffffffffffffffffffff166108fc839081150290604051600060405180830381858888f1935050505015801561073e573d6000803e3d6000fd5b505b5b7f9168645179ebefa95b30c1a7fd4a842e6433caf7911467b3a7a868e31276c50b858460050160009054906101000a900460ff1685600201548660010154886040518086815260200185600981111561079657fe5b60ff16815260200184815260200183815260200182600019166000191681526020019550505050505060405180910390a15050505050565b6000818154811015156107dd57fe5b90600052602060002090600902016000915090508060000160009054906101000a900473ffffffffffffffffffffffffffffffffffffffff16908060010154908060020154908060030154908060040154908060050160009054906101000a900460ff16908060050160019054906101000a900460ff16905087565b6000826000808281548110151561086c57fe5b906000526020600020906009020160060160003373ffffffffffffffffffffffffffffffffffffffff1673ffffffffffffffffffffffffffffffffffffffff16815260200190815260200160002060000154118061093557506000818154811015156108d457fe5b906000526020600020906009020160000160009054906101000a900473ffffffffffffffffffffffffffffffffffffffff1673ffffffffffffffffffffffffffffffffffffffff163373ffffffffffffffffffffffffffffffffffffffff16145b151561094057600080fd5b60008481548110151561094f57fe5b906000526020600020906009020191506001600981111561096c57fe5b8260050160009054906101000a900460ff16600981111561098957fe5b14801561099c5750600182600401540242115b15156109a757600080fd5b60068260050160006101000a81548160ff021916908360098111156109c857fe5b02179055507f3d52d48685d5511fd2b49f42bda4929e6c8c8c7e18ff270437f5bb441450f46b848360050160009054906101000a900460ff16846002015485600101548760405180868152602001856009811115610a2257fe5b60ff16815260200184815260200183815260200182600019166000191681526020019550505050505060405180910390a150505050565b600160009054906101000a900473ffffffffffffffffffffffffffffffffffffffff1681565b60008260008082815481101515610a9257fe5b906000526020600020906009020160060160003373ffffffffffffffffffffffffffffffffffffffff1673ffffffffffffffffffffffffffffffffffffffff168152602001908152602001600020600001541180610b5b5750600081815481101515610afa57fe5b906000526020600020906009020160000160009054906101000a900473ffffffffffffffffffffffffffffffffffffffff1673ffffffffffffffffffffffffffffffffffffffff163373ffffffffffffffffffffffffffffffffffffffff16145b1515610b6657600080fd5b600084815481101515610b7557fe5b906000526020600020906009020191506002548260040154014210158015610bc4575060016009811115610ba557fe5b8260050160009054906101000a900460ff166009811115610bc257fe5b145b1515610bcf57600080fd5b60038260050160006101000a81548160ff02191690836009811115610bf057fe5b02179055507f72564998f7d47a21dcc7b8805e90213b4037c9a51f72a362c8df036d14e54e06848360050160009054906101000a900460ff16846002015485600101548760405180868152602001856009811115610c4a57fe5b60ff16815260200184815260200183815260200182600019166000191681526020019550505050505060405180910390a150505050565b60008260008082815481101515610c9457fe5b906000526020600020906009020160060160003373ffffffffffffffffffffffffffffffffffffffff1673ffffffffffffffffffffffffffffffffffffffff168152602001908152602001600020600001541180610d5d5750600081815481101515610cfc57fe5b906000526020600020906009020160000160009054906101000a900473ffffffffffffffffffffffffffffffffffffffff1673ffffffffffffffffffffffffffffffffffffffff163373ffffffffffffffffffffffffffffffffffffffff16145b1515610d6857600080fd5b600084815481101515610d7757fe5b9060005260206000209060090201915060046009811115610d9457fe5b8260050160009054906101000a900460ff166009811115610db157fe5b1480610de4575060066009811115610dc557fe5b8260050160009054906101000a900460ff166009811115610de257fe5b145b80610e16575060056009811115610df757fe5b8260050160009054906101000a900460ff166009811115610e1457fe5b145b1515610e2157600080fd5b60088260050160006101000a81548160ff02191690836009811115610e4257fe5b02179055507f38633837e18700599e1454a0eedee49acd45f20cc22e935cc900dcc4e116a881848360050160009054906101000a900460ff16846002015485600101548760405180868152602001856009811115610e9c57fe5b60ff16815260200184815260200183815260200182600019166000191681526020019550505050505060405180910390a150505050565b60008260008082815481101515610ee657fe5b906000526020600020906009020160060160003373ffffffffffffffffffffffffffffffffffffffff1673ffffffffffffffffffffffffffffffffffffffff168152602001908152602001600020600001541180610faf5750600081815481101515610f4e57fe5b906000526020600020906009020160000160009054906101000a900473ffffffffffffffffffffffffffffffffffffffff1673ffffffffffffffffffffffffffffffffffffffff163373ffffffffffffffffffffffffffffffffffffffff16145b1515610fba57600080fd5b600084815481101515610fc957fe5b9060005260206000209060090201915060016009811115610fe657fe5b8260050160009054906101000a900460ff16600981111561100357fe5b1480156110165750600182600401540242115b151561102157600080fd5b60058260050160006101000a81548160ff0219169083600981111561104257fe5b02179055507fcfa63e49674c15073f89588b52a2ce124aea9fc5a0b3ce2d3757c5f262812a95848360050160009054906101000a900460ff1684600201548560010154876040518086815260200185600981111561109c57fe5b60ff16815260200184815260200183815260200182600019166000191681526020019550505050505060405180910390a150505050565b6110db612466565b83341415156110e957600080fd5b33816000019073ffffffffffffffffffffffffffffffffffffffff16908173ffffffffffffffffffffffffffffffffffffffff1681525050848160600181815250508381602001818152505060018302420181608001818152505060008160a00190600981111561115657fe5b9081600981111561116357fe5b81525050858161010001819052506000819080600181540180825580915050906001820390600052602060002090600902016000909192909190915060008201518160000160006101000a81548173ffffffffffffffffffffffffffffffffffffffff021916908373ffffffffffffffffffffffffffffffffffffffff1602179055506020820151816001015560408201518160020155606082015181600301556080820151816004015560a08201518160050160006101000a81548160ff0219169083600981111561123257fe5b021790555060c08201518160050160016101000a81548160ff021916908360ff16021790555060e08201518160070190805190602001906112749291906124d7565b506101008201518160080190805190602001906112929291906124d7565b505050507f95ec871c362f3f13b1cf5b875249ba88099e29d15a72677ac2c9b38084dba04060016000805490500360008360400151846020015186604051808681526020018560098111156112e357fe5b60ff16815260200184815260200183815260200182600019166000191681526020019550505050505060405180910390a1505050505050565b6000600160009054906101000a900473ffffffffffffffffffffffffffffffffffffffff1673ffffffffffffffffffffffffffffffffffffffff163373ffffffffffffffffffffffffffffffffffffffff1614151561137a57600080fd5b60008481548110151561138957fe5b90600052602060002090600902019050600860098111156113a657fe5b8160050160009054906101000a900460ff1660098111156113c357fe5b1480156114195750600460098111156113d857fe5b60ff168360ff1614806113fc5750600660098111156113f357fe5b60ff168360ff16145b8061141857506005600981111561140f57fe5b60ff168360ff16145b5b151561142457600080fd5b60078160050160006101000a81548160ff0219169083600981111561144557fe5b0217905550828160050160016101000a81548160ff021916908360ff1602179055507ffed65e414d0493e522bdc10426e13c0c64dbc285d209257f034ee6657e8eaa2c848260050160009054906101000a900460ff168360020154846001015486604051808681526020018560098111156114bc57fe5b60ff16815260200184815260200183815260200182600019166000191681526020019550505050505060405180910390a150505050565b60025481565b60035481565b60008060008381548110151561151157fe5b906000526020600020906009020190508060000160009054906101000a900473ffffffffffffffffffffffffffffffffffffffff1673ffffffffffffffffffffffffffffffffffffffff163373ffffffffffffffffffffffffffffffffffffffff16141561158557806002015491506115cd565b8060060160003373ffffffffffffffffffffffffffffffffffffffff1673ffffffffffffffffffffffffffffffffffffffff1681526020019081526020016000206001015491505b50919050565b600080600084600080828154811015156115e957fe5b906000526020600020906009020160060160003373ffffffffffffffffffffffffffffffffffffffff1673ffffffffffffffffffffffffffffffffffffffff1681526020019081526020016000206000015411806116b2575060008181548110151561165157fe5b906000526020600020906009020160000160009054906101000a900473ffffffffffffffffffffffffffffffffffffffff1673ffffffffffffffffffffffffffffffffffffffff163373ffffffffffffffffffffffffffffffffffffffff16145b15156116bd57600080fd5b6000868154811015156116cc57fe5b90600052602060002090600902019350600760098111156116e957fe5b8460050160009054906101000a900460ff16600981111561170657fe5b141515611877576003600981111561171a57fe5b8460050160009054906101000a900460ff16600981111561173757fe5b141561176b576006600981111561174a57fe5b8460050160016101000a81548160ff021916908360ff160217905550611850565b6003548460040154014211151561178157600080fd5b6004600981111561178e57fe5b8460050160009054906101000a900460ff1660098111156117ab57fe5b14806117de5750600560098111156117bf57fe5b8460050160009054906101000a900460ff1660098111156117dc57fe5b145b806118105750600660098111156117f157fe5b8460050160009054906101000a900460ff16600981111561180e57fe5b145b1561184f578360050160009054906101000a900460ff16600981111561183257fe5b8460050160016101000a81548160ff021916908360ff1602179055505b5b60078460050160006101000a81548160ff0219169083600981111561187157fe5b02179055505b6007600981111561188457fe5b8460050160009054906101000a900460ff1660098111156118a157fe5b1415156118ad57600080fd5b600460098111156118ba57fe5b60ff168460050160019054906101000a900460ff1660ff161415611a2d578360000160009054906101000a900473ffffffffffffffffffffffffffffffffffffffff1673ffffffffffffffffffffffffffffffffffffffff163373ffffffffffffffffffffffffffffffffffffffff1614151561193657600080fd5b3373ffffffffffffffffffffffffffffffffffffffff168460000160009054906101000a900473ffffffffffffffffffffffffffffffffffffffff1673ffffffffffffffffffffffffffffffffffffffff16148015611999575060008460010154115b15611a28578360000160009054906101000a900473ffffffffffffffffffffffffffffffffffffffff1673ffffffffffffffffffffffffffffffffffffffff166108fc85600201548660010154019081150290604051600060405180830381858888f19350505050158015611a12573d6000803e3d6000fd5b5060008460010181905550600084600201819055505b611db5565b60056009811115611a3a57fe5b60ff168460050160019054906101000a900460ff1660ff161415611b8c5760008460060160003373ffffffffffffffffffffffffffffffffffffffff1673ffffffffffffffffffffffffffffffffffffffff16815260200190815260200160002060000154111515611aab57600080fd5b600084600201541115611b87578360060160003373ffffffffffffffffffffffffffffffffffffffff1673ffffffffffffffffffffffffffffffffffffffff168152602001908152602001600020925082600101548460010160008282540392505081905550826000015484600201600082825403925050819055503373ffffffffffffffffffffffffffffffffffffffff166108fc84600101549081150290604051600060405180830381858888f19350505050158015611b71573d6000803e3d6000fd5b5060008360000181905550600083600101819055505b611db4565b60066009811115611b9957fe5b60ff168460050160019054906101000a900460ff1660ff161415611db3573373ffffffffffffffffffffffffffffffffffffffff168460000160009054906101000a900473ffffffffffffffffffffffffffffffffffffffff1673ffffffffffffffffffffffffffffffffffffffff16148015611c1a575060008460010154115b15611c9d578360000160009054906101000a900473ffffffffffffffffffffffffffffffffffffffff1673ffffffffffffffffffffffffffffffffffffffff166108fc85600101549081150290604051600060405180830381858888f19350505050158015611c8d573d6000803e3d6000fd5b5060008460010181905550611db2565b60008460060160003373ffffffffffffffffffffffffffffffffffffffff1673ffffffffffffffffffffffffffffffffffffffff168152602001908152602001600020600001541115611db157600084600201541115611db0578360060160003373ffffffffffffffffffffffffffffffffffffffff1673ffffffffffffffffffffffffffffffffffffffff1681526020019081526020016000209150816000015484600201600082825403925050819055503373ffffffffffffffffffffffffffffffffffffffff166108fc83600001549081150290604051600060405180830381858888f19350505050158015611d9a573d6000803e3d6000fd5b5060008260000181905550600082600101819055505b5b5b5b5b5b60008460020154148015611dcd575060008460010154145b15611df95760098460050160006101000a81548160ff02191690836009811115611df357fe5b02179055505b7f96c5c49736e4d387aa742d0357695d08b1c8a025d8da70c2751e81ce21b6f2ba868560050160009054906101000a900460ff16866002015487600101548960405180868152602001856009811115611e4e57fe5b60ff16815260200184815260200183815260200182600019166000191681526020019550505050505060405180910390a1505050505050565b60008083815481101515611e9757fe5b9060005260206000209060090201905060006009811115611eb457fe5b8160050160009054906101000a900460ff166009811115611ed157fe5b1480611f04575060016009811115611ee557fe5b8160050160009054906101000a900460ff166009811115611f0257fe5b145b8015611f105750600034115b8015611f1f5750806004015442105b1515611f2a57600080fd5b60008160080180549050141515611f585760011515611f4984336123a1565b1515141515611f5757600080fd5b5b60008160060160003373ffffffffffffffffffffffffffffffffffffffff1673ffffffffffffffffffffffffffffffffffffffff16815260200190815260200160002060000154141561200e57806007013390806001815401808255809150509060018203906000526020600020016000909192909190916101000a81548173ffffffffffffffffffffffffffffffffffffffff021916908373ffffffffffffffffffffffffffffffffffffffff160217905550505b348160060160003373ffffffffffffffffffffffffffffffffffffffff1673ffffffffffffffffffffffffffffffffffffffff1681526020019081526020016000206000016000828254019250508190555080600301548160010154340281151561207557fe5b048160060160003373ffffffffffffffffffffffffffffffffffffffff1673ffffffffffffffffffffffffffffffffffffffff1681526020019081526020016000206001016000828254019250508190555034816002016000828254019250508190555080600301548160020154111515156120f057600080fd5b60018160050160006101000a81548160ff0219169083600981111561211157fe5b02179055507ff23535b611e241241be37f692048361bedbc808b0927fc26e4744e36e006f6f5838260050160009054906101000a900460ff1683600201548460010154866040518086815260200185600981111561216b57fe5b60ff16815260200184815260200183815260200182600019166000191681526020019550505050505060405180910390a1505050565b600082600080828154811015156121b457fe5b906000526020600020906009020160060160003373ffffffffffffffffffffffffffffffffffffffff1673ffffffffffffffffffffffffffffffffffffffff16815260200190815260200160002060000154118061227d575060008181548110151561221c57fe5b906000526020600020906009020160000160009054906101000a900473ffffffffffffffffffffffffffffffffffffffff1673ffffffffffffffffffffffffffffffffffffffff163373ffffffffffffffffffffffffffffffffffffffff16145b151561228857600080fd5b60008481548110151561229757fe5b90600052602060002090600902019150600160098111156122b457fe5b8260050160009054906101000a900460ff1660098111156122d157fe5b1480156122e45750600182600401540242115b15156122ef57600080fd5b60048260050160006101000a81548160ff0219169083600981111561231057fe5b02179055507fdd5cca0ed14df7fe4d86a947c4d84d85f3452e2efb41917d285c1d5a8b41f8d3848360050160009054906101000a900460ff1684600201548560010154876040518086815260200185600981111561236a57fe5b60ff16815260200184815260200183815260200182600019166000191681526020019550505050505060405180910390a150505050565b600080600080858154811015156123b457fe5b90600052602060002090600902019150600090505b816008018054905081101561245d578373ffffffffffffffffffffffffffffffffffffffff16826008018281548110151561240057fe5b9060005260206000200160009054906101000a900473ffffffffffffffffffffffffffffffffffffffff1673ffffffffffffffffffffffffffffffffffffffff161415612450576001925061245e565b80806001019150506123c9565b5b505092915050565b61012060405190810160405280600073ffffffffffffffffffffffffffffffffffffffff16815260200160008152602001600081526020016000815260200160008152602001600060098111156124b957fe5b8152602001600060ff16815260200160608152602001606081525090565b828054828255906000526020600020908101928215612550579160200282015b8281111561254f5782518260006101000a81548173ffffffffffffffffffffffffffffffffffffffff021916908373ffffffffffffffffffffffffffffffffffffffff160217905550916020019190600101906124f7565b5b50905061255d9190612561565b5090565b6125a191905b8082111561259d57600081816101000a81549073ffffffffffffffffffffffffffffffffffffffff021916905550600101612567565b5090565b905600a165627a7a7230582071399a1c886f92fec8f26752b04754effdce861fb0d1db4a795970bb7b17b8d70029",
  "source": "pragma solidity ^0.4.18;\n\ncontract BettingHandshake {\n    struct Betor {\n        uint value;\n        uint winValue;\n    }\n\n    enum S { Inited, Shaked, Closed, Cancelled, InitiatorWon, BetorWon, Draw, Accepted, Rejected, Done }\n\n    struct Bet {\n        address initiator;\n        uint escrow;  \n        uint balance;\n        uint goal;\n        uint deadline;\n\n        S state;\n        uint8 result;\n        mapping(address => Betor) betors;\n        address[] addresses;\n        address[] acceptors;\n    }\n\n    Bet[] public bets;\n    address public referee;\n    uint public reviewWindow = 3 days;\n    uint public rejectWindow = 1 days;\n\n    function BettingHandshake() public {\n        referee = msg.sender;\n    } \n\n    modifier onlyInitiator(uint hid) {\n        require(msg.sender == bets[hid].initiator);\n        _;\n    }\n\n    modifier onlyBetor(uint hid) {\n        require(bets[hid].betors[msg.sender].value > 0);\n        _;\n    }\n\n    modifier initiatorOrBetors(uint hid) {\n        require(bets[hid].betors[msg.sender].value > 0 || msg.sender == bets[hid].initiator);\n        _;\n    }\n\n    modifier onlyReferee() {\n        require(msg.sender == referee);\n        _;\n    }\n\n    event __init(uint hid, S state, uint balance, uint escrow, bytes32 offchain); \n\n    /**\n     * @dev Create a new bet.\n     * @param acceptors address of users will receive bet.\n     * @param goal amount money (in Wei) of users join bet.\n     * @param escrow money (in Wei) of initor.\n     * @param deadline duration (in seconds) event happen.\n     * @param offchain key to the offchain database.\n     */\n    function initBet(address[] acceptors, uint goal, uint escrow, uint deadline, bytes32 offchain) public payable {\n        require(msg.value == escrow);\n\n        Bet memory b;\n        b.initiator = msg.sender;\n        b.goal = goal; \n        b.escrow = escrow;\n        b.deadline = now + deadline * 1 seconds;\n        b.state = S.Inited;\n        b.acceptors = acceptors;\n        \n        bets.push(b);\n        __init(bets.length - 1, S.Inited, b.balance, b.escrow, offchain);\n    }\n\n    event __shake(uint hid, S state, uint balance, uint escrow, bytes32 offchain);\n\n    // Payer join bet\n    function shake(uint hid, bytes32 offchain) public payable {\n        Bet storage b = bets[hid];\n        require((b.state == S.Inited || b.state == S.Shaked) && msg.value > 0 && now < b.deadline);\n\n        if (b.acceptors.length != 0) {\n            require(isValidAcceptor(hid, msg.sender) == true);\n        }\n\n        if (b.betors[msg.sender].value == 0) {\n            b.addresses.push(msg.sender);\n        }\n        \n        b.betors[msg.sender].value += msg.value;\n        b.betors[msg.sender].winValue += ((msg.value * b.escrow) / b.goal);\n        b.balance += msg.value;\n        require(b.balance <= b.goal);\n        \n        b.state = S.Shaked;\n        __shake(hid, b.state, b.balance, b.escrow, offchain);\n    }\n\n    event __cancelBet(uint hid, S state, uint balance, uint escrow, bytes32 offchain);\n\n    //  both of initiator or betor can cancel bet if time exceed review window\n    function cancelBet(uint hid, bytes32 offchain) public initiatorOrBetors(hid) {\n        Bet storage b = bets[hid];\n        require(now >= b.deadline + reviewWindow && b.state == S.Shaked);\n\n        b.state = S.Cancelled;\n        __cancelBet(hid, b.state, b.balance, b.escrow, offchain);\n    }\n\n    event __closeBet(uint hid, S state, uint balance, uint escrow, bytes32 offchain);\n\n    // Initiator close bet\n    function closeBet(uint hid, bytes32 offchain) public onlyInitiator(hid) {\n        Bet storage b = bets[hid];\n        require(b.balance < b.goal);\n        if (b.addresses.length == 0 && b.state == S.Inited) {\n            msg.sender.transfer(b.escrow);\n            b.escrow = 0; \n            b.state = S.Closed;\n\n        } else if(b.state == S.Shaked) {\n            uint remainingMoney = b.escrow - ((b.balance * b.escrow) / b.goal);\n            b.escrow -= remainingMoney;\n            b.goal = b.balance;\n            msg.sender.transfer(remainingMoney);\n        }\n        \n        __closeBet(hid, b.state, b.balance, b.escrow, offchain);\n    }\n\n    event __initiatorWon(uint hid, S state, uint balance, uint escrow, bytes32 offchain); \n  \n    function initiatorWon(uint hid, bytes32 offchain) public initiatorOrBetors(hid) {\n        Bet storage b = bets[hid]; \n        require(b.state == S.Shaked && now > b.deadline * 1 seconds); \n        b.state = S.InitiatorWon; \n\n        __initiatorWon(hid, b.state, b.balance, b.escrow, offchain);\n    }\n\n    event __betorWon(uint hid, S state, uint balance, uint escrow, bytes32 offchain); \n\n    function betorWon(uint hid, bytes32 offchain) public initiatorOrBetors(hid) {\n        Bet storage b = bets[hid]; \n        require(b.state == S.Shaked && now > b.deadline * 1 seconds);\n        b.state = S.BetorWon;\n\n        __betorWon(hid, b.state, b.balance, b.escrow, offchain);\n    }\n\n    event __draw(uint hid, S state, uint balance, uint escrow, bytes32 offchain); \n\n    function draw(uint hid, bytes32 offchain) public initiatorOrBetors(hid) {\n        Bet storage b = bets[hid]; \n        require(b.state == S.Shaked && now > b.deadline * 1 seconds); \n        b.state = S.Draw;\n\n        __draw(hid, b.state, b.balance, b.escrow, offchain);\n    }\n\n    event __withdraw(uint hid, S state, uint balance, uint escrow, bytes32 offchain);\n\n    function withdraw(uint hid, bytes32 offchain) public initiatorOrBetors(hid) {\n        Bet storage b = bets[hid]; \n        if (b.state != S.Accepted) {\n            if(b.state == S.Cancelled) {\n                b.result = uint8(S.Draw);\n            } else {\n                require(now > b.deadline + rejectWindow);\n                if (b.state == S.InitiatorWon || b.state == S.BetorWon || b.state == S.Draw) {\n                    b.result = uint8(b.state);\n                }\n            }\n            b.state = S.Accepted;\n        }\n        require(b.state == S.Accepted);\n        if (b.result == uint8(S.InitiatorWon)) {\n            require(msg.sender == b.initiator);\n            if(b.initiator == msg.sender && b.escrow > 0) {\n                b.initiator.transfer(b.escrow + b.balance);\n                b.escrow = 0;\n                b.balance = 0;\n            }\n            \n        } else if (b.result == uint8(S.BetorWon)) {\n            require(b.betors[msg.sender].value > 0);\n            if(b.balance > 0) {\n                Betor storage p = b.betors[msg.sender];\n                b.escrow -= p.winValue;\n                b.balance -= p.value;\n                msg.sender.transfer(p.winValue);\n                p.value = 0;\n                p.winValue = 0;\n            }\n            \n        } else if (b.result == uint8(S.Draw)) { \n            if(b.initiator == msg.sender && b.escrow > 0) {\n                b.initiator.transfer(b.escrow);\n                b.escrow = 0;\n                \n            } else if (b.betors[msg.sender].value > 0) {\n                if(b.balance > 0) {\n                    Betor storage p1 = b.betors[msg.sender];\n                    b.balance -= p1.value;\n                    msg.sender.transfer(p1.value);\n                    p1.value = 0;\n                    p1.winValue = 0;\n                }\n            }\n        }\n\n        // TODO: transfer 1% fee to referee\n        if (b.balance == 0 && b.escrow == 0) {\n            b.state = S.Done;   \n        }\n\n        __withdraw(hid, b.state, b.balance, b.escrow, offchain);\n    }\n\n    event __reject(uint hid, S state, uint balance, uint escrow, bytes32 offchain);\n\n    function reject(uint hid, bytes32 offchain) public initiatorOrBetors(hid) {\n        Bet storage b = bets[hid]; \n        require(b.state == S.InitiatorWon || b.state == S.Draw || b.state == S.BetorWon); \n\n        b.state = S.Rejected;\n        __reject(hid, b.state, b.balance, b.escrow, offchain);\n    }\n\n    event __setWinner(uint hid, S state, uint balance, uint escrow, bytes32 offchain);\n\n    // referee will set the winner if there is a dispute    \n    function setWinner(uint hid, uint8 result, bytes32 offchain) public onlyReferee() {\n        Bet storage b = bets[hid];\n        require(b.state == S.Rejected && (result == uint8(S.InitiatorWon) || result == uint8(S.Draw) || result == uint8(S.BetorWon)));\n        b.state = S.Accepted;\n        b.result = result; \n        __setWinner(hid, b.state, b.balance, b.escrow, offchain);\n    }\n    \n    function isValidAcceptor(uint hid, address acceptor) private view returns (bool value) {\n        Bet storage b = bets[hid];\n        for (uint index = 0; index < b.acceptors.length; index++) {\n            if (b.acceptors[index] == acceptor) {\n                value = true;\n                return;\n            }\n        }\n    }\n\n    function getWinValue(uint hid) public view returns (uint) {\n        Bet storage b = bets[hid];\n        if (msg.sender == b.initiator) {\n            return b.balance;\n        }\n        return b.betors[msg.sender].winValue;\n    }\n}\n",
  "sourcePath": "/Workspace/robotbase/crypto/handshake-protocol/contracts/BettingHandshake.sol",
  "compiler": {
    "name": "solc",
    "version": "0.4.24+commit.e67f0147.Emscripten.clang"
  },
  "schemaVersion": "2.0.0",
  "updatedAt": "2018-06-06T04:16:44.374Z"
}