{
  "contractName": "PredictionHandshake",
  "abi": [
    {
      "constant": true,
      "inputs": [],
      "name": "NETWORK_FEE",
      "outputs": [
        {
          "name": "",
          "type": "uint256"
        }
      ],
      "payable": false,
      "stateMutability": "view",
      "type": "function"
    },
    {
      "constant": true,
      "inputs": [
        {
          "name": "",
          "type": "uint256"
        }
      ],
      "name": "markets",
      "outputs": [
        {
          "name": "creator",
          "type": "address"
        },
        {
          "name": "fee",
          "type": "uint256"
        },
        {
          "name": "source",
          "type": "bytes32"
        },
        {
          "name": "closingTime",
          "type": "uint256"
        },
        {
          "name": "reportTime",
          "type": "uint256"
        },
        {
          "name": "disputeTime",
          "type": "uint256"
        },
        {
          "name": "state",
          "type": "uint256"
        },
        {
          "name": "outcome",
          "type": "uint256"
        },
        {
          "name": "totalStake",
          "type": "uint256"
        },
        {
          "name": "disputeStake",
          "type": "uint256"
        },
        {
          "name": "resolved",
          "type": "bool"
        }
      ],
      "payable": false,
      "stateMutability": "view",
      "type": "function"
    },
    {
      "constant": true,
      "inputs": [],
      "name": "DISPUTE_THRESHOLD",
      "outputs": [
        {
          "name": "",
          "type": "uint256"
        }
      ],
      "payable": false,
      "stateMutability": "view",
      "type": "function"
    },
    {
      "constant": true,
      "inputs": [],
      "name": "root",
      "outputs": [
        {
          "name": "",
          "type": "address"
        }
      ],
      "payable": false,
      "stateMutability": "view",
      "type": "function"
    },
    {
      "constant": true,
      "inputs": [],
      "name": "ODDS_1",
      "outputs": [
        {
          "name": "",
          "type": "uint256"
        }
      ],
      "payable": false,
      "stateMutability": "view",
      "type": "function"
    },
    {
      "inputs": [],
      "payable": false,
      "stateMutability": "nonpayable",
      "type": "constructor"
    },
    {
      "anonymous": false,
      "inputs": [
        {
          "indexed": false,
          "name": "hid",
          "type": "uint256"
        },
        {
          "indexed": false,
          "name": "offchain",
          "type": "bytes32"
        }
      ],
      "name": "__createMarket",
      "type": "event"
    },
    {
      "anonymous": false,
      "inputs": [
        {
          "indexed": false,
          "name": "hid",
          "type": "uint256"
        },
        {
          "indexed": false,
          "name": "offchain",
          "type": "bytes32"
        }
      ],
      "name": "__init",
      "type": "event"
    },
    {
      "anonymous": false,
      "inputs": [
        {
          "indexed": false,
          "name": "stake",
          "type": "uint256"
        },
        {
          "indexed": false,
          "name": "payout",
          "type": "uint256"
        }
      ],
      "name": "__test__init",
      "type": "event"
    },
    {
      "anonymous": false,
      "inputs": [
        {
          "indexed": false,
          "name": "hid",
          "type": "uint256"
        },
        {
          "indexed": false,
          "name": "offchain",
          "type": "bytes32"
        }
      ],
      "name": "__uninit",
      "type": "event"
    },
    {
      "anonymous": false,
      "inputs": [
        {
          "indexed": false,
          "name": "stake",
          "type": "uint256"
        },
        {
          "indexed": false,
          "name": "payout",
          "type": "uint256"
        }
      ],
      "name": "__test__uninit",
      "type": "event"
    },
    {
      "anonymous": false,
      "inputs": [
        {
          "indexed": false,
          "name": "hid",
          "type": "uint256"
        },
        {
          "indexed": false,
          "name": "offchain",
          "type": "bytes32"
        }
      ],
      "name": "__shake",
      "type": "event"
    },
    {
      "anonymous": false,
      "inputs": [
        {
          "indexed": false,
          "name": "stake",
          "type": "uint256"
        },
        {
          "indexed": false,
          "name": "payout",
          "type": "uint256"
        }
      ],
      "name": "__test__shake__taker__matched",
      "type": "event"
    },
    {
      "anonymous": false,
      "inputs": [
        {
          "indexed": false,
          "name": "stake",
          "type": "uint256"
        },
        {
          "indexed": false,
          "name": "payout",
          "type": "uint256"
        }
      ],
      "name": "__test__shake__maker__matched",
      "type": "event"
    },
    {
      "anonymous": false,
      "inputs": [
        {
          "indexed": false,
          "name": "stake",
          "type": "uint256"
        },
        {
          "indexed": false,
          "name": "payout",
          "type": "uint256"
        }
      ],
      "name": "__test__shake__maker__open",
      "type": "event"
    },
    {
      "anonymous": false,
      "inputs": [
        {
          "indexed": false,
          "name": "hid",
          "type": "uint256"
        },
        {
          "indexed": false,
          "name": "offchain",
          "type": "bytes32"
        }
      ],
      "name": "__collect",
      "type": "event"
    },
    {
      "anonymous": false,
      "inputs": [
        {
          "indexed": false,
          "name": "network",
          "type": "uint256"
        },
        {
          "indexed": false,
          "name": "market",
          "type": "uint256"
        },
        {
          "indexed": false,
          "name": "trader",
          "type": "uint256"
        }
      ],
      "name": "__test__collect",
      "type": "event"
    },
    {
      "anonymous": false,
      "inputs": [
        {
          "indexed": false,
          "name": "hid",
          "type": "uint256"
        },
        {
          "indexed": false,
          "name": "offchain",
          "type": "bytes32"
        }
      ],
      "name": "__refund",
      "type": "event"
    },
    {
      "anonymous": false,
      "inputs": [
        {
          "indexed": false,
          "name": "amt",
          "type": "uint256"
        }
      ],
      "name": "__test__refund",
      "type": "event"
    },
    {
      "anonymous": false,
      "inputs": [
        {
          "indexed": false,
          "name": "hid",
          "type": "uint256"
        },
        {
          "indexed": false,
          "name": "offchain",
          "type": "bytes32"
        }
      ],
      "name": "__report",
      "type": "event"
    },
    {
      "anonymous": false,
      "inputs": [
        {
          "indexed": false,
          "name": "hid",
          "type": "uint256"
        },
        {
          "indexed": false,
          "name": "offchain",
          "type": "bytes32"
        }
      ],
      "name": "__dispute",
      "type": "event"
    },
    {
      "anonymous": false,
      "inputs": [
        {
          "indexed": false,
          "name": "hid",
          "type": "uint256"
        },
        {
          "indexed": false,
          "name": "offchain",
          "type": "bytes32"
        }
      ],
      "name": "__resolve",
      "type": "event"
    },
    {
      "constant": false,
      "inputs": [
        {
          "name": "fee",
          "type": "uint256"
        },
        {
          "name": "source",
          "type": "bytes32"
        },
        {
          "name": "closingWindow",
          "type": "uint256"
        },
        {
          "name": "reportWindow",
          "type": "uint256"
        },
        {
          "name": "disputeWindow",
          "type": "uint256"
        },
        {
          "name": "offchain",
          "type": "bytes32"
        }
      ],
      "name": "createMarket",
      "outputs": [],
      "payable": false,
      "stateMutability": "nonpayable",
      "type": "function"
    },
    {
      "constant": false,
      "inputs": [
        {
          "name": "hid",
          "type": "uint256"
        },
        {
          "name": "side",
          "type": "uint256"
        },
        {
          "name": "odds",
          "type": "uint256"
        },
        {
          "name": "offchain",
          "type": "bytes32"
        }
      ],
      "name": "init",
      "outputs": [],
      "payable": true,
      "stateMutability": "payable",
      "type": "function"
    },
    {
      "constant": false,
      "inputs": [
        {
          "name": "hid",
          "type": "uint256"
        },
        {
          "name": "side",
          "type": "uint256"
        },
        {
          "name": "odds",
          "type": "uint256"
        },
        {
          "name": "maker",
          "type": "address"
        },
        {
          "name": "offchain",
          "type": "bytes32"
        }
      ],
      "name": "initTestDrive",
      "outputs": [],
      "payable": true,
      "stateMutability": "payable",
      "type": "function"
    },
    {
      "constant": false,
      "inputs": [
        {
          "name": "hid",
          "type": "uint256"
        },
        {
          "name": "side",
          "type": "uint256"
        },
        {
          "name": "stake",
          "type": "uint256"
        },
        {
          "name": "odds",
          "type": "uint256"
        },
        {
          "name": "offchain",
          "type": "bytes32"
        }
      ],
      "name": "uninit",
      "outputs": [],
      "payable": false,
      "stateMutability": "nonpayable",
      "type": "function"
    },
    {
      "constant": false,
      "inputs": [
        {
          "name": "hid",
          "type": "uint256"
        },
        {
          "name": "side",
          "type": "uint256"
        },
        {
          "name": "takerOdds",
          "type": "uint256"
        },
        {
          "name": "maker",
          "type": "address"
        },
        {
          "name": "makerOdds",
          "type": "uint256"
        },
        {
          "name": "offchain",
          "type": "bytes32"
        }
      ],
      "name": "shake",
      "outputs": [],
      "payable": true,
      "stateMutability": "payable",
      "type": "function"
    },
    {
      "constant": false,
      "inputs": [
        {
          "name": "hid",
          "type": "uint256"
        },
        {
          "name": "side",
          "type": "uint256"
        },
        {
          "name": "taker",
          "type": "address"
        },
        {
          "name": "takerOdds",
          "type": "uint256"
        },
        {
          "name": "maker",
          "type": "address"
        },
        {
          "name": "makerOdds",
          "type": "uint256"
        },
        {
          "name": "offchain",
          "type": "bytes32"
        }
      ],
      "name": "shakeTestDrive",
      "outputs": [],
      "payable": true,
      "stateMutability": "payable",
      "type": "function"
    },
    {
      "constant": false,
      "inputs": [
        {
          "name": "hid",
          "type": "uint256"
        },
        {
          "name": "offchain",
          "type": "bytes32"
        }
      ],
      "name": "collect",
      "outputs": [],
      "payable": false,
      "stateMutability": "nonpayable",
      "type": "function"
    },
    {
      "constant": false,
      "inputs": [
        {
          "name": "hid",
          "type": "uint256"
        },
        {
          "name": "offchain",
          "type": "bytes32"
        }
      ],
      "name": "refund",
      "outputs": [],
      "payable": false,
      "stateMutability": "nonpayable",
      "type": "function"
    },
    {
      "constant": false,
      "inputs": [
        {
          "name": "hid",
          "type": "uint256"
        },
        {
          "name": "outcome",
          "type": "uint256"
        },
        {
          "name": "offchain",
          "type": "bytes32"
        }
      ],
      "name": "report",
      "outputs": [],
      "payable": false,
      "stateMutability": "nonpayable",
      "type": "function"
    },
    {
      "constant": false,
      "inputs": [
        {
          "name": "hid",
          "type": "uint256"
        },
        {
          "name": "offchain",
          "type": "bytes32"
        }
      ],
      "name": "dispute",
      "outputs": [],
      "payable": false,
      "stateMutability": "nonpayable",
      "type": "function"
    },
    {
      "constant": false,
      "inputs": [
        {
          "name": "hid",
          "type": "uint256"
        },
        {
          "name": "outcome",
          "type": "uint256"
        },
        {
          "name": "offchain",
          "type": "bytes32"
        }
      ],
      "name": "resolve",
      "outputs": [],
      "payable": false,
      "stateMutability": "nonpayable",
      "type": "function"
    }
  ],
  "bytecode": "0x608060405260146000556064600155600560025534801561001f57600080fd5b5033600460006101000a81548173ffffffffffffffffffffffffffffffffffffffff021916908373ffffffffffffffffffffffffffffffffffffffff160217905550612d9a806100706000396000f3006080604052600436106100e6576000357c0100000000000000000000000000000000000000000000000000000000900463ffffffff1680634394f6f3146100eb57806371eedb881461012d5780639be5c024146101685780639d56ded414610193578063a420d8d91461021f578063a7d07c8214610278578063b1283e77146102bd578063b86c8cf41461037c578063b9e9c8b4146103de578063ca5f001f14610409578063da676f2014610470578063de847ff8146104b5578063decea642146104f0578063ebf0c7171461055c578063f3692c3e146105b3578063faf374a4146105ee575b600080fd5b61012b6004803603810190808035906020019092919080359060200190929190803590602001909291908035600019169060200190929190505050610619565b005b34801561013957600080fd5b5061016660048036038101908080359060200190929190803560001916906020019092919050505061062c565b005b34801561017457600080fd5b5061017d610c23565b6040518082815260200191505060405180910390f35b61021d6004803603810190808035906020019092919080359060200190929190803573ffffffffffffffffffffffffffffffffffffffff16906020019092919080359060200190929190803573ffffffffffffffffffffffffffffffffffffffff169060200190929190803590602001909291908035600019169060200190929190505050610c29565b005b34801561022b57600080fd5b50610276600480360381019080803590602001909291908035906020019092919080359060200190929190803590602001909291908035600019169060200190929190505050610c41565b005b34801561028457600080fd5b506102bb60048036038101908080359060200190929190803590602001909291908035600019169060200190929190505050611210565b005b3480156102c957600080fd5b506102e860048036038101908080359060200190929190505050611332565b604051808c73ffffffffffffffffffffffffffffffffffffffff1673ffffffffffffffffffffffffffffffffffffffff1681526020018b81526020018a60001916600019168152602001898152602001888152602001878152602001868152602001858152602001848152602001838152602001821515151581526020019b50505050505050505050505060405180910390f35b6103dc600480360381019080803590602001909291908035906020019092919080359060200190929190803573ffffffffffffffffffffffffffffffffffffffff16906020019092919080356000191690602001909291905050506113c8565b005b3480156103ea57600080fd5b506103f361143a565b6040518082815260200191505060405180910390f35b34801561041557600080fd5b5061046e6004803603810190808035906020019092919080356000191690602001909291908035906020019092919080359060200190929190803590602001909291908035600019169060200190929190505050611440565b005b34801561047c57600080fd5b506104b360048036038101908080359060200190929190803590602001909291908035600019169060200190929190505050611631565b005b3480156104c157600080fd5b506104ee600480360381019080803590602001909291908035600019169060200190929190505050611723565b005b61055a600480360381019080803590602001909291908035906020019092919080359060200190929190803573ffffffffffffffffffffffffffffffffffffffff169060200190929190803590602001909291908035600019169060200190929190505050611a48565b005b34801561056857600080fd5b50610571611a5f565b604051808273ffffffffffffffffffffffffffffffffffffffff1673ffffffffffffffffffffffffffffffffffffffff16815260200191505060405180910390f35b3480156105bf57600080fd5b506105ec600480360381019080803590602001909291908035600019169060200190929190505050611a85565b005b3480156105fa57600080fd5b5061060361213b565b6040518082815260200191505060405180910390f35b6106268484843385612141565b50505050565b60008083600060038281548110151561064157fe5b90600052602060002090600d0201600c0160003373ffffffffffffffffffffffffffffffffffffffff1673ffffffffffffffffffffffffffffffffffffffff168152602001908152602001600020600060018152602001908152602001600020600001541180610723575060006003828154811015156106bd57fe5b90600052602060002090600d0201600c0160003373ffffffffffffffffffffffffffffffffffffffff1673ffffffffffffffffffffffffffffffffffffffff16815260200190815260200160002060006002815260200190815260200160002060000154115b806107a05750600060038281548110151561073a57fe5b90600052602060002090600d0201600b0160003373ffffffffffffffffffffffffffffffffffffffff1673ffffffffffffffffffffffffffffffffffffffff16815260200190815260200160002060006001815260200190815260200160002060000154115b8061081d575060006003828154811015156107b757fe5b90600052602060002090600d0201600b0160003373ffffffffffffffffffffffffffffffffffffffff1673ffffffffffffffffffffffffffffffffffffffff16815260200190815260200160002060006002815260200190815260200160002060000154115b151561082857600080fd5b60038581548110151561083757fe5b90600052602060002090600d020192506001836006015414151561085a57600080fd5b82600401544211151561086c57600080fd5b82600c0160003373ffffffffffffffffffffffffffffffffffffffff1673ffffffffffffffffffffffffffffffffffffffff168152602001908152602001600020600060018152602001908152602001600020600001548201915082600c0160003373ffffffffffffffffffffffffffffffffffffffff1673ffffffffffffffffffffffffffffffffffffffff168152602001908152602001600020600060028152602001908152602001600020600001548201915082600b0160003373ffffffffffffffffffffffffffffffffffffffff1673ffffffffffffffffffffffffffffffffffffffff168152602001908152602001600020600060018152602001908152602001600020600001548201915082600b0160003373ffffffffffffffffffffffffffffffffffffffff1673ffffffffffffffffffffffffffffffffffffffff16815260200190815260200160002060006002815260200190815260200160002060000154820191506000821115156109e757600080fd5b600083600c0160003373ffffffffffffffffffffffffffffffffffffffff1673ffffffffffffffffffffffffffffffffffffffff16815260200190815260200160002060006001815260200190815260200160002060000181905550600083600c0160003373ffffffffffffffffffffffffffffffffffffffff1673ffffffffffffffffffffffffffffffffffffffff16815260200190815260200160002060006002815260200190815260200160002060000181905550600083600b0160003373ffffffffffffffffffffffffffffffffffffffff1673ffffffffffffffffffffffffffffffffffffffff16815260200190815260200160002060006001815260200190815260200160002060000181905550600083600b0160003373ffffffffffffffffffffffffffffffffffffffff1673ffffffffffffffffffffffffffffffffffffffff168152602001908152602001600020600060028152602001908152602001600020600001819055503373ffffffffffffffffffffffffffffffffffffffff166108fc839081150290604051600060405180830381858888f19350505050158015610b9d573d6000803e3d6000fd5b507f6fe9fe9590d9b235fcb84468bf92bf905ca3795c7c284fa06eec9b10776ea4b485856040518083815260200182600019166000191681526020019250505060405180910390a17fe518c6999b8fc54688a71bb20779df78e259f03f0118b6e5c13099dd3dd4ebf4826040518082815260200191505060405180910390a15050505050565b60005481565b610c3887878787878787612408565b50505050505050565b6000856000600382815481101515610c5557fe5b90600052602060002090600d0201600c0160003373ffffffffffffffffffffffffffffffffffffffff1673ffffffffffffffffffffffffffffffffffffffff168152602001908152602001600020600060018152602001908152602001600020600001541180610d3757506000600382815481101515610cd157fe5b90600052602060002090600d0201600c0160003373ffffffffffffffffffffffffffffffffffffffff1673ffffffffffffffffffffffffffffffffffffffff16815260200190815260200160002060006002815260200190815260200160002060000154115b80610db457506000600382815481101515610d4e57fe5b90600052602060002090600d0201600b0160003373ffffffffffffffffffffffffffffffffffffffff1673ffffffffffffffffffffffffffffffffffffffff16815260200190815260200160002060006001815260200190815260200160002060000154115b80610e3157506000600382815481101515610dcb57fe5b90600052602060002090600d0201600b0160003373ffffffffffffffffffffffffffffffffffffffff1673ffffffffffffffffffffffffffffffffffffffff16815260200190815260200160002060006002815260200190815260200160002060000154115b1515610e3c57600080fd5b600387815481101515610e4b57fe5b90600052602060002090600d0201915060018260060154141515610e6e57600080fd5b8482600b0160003373ffffffffffffffffffffffffffffffffffffffff1673ffffffffffffffffffffffffffffffffffffffff16815260200190815260200160002060008881526020019081526020016000206000015410151515610ed257600080fd5b8482600b0160003373ffffffffffffffffffffffffffffffffffffffff1673ffffffffffffffffffffffffffffffffffffffff168152602001908152602001600020600088815260200190815260200160002060020160008681526020019081526020016000205410151515610f4757600080fd5b8482600b0160003373ffffffffffffffffffffffffffffffffffffffff1673ffffffffffffffffffffffffffffffffffffffff1681526020019081526020016000206000888152602001908152602001600020600001600082825403925050819055508482600b0160003373ffffffffffffffffffffffffffffffffffffffff1673ffffffffffffffffffffffffffffffffffffffff168152602001908152602001600020600088815260200190815260200160002060020160008681526020019081526020016000206000828254039250508190555060015485850281151561102d57fe5b0482600b0160003373ffffffffffffffffffffffffffffffffffffffff1673ffffffffffffffffffffffffffffffffffffffff1681526020019081526020016000206000888152602001908152602001600020600101600082825403925050819055503373ffffffffffffffffffffffffffffffffffffffff166108fc869081150290604051600060405180830381858888f193505050501580156110d6573d6000803e3d6000fd5b507fab0e14e0a016fa8a0d17ecf0051bf0b27117e332369e6660521a8969574c272d87846040518083815260200182600019166000191681526020019250505060405180910390a17f8b70df7f34b4badf76e09c45757ef9595204bc6d4ecb9803a4e9586f76f5a8c882600b0160003373ffffffffffffffffffffffffffffffffffffffff1673ffffffffffffffffffffffffffffffffffffffff16815260200190815260200160002060008881526020019081526020016000206000015483600b0160003373ffffffffffffffffffffffffffffffffffffffff1673ffffffffffffffffffffffffffffffffffffffff168152602001908152602001600020600089815260200190815260200160002060010154604051808381526020018281526020019250505060405180910390a150505050505050565b600083600460009054906101000a900473ffffffffffffffffffffffffffffffffffffffff1673ffffffffffffffffffffffffffffffffffffffff163373ffffffffffffffffffffffffffffffffffffffff1614151561126f57600080fd5b60038581548110151561127e57fe5b90600052602060002090600d02019150600382600601541415156112a157600080fd5b600182600a0160006101000a81548160ff021916908315150217905550838260070181905550600084146112d65760026112d9565b60015b60ff1682600601819055507f43db73c3d115ee5896bed665630bc1f24065e21274b5dbc4acc4a84bb682d58a85846040518083815260200182600019166000191681526020019250505060405180910390a15050505050565b60038181548110151561134157fe5b90600052602060002090600d02016000915090508060000160009054906101000a900473ffffffffffffffffffffffffffffffffffffffff169080600101549080600201549080600301549080600401549080600501549080600601549080600701549080600801549080600901549080600a0160009054906101000a900460ff1690508b565b84600460009054906101000a900473ffffffffffffffffffffffffffffffffffffffff1673ffffffffffffffffffffffffffffffffffffffff163373ffffffffffffffffffffffffffffffffffffffff1614151561142557600080fd5b6114328686868686612141565b505050505050565b60025481565b611448612cf8565b33816000019073ffffffffffffffffffffffffffffffffffffffff16908173ffffffffffffffffffffffffffffffffffffffff168152505086816020018181525050858160400190600019169081600019168152505060018502420181606001818152505060018402816060015101816080018181525050600183028160800151018160a001818152505060018160c00181815250506003819080600181540180825580915050906001820390600052602060002090600d02016000909192909190915060008201518160000160006101000a81548173ffffffffffffffffffffffffffffffffffffffff021916908373ffffffffffffffffffffffffffffffffffffffff1602179055506020820151816001015560408201518160020190600019169055606082015181600301556080820151816004015560a0820151816005015560c0820151816006015560e082015181600701556101008201518160080155610120820151816009015561014082015181600a0160006101000a81548160ff0219169083151502179055505050507f6ca4bad73e644d473be8bf4f88e57b9c92f4aae31d45b3a7f90cd9438343b641600160038054905003836040518083815260200182600019166000191681526020019250505060405180910390a150505050505050565b600060038481548110151561164257fe5b90600052602060002090600d020190508060000160009054906101000a900473ffffffffffffffffffffffffffffffffffffffff1673ffffffffffffffffffffffffffffffffffffffff163373ffffffffffffffffffffffffffffffffffffffff161415156116b057600080fd5b600181600601541415156116c357600080fd5b828160070181905550600281600601819055507f71c8b3ac7d9125fc562f0e493b93c79c2f22d445820a039344e6732d22871d3c84836040518083815260200182600019166000191681526020019250505060405180910390a150505050565b600082600060038281548110151561173757fe5b90600052602060002090600d0201600c0160003373ffffffffffffffffffffffffffffffffffffffff1673ffffffffffffffffffffffffffffffffffffffff168152602001908152602001600020600060018152602001908152602001600020600001541180611819575060006003828154811015156117b357fe5b90600052602060002090600d0201600c0160003373ffffffffffffffffffffffffffffffffffffffff1673ffffffffffffffffffffffffffffffffffffffff16815260200190815260200160002060006002815260200190815260200160002060000154115b806118965750600060038281548110151561183057fe5b90600052602060002090600d0201600b0160003373ffffffffffffffffffffffffffffffffffffffff1673ffffffffffffffffffffffffffffffffffffffff16815260200190815260200160002060006001815260200190815260200160002060000154115b80611913575060006003828154811015156118ad57fe5b90600052602060002090600d0201600b0160003373ffffffffffffffffffffffffffffffffffffffff1673ffffffffffffffffffffffffffffffffffffffff16815260200190815260200160002060006002815260200190815260200160002060000154115b151561191e57600080fd5b60038481548110151561192d57fe5b90600052602060002090600d020191506002826006015414151561195057600080fd5b81600a0160009054906101000a900460ff1615151561196e57600080fd5b81600c0160003373ffffffffffffffffffffffffffffffffffffffff1673ffffffffffffffffffffffffffffffffffffffff168152602001908152602001600020600083600701548152602001908152602001600020600001548260090160008282540192505081905550816008015460025402826009015460640211156119fb57600382600601819055505b7f0de59eb9b3fe6ece2a520b9112ddb9357cbeae19fbdf2bdd6a35538533de73c284846040518083815260200182600019166000191681526020019250505060405180910390a150505050565b611a5786863387878787612408565b505050505050565b600460009054906101000a900473ffffffffffffffffffffffffffffffffffffffff1681565b600080600080856000600382815481101515611a9d57fe5b90600052602060002090600d0201600c0160003373ffffffffffffffffffffffffffffffffffffffff1673ffffffffffffffffffffffffffffffffffffffff168152602001908152602001600020600060018152602001908152602001600020600001541180611b7f57506000600382815481101515611b1957fe5b90600052602060002090600d0201600c0160003373ffffffffffffffffffffffffffffffffffffffff1673ffffffffffffffffffffffffffffffffffffffff16815260200190815260200160002060006002815260200190815260200160002060000154115b80611bfc57506000600382815481101515611b9657fe5b90600052602060002090600d0201600b0160003373ffffffffffffffffffffffffffffffffffffffff1673ffffffffffffffffffffffffffffffffffffffff16815260200190815260200160002060006001815260200190815260200160002060000154115b80611c7957506000600382815481101515611c1357fe5b90600052602060002090600d0201600b0160003373ffffffffffffffffffffffffffffffffffffffff1673ffffffffffffffffffffffffffffffffffffffff16815260200190815260200160002060006002815260200190815260200160002060000154115b1515611c8457600080fd5b600387815481101515611c9357fe5b90600052602060002090600d0201945060028560060154141515611cb657600080fd5b846005015442111515611cc857600080fd5b6064856001015486600c0160003373ffffffffffffffffffffffffffffffffffffffff1673ffffffffffffffffffffffffffffffffffffffff1681526020019081526020016000206000886007015481526020019081526020016000206001015402811515611d3357fe5b04935060646000548502811515611d4657fe5b04925084600c0160003373ffffffffffffffffffffffffffffffffffffffff1673ffffffffffffffffffffffffffffffffffffffff16815260200190815260200160002060008660070154815260200190815260200160002060010154915084600b0160003373ffffffffffffffffffffffffffffffffffffffff1673ffffffffffffffffffffffffffffffffffffffff168152602001908152602001600020600060018152602001908152602001600020600001548201915084600b0160003373ffffffffffffffffffffffffffffffffffffffff1673ffffffffffffffffffffffffffffffffffffffff1681526020019081526020016000206000600281526020019081526020016000206000015482019150600082111515611e6a57600080fd5b600085600c0160003373ffffffffffffffffffffffffffffffffffffffff1673ffffffffffffffffffffffffffffffffffffffff16815260200190815260200160002060008760070154815260200190815260200160002060010181905550600085600b0160003373ffffffffffffffffffffffffffffffffffffffff1673ffffffffffffffffffffffffffffffffffffffff16815260200190815260200160002060006001815260200190815260200160002060000181905550600085600b0160003373ffffffffffffffffffffffffffffffffffffffff1673ffffffffffffffffffffffffffffffffffffffff168152602001908152602001600020600060028152602001908152602001600020600001819055503373ffffffffffffffffffffffffffffffffffffffff166108fc8584039081150290604051600060405180830381858888f19350505050158015611fc9573d6000803e3d6000fd5b508460000160009054906101000a900473ffffffffffffffffffffffffffffffffffffffff1673ffffffffffffffffffffffffffffffffffffffff166108fc8486039081150290604051600060405180830381858888f19350505050158015612036573d6000803e3d6000fd5b50600460009054906101000a900473ffffffffffffffffffffffffffffffffffffffff1673ffffffffffffffffffffffffffffffffffffffff166108fc849081150290604051600060405180830381858888f1935050505015801561209f573d6000803e3d6000fd5b507f524cfe0d33d142e24b3c16c7f11234b23eae5fe14f95d328f3991837dc56d31487876040518083815260200182600019166000191681526020019250505060405180910390a17f8de0c4178df0ca7d776c505c09fe7699d34fb83545c4b23c03fc2e87461604888384860386850360405180848152602001838152602001828152602001935050505060405180910390a150505050505050565b60015481565b600060038681548110151561215257fe5b90600052602060002090600d0201905080600301544210151561217457600080fd5b6001816006015414151561218757600080fd5b3481600b0160008573ffffffffffffffffffffffffffffffffffffffff1673ffffffffffffffffffffffffffffffffffffffff1681526020019081526020016000206000878152602001908152602001600020600001600082825401925050819055503481600b0160008573ffffffffffffffffffffffffffffffffffffffff1673ffffffffffffffffffffffffffffffffffffffff168152602001908152602001600020600087815260200190815260200160002060020160008681526020019081526020016000206000828254019250508190555060015434850281151561226d57fe5b0481600b0160008573ffffffffffffffffffffffffffffffffffffffff1673ffffffffffffffffffffffffffffffffffffffff1681526020019081526020016000206000878152602001908152602001600020600101600082825401925050819055507f21c02be65fa434a2e6b80a50c93b2654e65a53835f1b04697e4b5c09175beb1386836040518083815260200182600019166000191681526020019250505060405180910390a17ffadc6fcc7da5cb9013e9c7bab0cf9183dd83b8ada91424e9f0445ee02da0b24581600b0160008573ffffffffffffffffffffffffffffffffffffffff1673ffffffffffffffffffffffffffffffffffffffff16815260200190815260200160002060008781526020019081526020016000206000015482600b0160008673ffffffffffffffffffffffffffffffffffffffff1673ffffffffffffffffffffffffffffffffffffffff168152602001908152602001600020600088815260200190815260200160002060010154604051808381526020018281526020019250505060405180910390a1505050505050565b60008060008060008060008973ffffffffffffffffffffffffffffffffffffffff161415151561243757600080fd5b6001548a1015151561244857600080fd5b600154881015151561245957600080fd5b60038d81548110151561246857fe5b90600052602060002090600d020195506001866006015414151561248b57600080fd5b85600301544210151561249d57600080fd5b3494506001548a86028115156124af57fe5b04935084840392506001548884028115156124c657fe5b0491508b60030390506001548a0388026001548b02101515156124e857600080fd5b8286600b0160008b73ffffffffffffffffffffffffffffffffffffffff1673ffffffffffffffffffffffffffffffffffffffff168152602001908152602001600020600083815260200190815260200160002060020160008a8152602001908152602001600020541015151561255d57600080fd5b8286600b0160008b73ffffffffffffffffffffffffffffffffffffffff1673ffffffffffffffffffffffffffffffffffffffff168152602001908152602001600020600083815260200190815260200160002060000154101515156125c157600080fd5b8186600b0160008b73ffffffffffffffffffffffffffffffffffffffff1673ffffffffffffffffffffffffffffffffffffffff1681526020019081526020016000206000838152602001908152602001600020600101541015151561262557600080fd5b8286600b0160008b73ffffffffffffffffffffffffffffffffffffffff1673ffffffffffffffffffffffffffffffffffffffff168152602001908152602001600020600083815260200190815260200160002060020160008a8152602001908152602001600020600082825403925050819055508286600b0160008b73ffffffffffffffffffffffffffffffffffffffff1673ffffffffffffffffffffffffffffffffffffffff1681526020019081526020016000206000838152602001908152602001600020600001600082825403925050819055508186600b0160008b73ffffffffffffffffffffffffffffffffffffffff1673ffffffffffffffffffffffffffffffffffffffff1681526020019081526020016000206000838152602001908152602001600020600101600082825403925050819055508286600c0160008b73ffffffffffffffffffffffffffffffffffffffff1673ffffffffffffffffffffffffffffffffffffffff168152602001908152602001600020600083815260200190815260200160002060020160008a8152602001908152602001600020600082825401925050819055508286600c0160008b73ffffffffffffffffffffffffffffffffffffffff1673ffffffffffffffffffffffffffffffffffffffff1681526020019081526020016000206000838152602001908152602001600020600001600082825401925050819055508186600c0160008b73ffffffffffffffffffffffffffffffffffffffff1673ffffffffffffffffffffffffffffffffffffffff1681526020019081526020016000206000838152602001908152602001600020600101600082825401925050819055508486600c0160008d73ffffffffffffffffffffffffffffffffffffffff1673ffffffffffffffffffffffffffffffffffffffff16815260200190815260200160002060008e815260200190815260200160002060020160008c8152602001908152602001600020600082825401925050819055508486600c0160008d73ffffffffffffffffffffffffffffffffffffffff1673ffffffffffffffffffffffffffffffffffffffff16815260200190815260200160002060008e8152602001908152602001600020600001600082825401925050819055508386600c0160008d73ffffffffffffffffffffffffffffffffffffffff1673ffffffffffffffffffffffffffffffffffffffff16815260200190815260200160002060008e81526020019081526020016000206001016000828254019250508190555082850186600801600082825401925050819055507f6a5ee55c9df2daa4375d2b5e4ec8b9e5662f1863207bcbe6e38c6f5fe3c243008d886040518083815260200182600019166000191681526020019250505060405180910390a17f7bc2bdf03b14356e89aa86930df0003eebc752e6ec9983a77e36d4306a7e696e86600c0160008d73ffffffffffffffffffffffffffffffffffffffff1673ffffffffffffffffffffffffffffffffffffffff16815260200190815260200160002060008e81526020019081526020016000206000015487600c0160008e73ffffffffffffffffffffffffffffffffffffffff1673ffffffffffffffffffffffffffffffffffffffff16815260200190815260200160002060008f815260200190815260200160002060010154604051808381526020018281526020019250505060405180910390a17f023664a17f87e2ab3ac3130a5341e46a8e241ffc60cf8c93e685e820528f985f86600c0160008b73ffffffffffffffffffffffffffffffffffffffff1673ffffffffffffffffffffffffffffffffffffffff16815260200190815260200160002060008381526020019081526020016000206000015487600c0160008c73ffffffffffffffffffffffffffffffffffffffff1673ffffffffffffffffffffffffffffffffffffffff168152602001908152602001600020600084815260200190815260200160002060010154604051808381526020018281526020019250505060405180910390a17ff8046fb2d890f01dcda9039a3883c157d20000e4f78985f8cbf8e5f83c6128d786600b0160008b73ffffffffffffffffffffffffffffffffffffffff1673ffffffffffffffffffffffffffffffffffffffff16815260200190815260200160002060008381526020019081526020016000206000015487600b0160008c73ffffffffffffffffffffffffffffffffffffffff1673ffffffffffffffffffffffffffffffffffffffff168152602001908152602001600020600084815260200190815260200160002060010154604051808381526020018281526020019250505060405180910390a150505050505050505050505050565b61016060405190810160405280600073ffffffffffffffffffffffffffffffffffffffff16815260200160008152602001600080191681526020016000815260200160008152602001600081526020016000815260200160008152602001600081526020016000815260200160001515815250905600a165627a7a72305820b20c093f076824d0f7f01a16a4a9a2e61af9352830922554a36d7e5b972310550029",
  "source": "/*\n*\n* PredictionExchange is an exchange contract that doesn't accept bets on the outcomes,\n* but instead matchedes backers/takers (those betting on odds) with layers/makers \n* (those offering the odds).\n*\n* Note:\n*\n*       side: 0 (unknown), 1 (support), 2 (against)\n*       role: 0 (unknown), 1 (maker), 2 (taker)\n*       state: 0 (unknown), 1 (created), 2 (reported), 3 (disputed)\n*       __test__* events will be removed prior to production deployment\n*       odds are rounded up (2.25 is 225)\n*\n*/\n\npragma solidity ^0.4.24;\n\ncontract PredictionHandshake {\n\n        struct Market {\n\n                address creator;\n                uint fee; \n                bytes32 source;\n                uint closingTime; \n                uint reportTime; \n                uint disputeTime;\n\n                uint state;\n                uint outcome;\n                uint totalStake;\n                uint disputeStake;\n                bool resolved;\n\n                mapping(address => mapping(uint => Order)) open; // address => side => order\n                mapping(address => mapping(uint => Order)) matched; // address => side => order\n\n        }\n\n        struct Order {\n                uint stake;\n                uint payout;\n                mapping(uint => uint) odds; // odds => pool size\n        }\n\n        uint public NETWORK_FEE = 20; // 20%\n        uint public ODDS_1 = 100; // 1.00 is 100; 2.25 is 225 \n        uint public DISPUTE_THRESHOLD = 5; // 5%\n\n        Market[] public markets;\n        address public root;\n\n\n        constructor() public {\n                root = msg.sender;\n        } \n\n\n        event __createMarket(uint hid, bytes32 offchain); \n\n        function createMarket(\n                uint fee, \n                bytes32 source,\n                uint closingWindow, \n                uint reportWindow, \n                uint disputeWindow,\n                bytes32 offchain\n        ) \n                public \n        {\n                Market memory m;\n                m.creator = msg.sender;\n                m.fee = fee;\n                m.source = source;\n                m.closingTime = now + closingWindow * 1 seconds;\n                m.reportTime = m.closingTime + reportWindow * 1 seconds;\n                m.disputeTime = m.reportTime + disputeWindow * 1 seconds;\n                m.state = 1;\n                markets.push(m);\n\n                emit __createMarket(markets.length - 1, offchain);\n        }\n\n\n        event __init(uint hid, bytes32 offchain);\n        event __test__init(uint stake, uint payout);\n\n\n        // market maker\n        function init(\n                uint hid, \n                uint side, \n                uint odds, \n                bytes32 offchain\n        ) \n                public \n                payable \n        {\n                _init(hid, side, odds, msg.sender, offchain);\n        }\n\n\n        // market maker. only called by root.  \n        function initTestDrive(\n                uint hid, \n                uint side, \n                uint odds, \n                address maker, \n                bytes32 offchain\n        ) \n                public\n                payable\n                onlyRoot(hid)\n        {\n                _init(hid, side, odds, maker, offchain);\n        }\n\n        // market maker. only called by root.  \n        function _init(\n                uint hid, \n                uint side, \n                uint odds, \n                address maker, \n                bytes32 offchain\n        ) \n                private \n        {\n                Market storage m = markets[hid];\n\n                require(now < m.closingTime);\n                require(m.state == 1);\n\n                m.open[maker][side].stake += msg.value;\n                m.open[maker][side].odds[odds] += msg.value;\n                m.open[maker][side].payout += ((odds * msg.value) / ODDS_1);\n                emit __init(hid, offchain);\n                emit __test__init(m.open[maker][side].stake, m.open[maker][side].payout);\n        }\n\n\n        event __uninit(uint hid, bytes32 offchain);\n        event __test__uninit(uint stake, uint payout);\n\n        // market maker cancels order\n        function uninit(\n                uint hid, \n                uint side, \n                uint stake, \n                uint odds, \n                bytes32 offchain\n        ) \n                public \n                onlyPredictor(hid) \n        {\n                Market storage m = markets[hid];\n\n                require(m.state == 1);\n                require(m.open[msg.sender][side].stake >= stake);\n                require(m.open[msg.sender][side].odds[odds] >= stake);\n\n                m.open[msg.sender][side].stake -= stake;\n                m.open[msg.sender][side].odds[odds] -= stake;\n                m.open[msg.sender][side].payout -= ((odds * stake) / ODDS_1);\n\n                msg.sender.transfer(stake);\n\n                emit __uninit(hid, offchain);\n                emit __test__uninit(m.open[msg.sender][side].stake, m.open[msg.sender][side].payout);\n        }\n\n\n        event __shake(uint hid, bytes32 offchain);\n        event __test__shake__taker__matched(uint stake, uint payout);\n        event __test__shake__maker__matched(uint stake, uint payout);\n        event __test__shake__maker__open(uint stake, uint payout);\n\n\n        // market taker\n        function shake(\n                uint hid, \n                uint side, \n                uint takerOdds, \n                address maker, \n                uint makerOdds, \n                bytes32 offchain\n        ) \n                public \n                payable \n        {\n                _shake(hid, side, msg.sender, takerOdds, maker, makerOdds, offchain);\n        }\n\n\n        function shakeTestDrive(\n                uint hid, \n                uint side, \n                address taker,\n                uint takerOdds, \n                address maker, \n                uint makerOdds, \n                bytes32 offchain\n        ) \n                public \n                payable \n        {\n                _shake(hid, side, taker, takerOdds, maker, makerOdds, offchain);\n        }\n\n\n        function _shake(\n                uint hid, \n                uint side, \n                address taker,\n                uint takerOdds, \n                address maker, \n                uint makerOdds, \n                bytes32 offchain\n        ) \n                private \n        {\n                require(maker != 0);\n                require(takerOdds >= ODDS_1);\n                require(makerOdds >= ODDS_1);\n\n                Market storage m = markets[hid];\n\n                require(m.state == 1);\n                require(now < m.closingTime);\n\n                uint takerStake = msg.value;\n                uint takerPayout = (takerStake * takerOdds) / ODDS_1;\n\n                uint makerStake = takerPayout - takerStake; \n                uint makerPayout = (makerStake * makerOdds) / ODDS_1;\n                uint makerSide = 3 - side;\n\n                // check if the odds matching is valid\n                require(takerOdds * ODDS_1 >= makerOdds * (takerOdds - ODDS_1));\n\n                // check if the stake is sufficient\n                require(m.open[maker][makerSide].odds[makerOdds] >= makerStake);\n                require(m.open[maker][makerSide].stake >= makerStake);\n                require(m.open[maker][makerSide].payout >= makerPayout);\n\n                // remove maker's order from open (could be partial)\n                m.open[maker][makerSide].odds[makerOdds] -= makerStake;\n                m.open[maker][makerSide].stake -= makerStake;\n                m.open[maker][makerSide].payout -= makerPayout;\n\n                // add maker's order to matched\n                m.matched[maker][makerSide].odds[makerOdds] += makerStake;\n                m.matched[maker][makerSide].stake += makerStake;\n                m.matched[maker][makerSide].payout += makerPayout;\n\n                // add taker's order to matched\n                m.matched[taker][side].odds[takerOdds] += takerStake;\n                m.matched[taker][side].stake += takerStake;\n                m.matched[taker][side].payout += takerPayout;\n\n                // TODO: add both takerStake and makerStake?\n                m.totalStake += takerStake + makerStake;\n\n                emit __shake(hid, offchain);\n\n                emit __test__shake__taker__matched(m.matched[taker][side].stake, m.matched[taker][side].payout);\n                emit __test__shake__maker__matched(m.matched[maker][makerSide].stake, m.matched[maker][makerSide].payout);\n                emit __test__shake__maker__open(m.open[maker][makerSide].stake, m.open[maker][makerSide].payout);\n\n        }\n\n\n        event __collect(uint hid, bytes32 offchain);\n        event __test__collect(uint network, uint market, uint trader);\n\n        // collect payouts & outstanding stakes (if there is outcome)\n        function collect(uint hid, bytes32 offchain) public onlyPredictor(hid) {\n                Market storage m = markets[hid]; \n\n                require(m.state == 2);\n                require(now > m.disputeTime);\n\n                // calc network commission, market commission and winnings\n                uint marketComm = (m.matched[msg.sender][m.outcome].payout * m.fee) / 100;\n                uint networkComm = (marketComm * NETWORK_FEE) / 100;\n                uint amt = m.matched[msg.sender][m.outcome].payout;\n\n                amt += m.open[msg.sender][1].stake; \n                amt += m.open[msg.sender][2].stake;\n\n                require(amt > 0);\n\n                // wipe data\n                m.matched[msg.sender][m.outcome].payout = 0;\n                m.open[msg.sender][1].stake = 0; \n                m.open[msg.sender][2].stake = 0;\n\n                msg.sender.transfer(amt - marketComm);\n                m.creator.transfer(marketComm - networkComm);\n                root.transfer(networkComm);\n\n                emit __collect(hid, offchain);\n                emit __test__collect(networkComm, marketComm - networkComm, amt - marketComm);\n        }\n\n\n        event __refund(uint hid, bytes32 offchain);\n        event __test__refund(uint amt);\n\n        // refund stakes when market closes (if there is no outcome)\n        function refund(uint hid, bytes32 offchain) public onlyPredictor(hid) {\n                Market storage m = markets[hid]; \n\n                require(m.state == 1);\n                require(now > m.reportTime);\n\n                // calc refund amt\n                uint amt;\n                amt += m.matched[msg.sender][1].stake;\n                amt += m.matched[msg.sender][2].stake;\n                amt += m.open[msg.sender][1].stake;\n                amt += m.open[msg.sender][2].stake;\n\n                require(amt > 0);\n\n                // wipe data\n                m.matched[msg.sender][1].stake = 0;\n                m.matched[msg.sender][2].stake = 0;\n                m.open[msg.sender][1].stake = 0;\n                m.open[msg.sender][2].stake = 0;\n\n                msg.sender.transfer(amt);\n\n                emit __refund(hid, offchain);\n                emit __test__refund(amt);\n        }\n\n\n        event __report(uint hid, bytes32 offchain);\n\n        // report outcome\n        function report(uint hid, uint outcome, bytes32 offchain) public {\n                Market storage m = markets[hid]; \n                require(msg.sender == m.creator);\n                require(m.state == 1);\n                m.outcome = outcome;\n                m.state = 2;\n                emit __report(hid, offchain);\n        }\n\n\n        event __dispute(uint hid, bytes32 offchain);\n\n        // dispute outcome\n        function dispute(uint hid, bytes32 offchain) public onlyPredictor(hid) {\n                Market storage m = markets[hid]; \n                require(m.state == 2);\n                require(!m.resolved);\n                m.disputeStake += m.matched[msg.sender][m.outcome].stake;\n\n                // if dispute stakes > 5% of the total stakes\n                if (100 * m.disputeStake > DISPUTE_THRESHOLD * m.totalStake) {\n                        m.state = 3;\n                }\n                emit __dispute(hid, offchain);\n        }\n\n\n        event __resolve(uint hid, bytes32 offchain);\n\n        function resolve(uint hid, uint outcome, bytes32 offchain) public onlyRoot(hid) {\n                Market storage m = markets[hid]; \n                require(m.state == 3);\n                m.resolved = true;\n                m.outcome = outcome;\n                m.state = outcome == 0? 1: 2;\n                emit __resolve(hid, offchain);\n        }\n\n\n        modifier onlyPredictor(uint hid) {\n                require(markets[hid].matched[msg.sender][1].stake > 0 || \n                        markets[hid].matched[msg.sender][2].stake > 0 || \n                        markets[hid].open[msg.sender][1].stake > 0 || \n                        markets[hid].open[msg.sender][2].stake > 0);\n                _;\n        }\n\n\n        modifier onlyRoot(uint uid) {\n                require(msg.sender == root);\n                _;\n        }\n}\n",
  "sourcePath": "/Workspace/robotbase/crypto/handshake-protocol/contracts/PredictionHandshake.sol",
  "compiler": {
    "name": "solc",
    "version": "0.4.24+commit.e67f0147.Emscripten.clang"
  },
  "schemaVersion": "2.0.0",
  "updatedAt": "2018-06-12T10:08:51.565Z"
}