{
  "contractName": "PredictionHandshake",
  "abi": [
    {
      "constant": true,
      "inputs": [],
      "name": "total",
      "outputs": [
        {
          "name": "",
          "type": "uint256"
        }
      ],
      "payable": false,
      "stateMutability": "view",
      "type": "function"
    },
    {
      "constant": true,
      "inputs": [],
      "name": "NETWORK_FEE",
      "outputs": [
        {
          "name": "",
          "type": "uint256"
        }
      ],
      "payable": false,
      "stateMutability": "view",
      "type": "function"
    },
    {
      "constant": true,
      "inputs": [
        {
          "name": "",
          "type": "uint256"
        }
      ],
      "name": "markets",
      "outputs": [
        {
          "name": "creator",
          "type": "address"
        },
        {
          "name": "fee",
          "type": "uint256"
        },
        {
          "name": "source",
          "type": "bytes32"
        },
        {
          "name": "closingTime",
          "type": "uint256"
        },
        {
          "name": "reportTime",
          "type": "uint256"
        },
        {
          "name": "disputeTime",
          "type": "uint256"
        },
        {
          "name": "state",
          "type": "uint256"
        },
        {
          "name": "outcome",
          "type": "uint256"
        },
        {
          "name": "totalMatchedStake",
          "type": "uint256"
        },
        {
          "name": "totalOpenStake",
          "type": "uint256"
        },
        {
          "name": "disputeMatchedStake",
          "type": "uint256"
        },
        {
          "name": "resolved",
          "type": "bool"
        },
        {
          "name": "isGrantedPermission",
          "type": "bool"
        }
      ],
      "payable": false,
      "stateMutability": "view",
      "type": "function"
    },
    {
      "constant": true,
      "inputs": [],
      "name": "DISPUTE_THRESHOLD",
      "outputs": [
        {
          "name": "",
          "type": "uint256"
        }
      ],
      "payable": false,
      "stateMutability": "view",
      "type": "function"
    },
    {
      "constant": true,
      "inputs": [],
      "name": "EXPIRATION",
      "outputs": [
        {
          "name": "",
          "type": "uint256"
        }
      ],
      "payable": false,
      "stateMutability": "view",
      "type": "function"
    },
    {
      "constant": true,
      "inputs": [],
      "name": "root",
      "outputs": [
        {
          "name": "",
          "type": "address"
        }
      ],
      "payable": false,
      "stateMutability": "view",
      "type": "function"
    },
    {
      "constant": true,
      "inputs": [],
      "name": "ODDS_1",
      "outputs": [
        {
          "name": "",
          "type": "uint256"
        }
      ],
      "payable": false,
      "stateMutability": "view",
      "type": "function"
    },
    {
      "inputs": [],
      "payable": false,
      "stateMutability": "nonpayable",
      "type": "constructor"
    },
    {
      "anonymous": false,
      "inputs": [
        {
          "indexed": false,
          "name": "hid",
          "type": "uint256"
        },
        {
          "indexed": false,
          "name": "closingTime",
          "type": "uint256"
        },
        {
          "indexed": false,
          "name": "reportTime",
          "type": "uint256"
        },
        {
          "indexed": false,
          "name": "disputeTime",
          "type": "uint256"
        },
        {
          "indexed": false,
          "name": "offchain",
          "type": "bytes32"
        }
      ],
      "name": "__createMarket",
      "type": "event"
    },
    {
      "anonymous": false,
      "inputs": [
        {
          "indexed": false,
          "name": "hid",
          "type": "uint256"
        },
        {
          "indexed": false,
          "name": "offchain",
          "type": "bytes32"
        }
      ],
      "name": "__init",
      "type": "event"
    },
    {
      "anonymous": false,
      "inputs": [
        {
          "indexed": false,
          "name": "stake",
          "type": "uint256"
        }
      ],
      "name": "__test__init",
      "type": "event"
    },
    {
      "anonymous": false,
      "inputs": [
        {
          "indexed": false,
          "name": "amount",
          "type": "uint256"
        }
      ],
      "name": "__withdrawTrial",
      "type": "event"
    },
    {
      "anonymous": false,
      "inputs": [
        {
          "indexed": false,
          "name": "hid",
          "type": "uint256"
        },
        {
          "indexed": false,
          "name": "offchain",
          "type": "bytes32"
        }
      ],
      "name": "__uninit",
      "type": "event"
    },
    {
      "anonymous": false,
      "inputs": [
        {
          "indexed": false,
          "name": "stake",
          "type": "uint256"
        }
      ],
      "name": "__test__uninit",
      "type": "event"
    },
    {
      "anonymous": false,
      "inputs": [
        {
          "indexed": false,
          "name": "hid",
          "type": "uint256"
        },
        {
          "indexed": false,
          "name": "offchain",
          "type": "bytes32"
        }
      ],
      "name": "__shake",
      "type": "event"
    },
    {
      "anonymous": false,
      "inputs": [
        {
          "indexed": false,
          "name": "stake",
          "type": "uint256"
        },
        {
          "indexed": false,
          "name": "payout",
          "type": "uint256"
        }
      ],
      "name": "__test__shake__taker__matched",
      "type": "event"
    },
    {
      "anonymous": false,
      "inputs": [
        {
          "indexed": false,
          "name": "stake",
          "type": "uint256"
        },
        {
          "indexed": false,
          "name": "payout",
          "type": "uint256"
        }
      ],
      "name": "__test__shake__maker__matched",
      "type": "event"
    },
    {
      "anonymous": false,
      "inputs": [
        {
          "indexed": false,
          "name": "stake",
          "type": "uint256"
        }
      ],
      "name": "__test__shake__maker__open",
      "type": "event"
    },
    {
      "anonymous": false,
      "inputs": [
        {
          "indexed": false,
          "name": "hid",
          "type": "uint256"
        },
        {
          "indexed": false,
          "name": "offchain",
          "type": "bytes32"
        }
      ],
      "name": "__collect",
      "type": "event"
    },
    {
      "anonymous": false,
      "inputs": [
        {
          "indexed": false,
          "name": "network",
          "type": "uint256"
        },
        {
          "indexed": false,
          "name": "market",
          "type": "uint256"
        },
        {
          "indexed": false,
          "name": "trader",
          "type": "uint256"
        }
      ],
      "name": "__test__collect",
      "type": "event"
    },
    {
      "anonymous": false,
      "inputs": [
        {
          "indexed": false,
          "name": "hid",
          "type": "uint256"
        },
        {
          "indexed": false,
          "name": "offchain",
          "type": "bytes32"
        }
      ],
      "name": "__refund",
      "type": "event"
    },
    {
      "anonymous": false,
      "inputs": [
        {
          "indexed": false,
          "name": "amt",
          "type": "uint256"
        }
      ],
      "name": "__test__refund",
      "type": "event"
    },
    {
      "anonymous": false,
      "inputs": [
        {
          "indexed": false,
          "name": "hid",
          "type": "uint256"
        },
        {
          "indexed": false,
          "name": "offchain",
          "type": "bytes32"
        }
      ],
      "name": "__report",
      "type": "event"
    },
    {
      "anonymous": false,
      "inputs": [
        {
          "indexed": false,
          "name": "hid",
          "type": "uint256"
        },
        {
          "indexed": false,
          "name": "outcome",
          "type": "uint256"
        },
        {
          "indexed": false,
          "name": "state",
          "type": "uint256"
        },
        {
          "indexed": false,
          "name": "offchain",
          "type": "bytes32"
        }
      ],
      "name": "__dispute",
      "type": "event"
    },
    {
      "anonymous": false,
      "inputs": [
        {
          "indexed": false,
          "name": "hid",
          "type": "uint256"
        },
        {
          "indexed": false,
          "name": "offchain",
          "type": "bytes32"
        }
      ],
      "name": "__resolve",
      "type": "event"
    },
    {
      "constant": true,
      "inputs": [
        {
          "name": "hid",
          "type": "uint256"
        },
        {
          "name": "side",
          "type": "uint256"
        },
        {
          "name": "user",
          "type": "address"
        },
        {
          "name": "userOdds",
          "type": "uint256"
        }
      ],
      "name": "getMatchedData",
      "outputs": [
        {
          "name": "",
          "type": "uint256"
        },
        {
          "name": "",
          "type": "uint256"
        },
        {
          "name": "",
          "type": "uint256"
        },
        {
          "name": "",
          "type": "uint256"
        }
      ],
      "payable": false,
      "stateMutability": "view",
      "type": "function"
    },
    {
      "constant": true,
      "inputs": [
        {
          "name": "hid",
          "type": "uint256"
        },
        {
          "name": "side",
          "type": "uint256"
        },
        {
          "name": "user",
          "type": "address"
        },
        {
          "name": "userOdds",
          "type": "uint256"
        }
      ],
      "name": "getOpenData",
      "outputs": [
        {
          "name": "",
          "type": "uint256"
        },
        {
          "name": "",
          "type": "uint256"
        },
        {
          "name": "",
          "type": "uint256"
        },
        {
          "name": "",
          "type": "uint256"
        }
      ],
      "payable": false,
      "stateMutability": "view",
      "type": "function"
    },
    {
      "constant": false,
      "inputs": [
        {
          "name": "fee",
          "type": "uint256"
        },
        {
          "name": "source",
          "type": "bytes32"
        },
        {
          "name": "isGrantedPermission",
          "type": "bool"
        },
        {
          "name": "closingWindow",
          "type": "uint256"
        },
        {
          "name": "reportWindow",
          "type": "uint256"
        },
        {
          "name": "disputeWindow",
          "type": "uint256"
        },
        {
          "name": "offchain",
          "type": "bytes32"
        }
      ],
      "name": "createMarket",
      "outputs": [],
      "payable": false,
      "stateMutability": "nonpayable",
      "type": "function"
    },
    {
      "constant": false,
      "inputs": [
        {
          "name": "creator",
          "type": "address"
        },
        {
          "name": "fee",
          "type": "uint256"
        },
        {
          "name": "source",
          "type": "bytes32"
        },
        {
          "name": "isGrantedPermission",
          "type": "bool"
        },
        {
          "name": "closingWindow",
          "type": "uint256"
        },
        {
          "name": "reportWindow",
          "type": "uint256"
        },
        {
          "name": "disputeWindow",
          "type": "uint256"
        },
        {
          "name": "offchain",
          "type": "bytes32"
        }
      ],
      "name": "createMarketForShurikenUser",
      "outputs": [],
      "payable": false,
      "stateMutability": "nonpayable",
      "type": "function"
    },
    {
      "constant": false,
      "inputs": [
        {
          "name": "creator",
          "type": "address"
        },
        {
          "name": "fee",
          "type": "uint256"
        },
        {
          "name": "source",
          "type": "bytes32"
        },
        {
          "name": "isGrantedPermission",
          "type": "bool"
        },
        {
          "name": "closingWindow",
          "type": "uint256"
        },
        {
          "name": "reportWindow",
          "type": "uint256"
        },
        {
          "name": "disputeWindow",
          "type": "uint256"
        },
        {
          "name": "offchain",
          "type": "bytes32"
        }
      ],
      "name": "_createMarket",
      "outputs": [],
      "payable": false,
      "stateMutability": "nonpayable",
      "type": "function"
    },
    {
      "constant": false,
      "inputs": [
        {
          "name": "hid",
          "type": "uint256"
        },
        {
          "name": "side",
          "type": "uint256"
        },
        {
          "name": "odds",
          "type": "uint256"
        },
        {
          "name": "offchain",
          "type": "bytes32"
        }
      ],
      "name": "init",
      "outputs": [],
      "payable": true,
      "stateMutability": "payable",
      "type": "function"
    },
    {
      "constant": false,
      "inputs": [
        {
          "name": "hid",
          "type": "uint256"
        },
        {
          "name": "side",
          "type": "uint256"
        },
        {
          "name": "odds",
          "type": "uint256"
        },
        {
          "name": "maker",
          "type": "address"
        },
        {
          "name": "offchain",
          "type": "bytes32"
        }
      ],
      "name": "initTestDrive",
      "outputs": [],
      "payable": true,
      "stateMutability": "payable",
      "type": "function"
    },
    {
      "constant": false,
      "inputs": [
        {
          "name": "hid",
          "type": "uint256"
        },
        {
          "name": "side",
          "type": "uint256"
        },
        {
          "name": "odds",
          "type": "uint256"
        },
        {
          "name": "maker",
          "type": "address"
        },
        {
          "name": "value",
          "type": "uint256"
        },
        {
          "name": "offchain",
          "type": "bytes32"
        }
      ],
      "name": "uninitTestDrive",
      "outputs": [],
      "payable": false,
      "stateMutability": "nonpayable",
      "type": "function"
    },
    {
      "constant": false,
      "inputs": [],
      "name": "withdrawTrial",
      "outputs": [],
      "payable": false,
      "stateMutability": "nonpayable",
      "type": "function"
    },
    {
      "constant": false,
      "inputs": [
        {
          "name": "hid",
          "type": "uint256"
        },
        {
          "name": "side",
          "type": "uint256"
        },
        {
          "name": "stake",
          "type": "uint256"
        },
        {
          "name": "odds",
          "type": "uint256"
        },
        {
          "name": "offchain",
          "type": "bytes32"
        }
      ],
      "name": "uninit",
      "outputs": [],
      "payable": false,
      "stateMutability": "nonpayable",
      "type": "function"
    },
    {
      "constant": false,
      "inputs": [
        {
          "name": "hid",
          "type": "uint256"
        },
        {
          "name": "side",
          "type": "uint256"
        },
        {
          "name": "takerOdds",
          "type": "uint256"
        },
        {
          "name": "maker",
          "type": "address"
        },
        {
          "name": "makerOdds",
          "type": "uint256"
        },
        {
          "name": "offchain",
          "type": "bytes32"
        }
      ],
      "name": "shake",
      "outputs": [],
      "payable": true,
      "stateMutability": "payable",
      "type": "function"
    },
    {
      "constant": false,
      "inputs": [
        {
          "name": "hid",
          "type": "uint256"
        },
        {
          "name": "side",
          "type": "uint256"
        },
        {
          "name": "taker",
          "type": "address"
        },
        {
          "name": "takerOdds",
          "type": "uint256"
        },
        {
          "name": "maker",
          "type": "address"
        },
        {
          "name": "makerOdds",
          "type": "uint256"
        },
        {
          "name": "offchain",
          "type": "bytes32"
        }
      ],
      "name": "shakeTestDrive",
      "outputs": [],
      "payable": true,
      "stateMutability": "payable",
      "type": "function"
    },
    {
      "constant": false,
      "inputs": [
        {
          "name": "hid",
          "type": "uint256"
        },
        {
          "name": "offchain",
          "type": "bytes32"
        }
      ],
      "name": "collect",
      "outputs": [],
      "payable": false,
      "stateMutability": "nonpayable",
      "type": "function"
    },
    {
      "constant": false,
      "inputs": [
        {
          "name": "hid",
          "type": "uint256"
        },
        {
          "name": "winner",
          "type": "address"
        },
        {
          "name": "offchain",
          "type": "bytes32"
        }
      ],
      "name": "collectTestDrive",
      "outputs": [],
      "payable": false,
      "stateMutability": "nonpayable",
      "type": "function"
    },
    {
      "constant": false,
      "inputs": [
        {
          "name": "hid",
          "type": "uint256"
        },
        {
          "name": "offchain",
          "type": "bytes32"
        }
      ],
      "name": "refund",
      "outputs": [],
      "payable": false,
      "stateMutability": "nonpayable",
      "type": "function"
    },
    {
      "constant": false,
      "inputs": [
        {
          "name": "hid",
          "type": "uint256"
        },
        {
          "name": "outcome",
          "type": "uint256"
        },
        {
          "name": "offchain",
          "type": "bytes32"
        }
      ],
      "name": "reportForCreator",
      "outputs": [],
      "payable": false,
      "stateMutability": "nonpayable",
      "type": "function"
    },
    {
      "constant": false,
      "inputs": [
        {
          "name": "hid",
          "type": "uint256"
        },
        {
          "name": "outcome",
          "type": "uint256"
        },
        {
          "name": "offchain",
          "type": "bytes32"
        }
      ],
      "name": "report",
      "outputs": [],
      "payable": false,
      "stateMutability": "nonpayable",
      "type": "function"
    },
    {
      "constant": false,
      "inputs": [
        {
          "name": "hid",
          "type": "uint256"
        },
        {
          "name": "sender",
          "type": "address"
        },
        {
          "name": "offchain",
          "type": "bytes32"
        }
      ],
      "name": "disputeTestDrive",
      "outputs": [],
      "payable": false,
      "stateMutability": "nonpayable",
      "type": "function"
    },
    {
      "constant": false,
      "inputs": [
        {
          "name": "hid",
          "type": "uint256"
        },
        {
          "name": "offchain",
          "type": "bytes32"
        }
      ],
      "name": "dispute",
      "outputs": [],
      "payable": false,
      "stateMutability": "nonpayable",
      "type": "function"
    },
    {
      "constant": false,
      "inputs": [
        {
          "name": "hid",
          "type": "uint256"
        },
        {
          "name": "outcome",
          "type": "uint256"
        },
        {
          "name": "offchain",
          "type": "bytes32"
        }
      ],
      "name": "resolve",
      "outputs": [],
      "payable": false,
      "stateMutability": "nonpayable",
      "type": "function"
    }
  ],
  "bytecode": "0x608060405260146000556064600155605060025562278d0060035534801561002657600080fd5b5033600560006101000a81548173ffffffffffffffffffffffffffffffffffffffff021916908373ffffffffffffffffffffffffffffffffffffffff1602179055506146b9806100776000396000f30060806040526004361061015f576000357c0100000000000000000000000000000000000000000000000000000000900463ffffffff1680632ddbd13a146101645780634394f6f31461018f5780635419ad54146101d15780635f25794a146102445780636361c0eb146102ce57806367d528ad146102e557806371eedb88146103405780639be5c0241461037b5780639d56ded4146103a65780639ff1493414610432578063a420d8d91461048d578063a7d07c82146104e6578063a94300c21461052b578063b1283e7714610570578063b86c8cf414610641578063b9e9c8b4146106a3578063bb4b5734146106ce578063d320ac30146106f9578063d7d85df114610783578063da676f2014610816578063dcd431841461085b578063de847ff8146108ee578063decea64214610929578063ebf0c71714610995578063f2076405146109ec578063f3692c3e14610a65578063faf374a414610aa0575b600080fd5b34801561017057600080fd5b50610179610acb565b6040518082815260200191505060405180910390f35b6101cf6004803603810190808035906020019092919080359060200190929190803590602001909291908035600019169060200190929190505050610ad1565b005b3480156101dd57600080fd5b506102426004803603810190808035906020019092919080356000191690602001909291908035151590602001909291908035906020019092919080359060200190929190803590602001909291908035600019169060200190929190505050610ae4565b005b34801561025057600080fd5b506102a36004803603810190808035906020019092919080359060200190929190803573ffffffffffffffffffffffffffffffffffffffff16906020019092919080359060200190929190505050610afd565b6040518085815260200184815260200183815260200182815260200194505050505060405180910390f35b3480156102da57600080fd5b506102e3610c0b565b005b3480156102f157600080fd5b5061033e60048036038101908080359060200190929190803573ffffffffffffffffffffffffffffffffffffffff1690602001909291908035600019169060200190929190505050610d15565b005b34801561034c57600080fd5b50610379600480360381019080803590602001909291908035600019169060200190929190505050610d81565b005b34801561038757600080fd5b50610390611497565b6040518082815260200191505060405180910390f35b6104306004803603810190808035906020019092919080359060200190929190803573ffffffffffffffffffffffffffffffffffffffff16906020019092919080359060200190929190803573ffffffffffffffffffffffffffffffffffffffff16906020019092919080359060200190929190803560001916906020019092919050505061149d565b005b34801561043e57600080fd5b5061048b60048036038101908080359060200190929190803573ffffffffffffffffffffffffffffffffffffffff16906020019092919080356000191690602001909291905050506116bc565b005b34801561049957600080fd5b506104e46004803603810190808035906020019092919080359060200190929190803590602001909291908035906020019092919080356000191690602001909291905050506117d0565b005b3480156104f257600080fd5b5061052960048036038101908080359060200190929190803590602001909291908035600019169060200190929190505050611dc3565b005b34801561053757600080fd5b5061056e60048036038101908080359060200190929190803590602001909291908035600019169060200190929190505050611ef5565b005b34801561057c57600080fd5b5061059b60048036038101908080359060200190929190505050611fc5565b604051808e73ffffffffffffffffffffffffffffffffffffffff1673ffffffffffffffffffffffffffffffffffffffff1681526020018d81526020018c600019166000191681526020018b81526020018a815260200189815260200188815260200187815260200186815260200185815260200184815260200183151515158152602001821515151581526020019d505050505050505050505050505060405180910390f35b6106a1600480360381019080803590602001909291908035906020019092919080359060200190929190803573ffffffffffffffffffffffffffffffffffffffff1690602001909291908035600019169060200190929190505050612074565b005b3480156106af57600080fd5b506106b861228f565b6040518082815260200191505060405180910390f35b3480156106da57600080fd5b506106e3612295565b6040518082815260200191505060405180910390f35b34801561070557600080fd5b506107586004803603810190808035906020019092919080359060200190929190803573ffffffffffffffffffffffffffffffffffffffff1690602001909291908035906020019092919050505061229b565b6040518085815260200184815260200183815260200182815260200194505050505060405180910390f35b34801561078f57600080fd5b50610814600480360381019080803573ffffffffffffffffffffffffffffffffffffffff16906020019092919080359060200190929190803560001916906020019092919080351515906020019092919080359060200190929190803590602001909291908035906020019092919080356000191690602001909291905050506123a9565b005b34801561082257600080fd5b50610859600480360381019080803590602001909291908035906020019092919080356000191690602001909291905050506125fd565b005b34801561086757600080fd5b506108ec600480360381019080803573ffffffffffffffffffffffffffffffffffffffff169060200190929190803590602001909291908035600019169060200190929190803515159060200190929190803590602001909291908035906020019092919080359060200190929190803560001916906020019092919050505061260e565b005b3480156108fa57600080fd5b50610927600480360381019080803590602001909291908035600019169060200190929190505050612684565b005b610993600480360381019080803590602001909291908035906020019092919080359060200190929190803573ffffffffffffffffffffffffffffffffffffffff16906020019092919080359060200190929190803560001916906020019092919050505061288d565b005b3480156109a157600080fd5b506109aa6128a4565b604051808273ffffffffffffffffffffffffffffffffffffffff1673ffffffffffffffffffffffffffffffffffffffff16815260200191505060405180910390f35b3480156109f857600080fd5b50610a63600480360381019080803590602001909291908035906020019092919080359060200190929190803573ffffffffffffffffffffffffffffffffffffffff1690602001909291908035906020019092919080356000191690602001909291905050506128ca565b005b348015610a7157600080fd5b50610a9e600480360381019080803590602001909291908035600019169060200190929190505050612ddb565b005b348015610aac57600080fd5b50610ab5612fe4565b6040518082815260200191505060405180910390f35b60065481565b610ade8484843385612fea565b50505050565b610af433888888888888886123a9565b50505050505050565b600080600080600080600560009054906101000a900473ffffffffffffffffffffffffffffffffffffffff1673ffffffffffffffffffffffffffffffffffffffff163373ffffffffffffffffffffffffffffffffffffffff16141515610b6257600080fd5b60048a815481101515610b7157fe5b9060005260206000209060100201915081600d0160008973ffffffffffffffffffffffffffffffffffffffff1673ffffffffffffffffffffffffffffffffffffffff16815260200190815260200160002060008a8152602001908152602001600020905080600001548160010154888360020160008b81526020019081526020016000205495509550955095505050945094509450949050565b600560009054906101000a900473ffffffffffffffffffffffffffffffffffffffff1673ffffffffffffffffffffffffffffffffffffffff163373ffffffffffffffffffffffffffffffffffffffff16141515610c6757600080fd5b600560009054906101000a900473ffffffffffffffffffffffffffffffffffffffff1673ffffffffffffffffffffffffffffffffffffffff166108fc6006549081150290604051600060405180830381858888f19350505050158015610cd1573d6000803e3d6000fd5b507f55695de6b26d7ad9f5c580e5fe6656fe136d9217b3468db21fef3b3f8f89ff496006546040518082815260200191505060405180910390a16000600681905550565b600560009054906101000a900473ffffffffffffffffffffffffffffffffffffffff1673ffffffffffffffffffffffffffffffffffffffff163373ffffffffffffffffffffffffffffffffffffffff16141515610d7157600080fd5b610d7c8383836131f4565b505050565b6000806000846000600482815481101515610d9857fe5b9060005260206000209060100201600e0160003373ffffffffffffffffffffffffffffffffffffffff1673ffffffffffffffffffffffffffffffffffffffff168152602001908152602001600020600060018152602001908152602001600020600001541180610e7a57506000600482815481101515610e1457fe5b9060005260206000209060100201600e0160003373ffffffffffffffffffffffffffffffffffffffff1673ffffffffffffffffffffffffffffffffffffffff16815260200190815260200160002060006002815260200190815260200160002060000154115b80610ef757506000600482815481101515610e9157fe5b9060005260206000209060100201600d0160003373ffffffffffffffffffffffffffffffffffffffff1673ffffffffffffffffffffffffffffffffffffffff16815260200190815260200160002060006001815260200190815260200160002060000154115b80610f7457506000600482815481101515610f0e57fe5b9060005260206000209060100201600d0160003373ffffffffffffffffffffffffffffffffffffffff1673ffffffffffffffffffffffffffffffffffffffff16815260200190815260200160002060006002815260200190815260200160002060000154115b1515610f7f57600080fd5b600486815481101515610f8e57fe5b90600052602060002090601002019350600184600601541480610fb5575060038460070154145b1515610fc057600080fd5b836004015442111515610fd257600080fd5b83600e0160003373ffffffffffffffffffffffffffffffffffffffff1673ffffffffffffffffffffffffffffffffffffffff168152602001908152602001600020600060018152602001908152602001600020600001548301925083600e0160003373ffffffffffffffffffffffffffffffffffffffff1673ffffffffffffffffffffffffffffffffffffffff168152602001908152602001600020600060028152602001908152602001600020600001548301925083600d0160003373ffffffffffffffffffffffffffffffffffffffff1673ffffffffffffffffffffffffffffffffffffffff168152602001908152602001600020600060018152602001908152602001600020600001548301925083600d0160003373ffffffffffffffffffffffffffffffffffffffff1673ffffffffffffffffffffffffffffffffffffffff168152602001908152602001600020600060028152602001908152602001600020600001548301925060008311151561114d57600080fd5b600084600e0160003373ffffffffffffffffffffffffffffffffffffffff1673ffffffffffffffffffffffffffffffffffffffff16815260200190815260200160002060006001815260200190815260200160002060000181905550600084600e0160003373ffffffffffffffffffffffffffffffffffffffff1673ffffffffffffffffffffffffffffffffffffffff16815260200190815260200160002060006002815260200190815260200160002060000181905550600084600d0160003373ffffffffffffffffffffffffffffffffffffffff1673ffffffffffffffffffffffffffffffffffffffff16815260200190815260200160002060006001815260200190815260200160002060000181905550600084600d0160003373ffffffffffffffffffffffffffffffffffffffff1673ffffffffffffffffffffffffffffffffffffffff16815260200190815260200160002060006002815260200190815260200160002060000181905550600760003373ffffffffffffffffffffffffffffffffffffffff1673ffffffffffffffffffffffffffffffffffffffff16815260200190815260200160002060020160009054906101000a900460ff16151561135f573373ffffffffffffffffffffffffffffffffffffffff166108fc849081150290604051600060405180830381858888f19350505050158015611359573d6000803e3d6000fd5b50611411565b600760003373ffffffffffffffffffffffffffffffffffffffff1673ffffffffffffffffffffffffffffffffffffffff168152602001908152602001600020600401600087815260200190815260200160002054915081830392506000831115156113c957600080fd5b3373ffffffffffffffffffffffffffffffffffffffff166108fc849081150290604051600060405180830381858888f1935050505015801561140f573d6000803e3d6000fd5b505b7f6fe9fe9590d9b235fcb84468bf92bf905ca3795c7c284fa06eec9b10776ea4b486866040518083815260200182600019166000191681526020019250505060405180910390a17fe518c6999b8fc54688a71bb20779df78e259f03f0118b6e5c13099dd3dd4ebf4836040518082815260200191505060405180910390a1505050505050565b60005481565b600560009054906101000a900473ffffffffffffffffffffffffffffffffffffffff1673ffffffffffffffffffffffffffffffffffffffff163373ffffffffffffffffffffffffffffffffffffffff161415156114f957600080fd5b86600760008773ffffffffffffffffffffffffffffffffffffffff1673ffffffffffffffffffffffffffffffffffffffff1681526020019081526020016000206000018190555085600760008773ffffffffffffffffffffffffffffffffffffffff1673ffffffffffffffffffffffffffffffffffffffff1681526020019081526020016000206001018190555034600760008773ffffffffffffffffffffffffffffffffffffffff1673ffffffffffffffffffffffffffffffffffffffff16815260200190815260200160002060030160008681526020019081526020016000206000828254019250508190555034600760008773ffffffffffffffffffffffffffffffffffffffff1673ffffffffffffffffffffffffffffffffffffffff1681526020019081526020016000206004016000898152602001908152602001600020600082825401925050819055506001600760008773ffffffffffffffffffffffffffffffffffffffff1673ffffffffffffffffffffffffffffffffffffffff16815260200190815260200160002060020160006101000a81548160ff0219169083151502179055506116b38787878787878761391e565b50505050505050565b600560009054906101000a900473ffffffffffffffffffffffffffffffffffffffff1673ffffffffffffffffffffffffffffffffffffffff163373ffffffffffffffffffffffffffffffffffffffff1614151561171857600080fd5b82600760008473ffffffffffffffffffffffffffffffffffffffff1673ffffffffffffffffffffffffffffffffffffffff168152602001908152602001600020600001541480156117b55750600760008373ffffffffffffffffffffffffffffffffffffffff1673ffffffffffffffffffffffffffffffffffffffff16815260200190815260200160002060020160009054906101000a900460ff165b15156117c057600080fd5b6117cb8383836141c3565b505050565b6000808660006004828154811015156117e557fe5b9060005260206000209060100201600e0160003373ffffffffffffffffffffffffffffffffffffffff1673ffffffffffffffffffffffffffffffffffffffff1681526020019081526020016000206000600181526020019081526020016000206000015411806118c75750600060048281548110151561186157fe5b9060005260206000209060100201600e0160003373ffffffffffffffffffffffffffffffffffffffff1673ffffffffffffffffffffffffffffffffffffffff16815260200190815260200160002060006002815260200190815260200160002060000154115b80611944575060006004828154811015156118de57fe5b9060005260206000209060100201600d0160003373ffffffffffffffffffffffffffffffffffffffff1673ffffffffffffffffffffffffffffffffffffffff16815260200190815260200160002060006001815260200190815260200160002060000154115b806119c15750600060048281548110151561195b57fe5b9060005260206000209060100201600d0160003373ffffffffffffffffffffffffffffffffffffffff1673ffffffffffffffffffffffffffffffffffffffff16815260200190815260200160002060006002815260200190815260200160002060000154115b15156119cc57600080fd5b6004888154811015156119db57fe5b9060005260206000209060100201925087600760003373ffffffffffffffffffffffffffffffffffffffff1673ffffffffffffffffffffffffffffffffffffffff16815260200190815260200160002060000154148015611a7d575086600760003373ffffffffffffffffffffffffffffffffffffffff1673ffffffffffffffffffffffffffffffffffffffff16815260200190815260200160002060010154145b15611ad957600760003373ffffffffffffffffffffffffffffffffffffffff1673ffffffffffffffffffffffffffffffffffffffff16815260200190815260200160002060030160008681526020019081526020016000205491505b858284600d0160003373ffffffffffffffffffffffffffffffffffffffff1673ffffffffffffffffffffffffffffffffffffffff16815260200190815260200160002060008a8152602001908152602001600020600001540310151515611b3f57600080fd5b858284600d0160003373ffffffffffffffffffffffffffffffffffffffff1673ffffffffffffffffffffffffffffffffffffffff16815260200190815260200160002060008a81526020019081526020016000206002016000888152602001908152602001600020540310151515611bb657600080fd5b8583600d0160003373ffffffffffffffffffffffffffffffffffffffff1673ffffffffffffffffffffffffffffffffffffffff1681526020019081526020016000206000898152602001908152602001600020600001600082825403925050819055508583600d0160003373ffffffffffffffffffffffffffffffffffffffff1673ffffffffffffffffffffffffffffffffffffffff16815260200190815260200160002060008981526020019081526020016000206002016000878152602001908152602001600020600082825403925050819055508583600901600082825403925050819055503373ffffffffffffffffffffffffffffffffffffffff166108fc879081150290604051600060405180830381858888f19350505050158015611ce5573d6000803e3d6000fd5b507fab0e14e0a016fa8a0d17ecf0051bf0b27117e332369e6660521a8969574c272d88856040518083815260200182600019166000191681526020019250505060405180910390a17f30f13748a6589be9202bec03bb7695d7130248949254c600de71e04ad970633c83600d0160003373ffffffffffffffffffffffffffffffffffffffff1673ffffffffffffffffffffffffffffffffffffffff1681526020019081526020016000206000898152602001908152602001600020600001546040518082815260200191505060405180910390a15050505050505050565b6000600560009054906101000a900473ffffffffffffffffffffffffffffffffffffffff1673ffffffffffffffffffffffffffffffffffffffff163373ffffffffffffffffffffffffffffffffffffffff16141515611e2157600080fd5b600484815481101515611e3057fe5b9060005260206000209060100201905060038160060154141515611e5357600080fd5b6001831480611e625750600283145b80611e6d5750600383145b1515611e7857600080fd5b600181600b0160006101000a81548160ff021916908315150217905550828160070181905550600281600601819055507f43db73c3d115ee5896bed665630bc1f24065e21274b5dbc4acc4a84bb682d58a84836040518083815260200182600019166000191681526020019250505060405180910390a150505050565b6000600560009054906101000a900473ffffffffffffffffffffffffffffffffffffffff1673ffffffffffffffffffffffffffffffffffffffff163373ffffffffffffffffffffffffffffffffffffffff16141515611f5357600080fd5b600484815481101515611f6257fe5b9060005260206000209060100201905080600b0160019054906101000a900460ff161515611f8f57600080fd5b611fbf848260000160009054906101000a900473ffffffffffffffffffffffffffffffffffffffff168585614501565b50505050565b600481815481101515611fd457fe5b90600052602060002090601002016000915090508060000160009054906101000a900473ffffffffffffffffffffffffffffffffffffffff169080600101549080600201549080600301549080600401549080600501549080600601549080600701549080600801549080600901549080600a01549080600b0160009054906101000a900460ff169080600b0160019054906101000a900460ff1690508d565b600560009054906101000a900473ffffffffffffffffffffffffffffffffffffffff1673ffffffffffffffffffffffffffffffffffffffff163373ffffffffffffffffffffffffffffffffffffffff161415156120d057600080fd5b84600760008473ffffffffffffffffffffffffffffffffffffffff1673ffffffffffffffffffffffffffffffffffffffff1681526020019081526020016000206000018190555083600760008473ffffffffffffffffffffffffffffffffffffffff1673ffffffffffffffffffffffffffffffffffffffff1681526020019081526020016000206001018190555034600760008473ffffffffffffffffffffffffffffffffffffffff1673ffffffffffffffffffffffffffffffffffffffff16815260200190815260200160002060030160008581526020019081526020016000206000828254019250508190555034600760008473ffffffffffffffffffffffffffffffffffffffff1673ffffffffffffffffffffffffffffffffffffffff1681526020019081526020016000206004016000878152602001908152602001600020600082825401925050819055506001600760008473ffffffffffffffffffffffffffffffffffffffff1673ffffffffffffffffffffffffffffffffffffffff16815260200190815260200160002060020160006101000a81548160ff0219169083151502179055506122888585858585612fea565b5050505050565b60025481565b60035481565b600080600080600080600560009054906101000a900473ffffffffffffffffffffffffffffffffffffffff1673ffffffffffffffffffffffffffffffffffffffff163373ffffffffffffffffffffffffffffffffffffffff1614151561230057600080fd5b60048a81548110151561230f57fe5b9060005260206000209060100201915081600e0160008973ffffffffffffffffffffffffffffffffffffffff1673ffffffffffffffffffffffffffffffffffffffff16815260200190815260200160002060008a8152602001908152602001600020905080600001548160010154888360020160008b81526020019081526020016000205495509550955095505050945094509450949050565b6123b1614607565b88816000019073ffffffffffffffffffffffffffffffffffffffff16908173ffffffffffffffffffffffffffffffffffffffff1681525050878160200181815250508681604001906000191690816000191681525050858161018001901515908115158152505060018502420181606001818152505060018402816060015101816080018181525050600183028160800151018160a001818152505060018160c00181815250506004819080600181540180825580915050906001820390600052602060002090601002016000909192909190915060008201518160000160006101000a81548173ffffffffffffffffffffffffffffffffffffffff021916908373ffffffffffffffffffffffffffffffffffffffff1602179055506020820151816001015560408201518160020190600019169055606082015181600301556080820151816004015560a0820151816005015560c0820151816006015560e082015181600701556101008201518160080155610120820151816009015561014082015181600a015561016082015181600b0160006101000a81548160ff02191690831515021790555061018082015181600b0160016101000a81548160ff0219169083151502179055505050507faa5c0a6819295b2492061903684215eee9e29438fc72c1bd7d1805aee6f9036d600160048054905003826060015183608001518460a00151866040518086815260200185815260200184815260200183815260200182600019166000191681526020019550505050505060405180910390a1505050505050505050565b61260983338484614501565b505050565b600560009054906101000a900473ffffffffffffffffffffffffffffffffffffffff1673ffffffffffffffffffffffffffffffffffffffff163373ffffffffffffffffffffffffffffffffffffffff1614151561266a57600080fd5b61267a88888888888888886123a9565b5050505050505050565b81600060048281548110151561269657fe5b9060005260206000209060100201600e0160003373ffffffffffffffffffffffffffffffffffffffff1673ffffffffffffffffffffffffffffffffffffffff1681526020019081526020016000206000600181526020019081526020016000206000015411806127785750600060048281548110151561271257fe5b9060005260206000209060100201600e0160003373ffffffffffffffffffffffffffffffffffffffff1673ffffffffffffffffffffffffffffffffffffffff16815260200190815260200160002060006002815260200190815260200160002060000154115b806127f55750600060048281548110151561278f57fe5b9060005260206000209060100201600d0160003373ffffffffffffffffffffffffffffffffffffffff1673ffffffffffffffffffffffffffffffffffffffff16815260200190815260200160002060006001815260200190815260200160002060000154115b806128725750600060048281548110151561280c57fe5b9060005260206000209060100201600d0160003373ffffffffffffffffffffffffffffffffffffffff1673ffffffffffffffffffffffffffffffffffffffff16815260200190815260200160002060006002815260200190815260200160002060000154115b151561287d57600080fd5b6128888333846141c3565b505050565b61289c8686338787878761391e565b505050505050565b600560009054906101000a900473ffffffffffffffffffffffffffffffffffffffff1681565b6000600560009054906101000a900473ffffffffffffffffffffffffffffffffffffffff1673ffffffffffffffffffffffffffffffffffffffff163373ffffffffffffffffffffffffffffffffffffffff1614151561292857600080fd5b86600760008673ffffffffffffffffffffffffffffffffffffffff1673ffffffffffffffffffffffffffffffffffffffff168152602001908152602001600020600001541480156129ba575085600760008673ffffffffffffffffffffffffffffffffffffffff1673ffffffffffffffffffffffffffffffffffffffff16815260200190815260200160002060010154145b8015612a1957506000600760008673ffffffffffffffffffffffffffffffffffffffff1673ffffffffffffffffffffffffffffffffffffffff168152602001908152602001600020600301600087815260200190815260200160002054115b1515612a2457600080fd5b82600760008673ffffffffffffffffffffffffffffffffffffffff1673ffffffffffffffffffffffffffffffffffffffff16815260200190815260200160002060030160008781526020019081526020016000206000828254039250508190555082600760008673ffffffffffffffffffffffffffffffffffffffff1673ffffffffffffffffffffffffffffffffffffffff168152602001908152602001600020600401600089815260200190815260200160002060008282540392505081905550600487815481101515612af557fe5b906000526020600020906010020190508281600d0160008673ffffffffffffffffffffffffffffffffffffffff1673ffffffffffffffffffffffffffffffffffffffff16815260200190815260200160002060008881526020019081526020016000206000015410151515612b6957600080fd5b8281600d0160008673ffffffffffffffffffffffffffffffffffffffff1673ffffffffffffffffffffffffffffffffffffffff168152602001908152602001600020600088815260200190815260200160002060020160008781526020019081526020016000205410151515612bde57600080fd5b82816009015410151515612bf157600080fd5b8281600d0160008673ffffffffffffffffffffffffffffffffffffffff1673ffffffffffffffffffffffffffffffffffffffff1681526020019081526020016000206000888152602001908152602001600020600001600082825403925050819055508281600d0160008673ffffffffffffffffffffffffffffffffffffffff1673ffffffffffffffffffffffffffffffffffffffff1681526020019081526020016000206000888152602001908152602001600020600201600087815260200190815260200160002060008282540392505081905550828160090160008282540392505081905550600654836006540110151515612cef57600080fd5b826006600082825401925050819055507fab0e14e0a016fa8a0d17ecf0051bf0b27117e332369e6660521a8969574c272d87836040518083815260200182600019166000191681526020019250505060405180910390a17f30f13748a6589be9202bec03bb7695d7130248949254c600de71e04ad970633c81600d0160003373ffffffffffffffffffffffffffffffffffffffff1673ffffffffffffffffffffffffffffffffffffffff1681526020019081526020016000206000888152602001908152602001600020600001546040518082815260200191505060405180910390a150505050505050565b816000600482815481101515612ded57fe5b9060005260206000209060100201600e0160003373ffffffffffffffffffffffffffffffffffffffff1673ffffffffffffffffffffffffffffffffffffffff168152602001908152602001600020600060018152602001908152602001600020600001541180612ecf57506000600482815481101515612e6957fe5b9060005260206000209060100201600e0160003373ffffffffffffffffffffffffffffffffffffffff1673ffffffffffffffffffffffffffffffffffffffff16815260200190815260200160002060006002815260200190815260200160002060000154115b80612f4c57506000600482815481101515612ee657fe5b9060005260206000209060100201600d0160003373ffffffffffffffffffffffffffffffffffffffff1673ffffffffffffffffffffffffffffffffffffffff16815260200190815260200160002060006001815260200190815260200160002060000154115b80612fc957506000600482815481101515612f6357fe5b9060005260206000209060100201600d0160003373ffffffffffffffffffffffffffffffffffffffff1673ffffffffffffffffffffffffffffffffffffffff16815260200190815260200160002060006002815260200190815260200160002060000154115b1515612fd457600080fd5b612fdf8333846131f4565b505050565b60015481565b6000600486815481101515612ffb57fe5b9060005260206000209060100201905080600301544210151561301d57600080fd5b6001816006015414151561303057600080fd5b3481600d0160008573ffffffffffffffffffffffffffffffffffffffff1673ffffffffffffffffffffffffffffffffffffffff1681526020019081526020016000206000878152602001908152602001600020600001600082825401925050819055503481600d0160008573ffffffffffffffffffffffffffffffffffffffff1673ffffffffffffffffffffffffffffffffffffffff16815260200190815260200160002060008781526020019081526020016000206002016000868152602001908152602001600020600082825401925050819055503481600901600082825401925050819055507f21c02be65fa434a2e6b80a50c93b2654e65a53835f1b04697e4b5c09175beb1386836040518083815260200182600019166000191681526020019250505060405180910390a17f72db17618faa0dcae9145af507e210a9234e6659a2f96e8bd184a05dfcdb78f081600d0160008573ffffffffffffffffffffffffffffffffffffffff1673ffffffffffffffffffffffffffffffffffffffff1681526020019081526020016000206000878152602001908152602001600020600001546040518082815260200191505060405180910390a1505050505050565b60008060008060048781548110151561320957fe5b906000526020600020906010020193506002846006015414151561322c57600080fd5b83600501544211151561323e57600080fd5b6064846001015485600e0160008973ffffffffffffffffffffffffffffffffffffffff1673ffffffffffffffffffffffffffffffffffffffff16815260200190815260200160002060008760070154815260200190815260200160002060010154028115156132a957fe5b049250606460005484028115156132bc57fe5b04915083600e0160008773ffffffffffffffffffffffffffffffffffffffff1673ffffffffffffffffffffffffffffffffffffffff16815260200190815260200160002060008560070154815260200190815260200160002060010154905083600d0160008773ffffffffffffffffffffffffffffffffffffffff1673ffffffffffffffffffffffffffffffffffffffff168152602001908152602001600020600060018152602001908152602001600020600001548101905083600d0160008773ffffffffffffffffffffffffffffffffffffffff1673ffffffffffffffffffffffffffffffffffffffff16815260200190815260200160002060006002815260200190815260200160002060000154810190506000838203101515156133e357600080fd5b6000828403101515156133f557600080fd5b83600d0160008773ffffffffffffffffffffffffffffffffffffffff1673ffffffffffffffffffffffffffffffffffffffff16815260200190815260200160002060006001815260200190815260200160002060000154846009016000828254039250508190555083600d0160008773ffffffffffffffffffffffffffffffffffffffff1673ffffffffffffffffffffffffffffffffffffffff16815260200190815260200160002060006002815260200190815260200160002060000154846009016000828254039250508190555083600e0160008773ffffffffffffffffffffffffffffffffffffffff1673ffffffffffffffffffffffffffffffffffffffff16815260200190815260200160002060006001815260200190815260200160002060000154846008016000828254039250508190555083600e0160008773ffffffffffffffffffffffffffffffffffffffff1673ffffffffffffffffffffffffffffffffffffffff168152602001908152602001600020600060028152602001908152602001600020600001548460080160008282540392505081905550600084600d0160008873ffffffffffffffffffffffffffffffffffffffff1673ffffffffffffffffffffffffffffffffffffffff16815260200190815260200160002060006001815260200190815260200160002060000181905550600084600d0160008873ffffffffffffffffffffffffffffffffffffffff1673ffffffffffffffffffffffffffffffffffffffff16815260200190815260200160002060006002815260200190815260200160002060000181905550600084600e0160008873ffffffffffffffffffffffffffffffffffffffff1673ffffffffffffffffffffffffffffffffffffffff16815260200190815260200160002060006001815260200190815260200160002060000181905550600084600e0160008873ffffffffffffffffffffffffffffffffffffffff1673ffffffffffffffffffffffffffffffffffffffff16815260200190815260200160002060006002815260200190815260200160002060000181905550600084600e0160008873ffffffffffffffffffffffffffffffffffffffff1673ffffffffffffffffffffffffffffffffffffffff168152602001908152602001600020600086600701548152602001908152602001600020600101819055508573ffffffffffffffffffffffffffffffffffffffff166108fc8483039081150290604051600060405180830381858888f193505050501580156137ac573d6000803e3d6000fd5b508360000160009054906101000a900473ffffffffffffffffffffffffffffffffffffffff1673ffffffffffffffffffffffffffffffffffffffff166108fc8385039081150290604051600060405180830381858888f19350505050158015613819573d6000803e3d6000fd5b50600560009054906101000a900473ffffffffffffffffffffffffffffffffffffffff1673ffffffffffffffffffffffffffffffffffffffff166108fc839081150290604051600060405180830381858888f19350505050158015613882573d6000803e3d6000fd5b507f524cfe0d33d142e24b3c16c7f11234b23eae5fe14f95d328f3991837dc56d31487866040518083815260200182600019166000191681526020019250505060405180910390a17f8de0c4178df0ca7d776c505c09fe7699d34fb83545c4b23c03fc2e87461604888283850385840360405180848152602001838152602001828152602001935050505060405180910390a150505050505050565b60008060008060008060008973ffffffffffffffffffffffffffffffffffffffff161415151561394d57600080fd5b6001548a1015151561395e57600080fd5b600154881015151561396f57600080fd5b60048d81548110151561397e57fe5b90600052602060002090601002019550600186600601541415156139a157600080fd5b8560030154421015156139b357600080fd5b8b600303945034935085600d0160008a73ffffffffffffffffffffffffffffffffffffffff1673ffffffffffffffffffffffffffffffffffffffff16815260200190815260200160002060008681526020019081526020016000206000015492506001548a8502811515613a2357fe5b049150600154888402811515613a3557fe5b04905080821015613a4d578382039250819050613a56565b82810393508091505b6001548a0388026001548b0210151515613a6f57600080fd5b8286600d0160008b73ffffffffffffffffffffffffffffffffffffffff1673ffffffffffffffffffffffffffffffffffffffff168152602001908152602001600020600087815260200190815260200160002060020160008a81526020019081526020016000205410151515613ae457600080fd5b8286600d0160008b73ffffffffffffffffffffffffffffffffffffffff1673ffffffffffffffffffffffffffffffffffffffff16815260200190815260200160002060008781526020019081526020016000206000015410151515613b4857600080fd5b8286600d0160008b73ffffffffffffffffffffffffffffffffffffffff1673ffffffffffffffffffffffffffffffffffffffff168152602001908152602001600020600087815260200190815260200160002060020160008a8152602001908152602001600020600082825403925050819055508286600d0160008b73ffffffffffffffffffffffffffffffffffffffff1673ffffffffffffffffffffffffffffffffffffffff1681526020019081526020016000206000878152602001908152602001600020600001600082825403925050819055508286600901600082825403925050819055508286600e0160008b73ffffffffffffffffffffffffffffffffffffffff1673ffffffffffffffffffffffffffffffffffffffff168152602001908152602001600020600087815260200190815260200160002060020160008a8152602001908152602001600020600082825401925050819055508286600e0160008b73ffffffffffffffffffffffffffffffffffffffff1673ffffffffffffffffffffffffffffffffffffffff1681526020019081526020016000206000878152602001908152602001600020600001600082825401925050819055508086600e0160008b73ffffffffffffffffffffffffffffffffffffffff1673ffffffffffffffffffffffffffffffffffffffff1681526020019081526020016000206000878152602001908152602001600020600101600082825401925050819055508286600801600082825401925050819055508286600c016000878152602001908152602001600020600082825401925050819055508386600e0160008d73ffffffffffffffffffffffffffffffffffffffff1673ffffffffffffffffffffffffffffffffffffffff16815260200190815260200160002060008e815260200190815260200160002060020160008c8152602001908152602001600020600082825401925050819055508386600e0160008d73ffffffffffffffffffffffffffffffffffffffff1673ffffffffffffffffffffffffffffffffffffffff16815260200190815260200160002060008e8152602001908152602001600020600001600082825401925050819055508186600e0160008d73ffffffffffffffffffffffffffffffffffffffff1673ffffffffffffffffffffffffffffffffffffffff16815260200190815260200160002060008e8152602001908152602001600020600101600082825401925050819055508386600801600082825401925050819055508386600c0160008e8152602001908152602001600020600082825401925050819055507f6a5ee55c9df2daa4375d2b5e4ec8b9e5662f1863207bcbe6e38c6f5fe3c243008d886040518083815260200182600019166000191681526020019250505060405180910390a17f7bc2bdf03b14356e89aa86930df0003eebc752e6ec9983a77e36d4306a7e696e86600e0160008d73ffffffffffffffffffffffffffffffffffffffff1673ffffffffffffffffffffffffffffffffffffffff16815260200190815260200160002060008e81526020019081526020016000206000015487600e0160008e73ffffffffffffffffffffffffffffffffffffffff1673ffffffffffffffffffffffffffffffffffffffff16815260200190815260200160002060008f815260200190815260200160002060010154604051808381526020018281526020019250505060405180910390a17f023664a17f87e2ab3ac3130a5341e46a8e241ffc60cf8c93e685e820528f985f86600e0160008b73ffffffffffffffffffffffffffffffffffffffff1673ffffffffffffffffffffffffffffffffffffffff16815260200190815260200160002060008781526020019081526020016000206000015487600e0160008c73ffffffffffffffffffffffffffffffffffffffff1673ffffffffffffffffffffffffffffffffffffffff168152602001908152602001600020600088815260200190815260200160002060010154604051808381526020018281526020019250505060405180910390a17fae77fdea615e7c9b213003d6210d211971694401b2dc8d193ecd5640ab80caea86600d0160008b73ffffffffffffffffffffffffffffffffffffffff1673ffffffffffffffffffffffffffffffffffffffff1681526020019081526020016000206000878152602001908152602001600020600001546040518082815260200191505060405180910390a150505050505050505050505050565b6000806000806004878154811015156141d857fe5b90600052602060002090601002019350836005015442111515156141fb57600080fd5b6002846006015414151561420e57600080fd5b83600b0160009054906101000a900460ff1615151561422c57600080fd5b83600f0160008773ffffffffffffffffffffffffffffffffffffffff1673ffffffffffffffffffffffffffffffffffffffff16815260200190815260200160002060009054906101000a900460ff1615151561428757600080fd5b600184600f0160008873ffffffffffffffffffffffffffffffffffffffff1673ffffffffffffffffffffffffffffffffffffffff16815260200190815260200160002060006101000a81548160ff02191690831515021790555083600701546003039250600091506000905060008314156143e95783600e0160008773ffffffffffffffffffffffffffffffffffffffff1673ffffffffffffffffffffffffffffffffffffffff16815260200190815260200160002060006001815260200190815260200160002060000154915083600e0160008773ffffffffffffffffffffffffffffffffffffffff1673ffffffffffffffffffffffffffffffffffffffff168152602001908152602001600020600060028152602001908152602001600020600001548201915083600c0160006001815260200190815260200160002054905083600c01600060028152602001908152602001600020548101905061445a565b83600e0160008773ffffffffffffffffffffffffffffffffffffffff1673ffffffffffffffffffffffffffffffffffffffff168152602001908152602001600020600084815260200190815260200160002060000154915083600c0160008481526020019081526020016000205490505b60008211151561446957600080fd5b8184600a0160008282540192505081905550806002540284600a0154606402111561449957600384600601819055505b7fdd7d48172250f28f2f2cfacf6a0a57c2000ba8a850bf0a04f32bd6786050c47387856007015486600601548860405180858152602001848152602001838152602001826000191660001916815260200194505050505060405180910390a150505050505050565b600060048581548110151561451257fe5b906000526020600020906010020190508060040154421115151561453557600080fd5b8060000160009054906101000a900473ffffffffffffffffffffffffffffffffffffffff1673ffffffffffffffffffffffffffffffffffffffff168473ffffffffffffffffffffffffffffffffffffffff1614151561459357600080fd5b600181600601541415156145a657600080fd5b828160070181905550600281600601819055507f71c8b3ac7d9125fc562f0e493b93c79c2f22d445820a039344e6732d22871d3c85836040518083815260200182600019166000191681526020019250505060405180910390a15050505050565b6101a060405190810160405280600073ffffffffffffffffffffffffffffffffffffffff1681526020016000815260200160008019168152602001600081526020016000815260200160008152602001600081526020016000815260200160008152602001600081526020016000815260200160001515815260200160001515815250905600a165627a7a72305820766497242dd2bb0948a1fe725c5874f54b8f8f4ad002e2a185ef24938fbed2730029",
  "source": "/*\n*\n* PredictionExchange is an exchange contract that doesn't accept bets on the outcomes,\n* but instead matchedes backers/takers (those betting on odds) with layers/makers \n* (those offering the odds).\n*\n* Note:\n*\n*       side: 0 (unknown), 1 (support), 2 (against), 3 (draw)\n*       role: 0 (unknown), 1 (maker), 2 (taker)\n*       state: 0 (unknown), 1 (created), 2 (reported), 3 (disputed)\n*       __test__* events will be removed prior to production deployment\n*       odds are rounded up (2.25 is 225)\n*\n*/\n\npragma solidity ^0.4.24;\n\ncontract PredictionHandshake {\n\n        struct Market {\n\n                address creator;\n                uint fee; \n                bytes32 source;\n                uint closingTime; \n                uint reportTime; \n                uint disputeTime;\n\n                uint state;\n                uint outcome;\n\n                uint totalMatchedStake;\n                uint totalOpenStake;\n                uint disputeMatchedStake;\n                bool resolved;\n                bool isGrantedPermission;\n                mapping(uint => uint) outcomeMatchedStake;\n                \n                mapping(address => mapping(uint => Order)) open; // address => side => order\n                mapping(address => mapping(uint => Order)) matched; // address => side => order\n                mapping(address => bool) disputed;\n        }\n        \n        \n        function getMatchedData(uint hid, uint side, address user, uint userOdds) public onlyRoot view returns \n        (\n            uint256,\n            uint256,\n            uint256,\n            uint256\n        ) \n        {\n            Market storage m = markets[hid];\n            Order storage o = m.matched[user][side];\n            // return (stake, payout, odds, pool size)\n            return (o.stake, o.payout, userOdds, o.odds[userOdds]);\n        }\n        \n        function getOpenData(uint hid, uint side, address user, uint userOdds) public onlyRoot view returns \n        (\n            uint256,\n            uint256,\n            uint256,\n            uint256\n        ) \n        {\n            Market storage m = markets[hid];\n            Order storage o = m.open[user][side];\n            // return (stake, payout, odds, pool size)\n            return (o.stake, o.payout, userOdds, o.odds[userOdds]);\n        }\n\n        struct Order {\n                uint stake;\n                uint payout;\n                mapping(uint => uint) odds; // odds => pool size\n        }\n\n        struct Trial {\n                uint hid;\n                uint side;\n                bool valid;\n                mapping(uint => uint) amt; // odds => amt\n                mapping(uint => uint) totalStakes; // hid => amt\n        }\n\n        uint public NETWORK_FEE = 20; // 20%\n        uint public ODDS_1 = 100; // 1.00 is 100; 2.25 is 225 \n        uint public DISPUTE_THRESHOLD = 80; // 80%\n        uint public EXPIRATION = 30 days; \n\n        Market[] public markets;\n        address public root;\n        uint256 public total;\n\n        mapping(address => Trial) trial;\n\n        constructor() public {\n                root = msg.sender;\n        } \n\n\n        event __createMarket(uint hid, uint closingTime, uint reportTime, uint disputeTime, bytes32 offchain);\n\n        function createMarket(\n                uint fee, \n                bytes32 source,\n                bool isGrantedPermission,\n                uint closingWindow, \n                uint reportWindow, \n                uint disputeWindow,\n                bytes32 offchain\n        ) \n                public \n        {\n                _createMarket(msg.sender, fee, source, isGrantedPermission, closingWindow, reportWindow, disputeWindow, offchain);\n        }\n\n\n        function createMarketForShurikenUser(\n                address creator,\n                uint fee, \n                bytes32 source,\n                bool isGrantedPermission,\n                uint closingWindow, \n                uint reportWindow, \n                uint disputeWindow,\n                bytes32 offchain\n        ) \n                public \n                onlyRoot\n        {\n                _createMarket(creator, fee, source, isGrantedPermission, closingWindow, reportWindow, disputeWindow, offchain);\n        }\n\n        function _createMarket(\n                address creator,\n                uint fee, \n                bytes32 source,\n                bool isGrantedPermission,\n                uint closingWindow, \n                uint reportWindow, \n                uint disputeWindow,\n                bytes32 offchain\n        ) \n                public \n        {\n                Market memory m;\n                m.creator = creator;\n                m.fee = fee;\n                m.source = source;\n                m.isGrantedPermission = isGrantedPermission;\n                m.closingTime = now + closingWindow * 1 seconds;\n                m.reportTime = m.closingTime + reportWindow * 1 seconds;\n                m.disputeTime = m.reportTime + disputeWindow * 1 seconds;\n                m.state = 1;\n                markets.push(m);\n\n                emit __createMarket(markets.length - 1, m.closingTime, m.reportTime, m.disputeTime, offchain);\n        }\n\n\n        event __init(uint hid, bytes32 offchain);\n        event __test__init(uint stake);\n\n        // market maker\n        function init(\n                uint hid, \n                uint side, \n                uint odds, \n                bytes32 offchain\n        ) \n                public \n                payable \n        {\n                _init(hid, side, odds, msg.sender, offchain);\n        }\n\n\n        // market maker. only called by root.  \n        function initTestDrive(\n                uint hid, \n                uint side, \n                uint odds, \n                address maker, \n                bytes32 offchain\n        ) \n                public\n                payable\n                onlyRoot\n        {\n                trial[maker].hid = hid;\n                trial[maker].side = side;\n                trial[maker].amt[odds] += msg.value;\n                trial[maker].totalStakes[hid] += msg.value;\n                trial[maker].valid = true;\n\n                _init(hid, side, odds, maker, offchain);\n        }\n        \n        function uninitTestDrive\n        (\n            uint hid,\n            uint side,\n            uint odds,\n            address maker,\n            uint value,\n            bytes32 offchain\n        )\n            public\n            onlyRoot\n        {\n                // make sure trial is existed and currently betting.\n                require(trial[maker].hid == hid && trial[maker].side == side && trial[maker].amt[odds] > 0);\n                trial[maker].amt[odds] -= value;\n                trial[maker].totalStakes[hid] -= value;\n                \n                Market storage m = markets[hid];\n                \n                require(m.open[maker][side].stake >= value);\n                require(m.open[maker][side].odds[odds] >= value);\n                require(m.totalOpenStake >= value);\n\n                m.open[maker][side].stake -= value;\n                m.open[maker][side].odds[odds] -= value;\n                m.totalOpenStake -= value;\n\n                require(total + value >= total);\n                total += value;\n            \n                emit __uninit(hid, offchain);\n                emit __test__uninit(m.open[msg.sender][side].stake);\n        }\n        \n        event __withdrawTrial(uint256 amount);\n\n        function withdrawTrial() public onlyRoot {\n            root.transfer(total);\n            emit __withdrawTrial(total);\n            total = 0;\n        }\n        \n        // market maker cancels order\n        function uninit(\n                uint hid, \n                uint side, \n                uint stake, \n                uint odds, \n                bytes32 offchain\n        ) \n                public \n                onlyPredictor(hid) \n        {\n                Market storage m = markets[hid];\n\n                uint trialAmt; \n                if (trial[msg.sender].hid == hid && trial[msg.sender].side == side)\n                    trialAmt = trial[msg.sender].amt[odds];\n\n                require(m.open[msg.sender][side].stake - trialAmt >= stake);\n                require(m.open[msg.sender][side].odds[odds] - trialAmt >= stake);\n\n                m.open[msg.sender][side].stake -= stake;\n                m.open[msg.sender][side].odds[odds] -= stake;\n                m.totalOpenStake -= stake;\n\n                msg.sender.transfer(stake);\n\n                emit __uninit(hid, offchain);\n                emit __test__uninit(m.open[msg.sender][side].stake);\n        }\n\n\n        function _init(\n                uint hid, \n                uint side, \n                uint odds, \n                address maker, \n                bytes32 offchain\n        ) \n                private \n        {\n                Market storage m = markets[hid];\n\n                require(now < m.closingTime);\n                require(m.state == 1);\n\n                m.open[maker][side].stake += msg.value;\n                m.open[maker][side].odds[odds] += msg.value;\n                m.totalOpenStake += msg.value;\n\n                emit __init(hid, offchain);\n                emit __test__init(m.open[maker][side].stake);\n        }\n\n\n        event __uninit(uint hid, bytes32 offchain);\n        event __test__uninit(uint stake);\n\n        \n\n\n        event __shake(uint hid, bytes32 offchain);\n        event __test__shake__taker__matched(uint stake, uint payout);\n        event __test__shake__maker__matched(uint stake, uint payout);\n        event __test__shake__maker__open(uint stake);\n\n\n        // market taker\n        function shake(\n                uint hid, \n                uint side, \n                uint takerOdds, \n                address maker, \n                uint makerOdds, \n                bytes32 offchain\n        ) \n                public \n                payable \n        {\n                _shake(hid, side, msg.sender, takerOdds, maker, makerOdds, offchain);\n        }\n\n\n        function shakeTestDrive(\n                uint hid, \n                uint side, \n                address taker,\n                uint takerOdds, \n                address maker, \n                uint makerOdds, \n                bytes32 offchain\n        ) \n                public \n                payable \n                onlyRoot\n        {\n                trial[taker].hid = hid;\n                trial[taker].side = side;\n                trial[taker].amt[takerOdds] += msg.value;\n                trial[taker].totalStakes[hid] += msg.value;\n                trial[taker].valid = true;\n\n                _shake(hid, side, taker, takerOdds, maker, makerOdds, offchain);\n        }\n\n\n        function _shake(\n                uint hid, \n                uint side, \n                address taker,\n                uint takerOdds, \n                address maker, \n                uint makerOdds, \n                bytes32 offchain\n        ) \n                private \n        {\n                require(maker != 0);\n                require(takerOdds >= ODDS_1);\n                require(makerOdds >= ODDS_1);\n\n                Market storage m = markets[hid];\n\n                require(m.state == 1);\n                require(now < m.closingTime);\n\n                uint makerSide = 3 - side;\n\n                uint takerStake = msg.value;\n                uint makerStake = m.open[maker][makerSide].stake;\n\n                uint takerPayout = (takerStake * takerOdds) / ODDS_1;\n                uint makerPayout = (makerStake * makerOdds) / ODDS_1;\n\n                if (takerPayout < makerPayout) {\n                        makerStake = takerPayout - takerStake;\n                        makerPayout = takerPayout;\n                } else {\n                        takerStake = makerPayout - makerStake;\n                        takerPayout = makerPayout;\n                }\n\n                // check if the odds matching is valid\n                require(takerOdds * ODDS_1 >= makerOdds * (takerOdds - ODDS_1));\n\n                // check if the stake is sufficient\n                require(m.open[maker][makerSide].odds[makerOdds] >= makerStake);\n                require(m.open[maker][makerSide].stake >= makerStake);\n\n                // remove maker's order from open (could be partial)\n                m.open[maker][makerSide].odds[makerOdds] -= makerStake;\n                m.open[maker][makerSide].stake -= makerStake;\n                m.totalOpenStake -=  makerStake;\n\n                // add maker's order to matched\n                m.matched[maker][makerSide].odds[makerOdds] += makerStake;\n                m.matched[maker][makerSide].stake += makerStake;\n                m.matched[maker][makerSide].payout += makerPayout;\n                m.totalMatchedStake += makerStake;\n                m.outcomeMatchedStake[makerSide] += makerStake;\n\n                // add taker's order to matched\n                m.matched[taker][side].odds[takerOdds] += takerStake;\n                m.matched[taker][side].stake += takerStake;\n                m.matched[taker][side].payout += takerPayout;\n                m.totalMatchedStake += takerStake;\n                m.outcomeMatchedStake[side] += takerStake;\n\n                emit __shake(hid, offchain);\n\n                emit __test__shake__taker__matched(m.matched[taker][side].stake, m.matched[taker][side].payout);\n                emit __test__shake__maker__matched(m.matched[maker][makerSide].stake, m.matched[maker][makerSide].payout);\n                emit __test__shake__maker__open(m.open[maker][makerSide].stake);\n\n        }\n\n\n        event __collect(uint hid, bytes32 offchain);\n        event __test__collect(uint network, uint market, uint trader);\n\n        function collect(uint hid, bytes32 offchain) public onlyPredictor(hid) {\n                _collect(hid, msg.sender, offchain);\n        }\n\n        function collectTestDrive(uint hid, address winner, bytes32 offchain) public onlyRoot {\n                _collect(hid, winner, offchain);\n        }\n\n        // collect payouts & outstanding stakes (if there is outcome)\n        function _collect(uint hid, address winner, bytes32 offchain) private {\n                Market storage m = markets[hid]; \n\n                require(m.state == 2);\n                require(now > m.disputeTime);\n\n                // calc network commission, market commission and winnings\n                uint marketComm = (m.matched[winner][m.outcome].payout * m.fee) / 100;\n                uint networkComm = (marketComm * NETWORK_FEE) / 100;\n\n                uint amt = m.matched[winner][m.outcome].payout;\n\n                amt += m.open[winner][1].stake; \n                amt += m.open[winner][2].stake;\n\n                require(amt - marketComm >= 0);\n                require(marketComm - networkComm >= 0);\n\n                // update totals\n                m.totalOpenStake -= m.open[winner][1].stake;\n                m.totalOpenStake -= m.open[winner][2].stake;\n                m.totalMatchedStake -= m.matched[winner][1].stake;\n                m.totalMatchedStake -= m.matched[winner][2].stake;\n\n                // wipe data\n                m.open[winner][1].stake = 0; \n                m.open[winner][2].stake = 0;\n                m.matched[winner][1].stake = 0; \n                m.matched[winner][2].stake = 0;\n                m.matched[winner][m.outcome].payout = 0;\n\n                winner.transfer(amt - marketComm);\n                m.creator.transfer(marketComm - networkComm);\n                root.transfer(networkComm);\n\n                emit __collect(hid, offchain);\n                emit __test__collect(networkComm, marketComm - networkComm, amt - marketComm);\n        }\n\n\n        event __refund(uint hid, bytes32 offchain);\n        event __test__refund(uint amt);\n\n        // refund stakes when market closes (if there is no outcome)\n        function refund(uint hid, bytes32 offchain) public onlyPredictor(hid) {\n\n                Market storage m = markets[hid]; \n\n                require(m.state == 1 || m.outcome == 3);\n                require(now > m.reportTime);\n\n                // calc refund amt\n                uint amt;\n                amt += m.matched[msg.sender][1].stake;\n                amt += m.matched[msg.sender][2].stake;\n                amt += m.open[msg.sender][1].stake;\n                amt += m.open[msg.sender][2].stake;\n\n                require(amt > 0);\n\n                // wipe data\n                m.matched[msg.sender][1].stake = 0;\n                m.matched[msg.sender][2].stake = 0;\n                m.open[msg.sender][1].stake = 0;\n                m.open[msg.sender][2].stake = 0;\n\n                if(!(trial[msg.sender].valid)) {\n                        msg.sender.transfer(amt);\n                } else {\n                        uint trialAmt = trial[msg.sender].totalStakes[hid];\n                        amt = amt - trialAmt;\n                        require(amt > 0);\n                        msg.sender.transfer(amt);\n                }\n\n                emit __refund(hid, offchain);\n                emit __test__refund(amt);\n        }\n\n\n        event __report(uint hid, bytes32 offchain);\n\n        // report outcome\n\n        function reportForCreator(uint hid, uint outcome, bytes32 offchain) \n                public\n                onlyRoot\n        {\n                Market storage m = markets[hid]; \n                require(m.isGrantedPermission);\n                _report(hid, m.creator, outcome, offchain);\n        }\n\n        function report(uint hid, uint outcome, bytes32 offchain) public {\n                _report(hid, msg.sender, outcome, offchain);\n        }\n\n        function _report(uint hid, address sender, uint outcome, bytes32 offchain) private {\n                Market storage m = markets[hid]; \n                require(now <= m.reportTime);\n                require(sender == m.creator);\n                require(m.state == 1);\n                m.outcome = outcome;\n                m.state = 2;\n                emit __report(hid, offchain);\n        }\n\n\n        event __dispute(uint hid, uint outcome, uint state, bytes32 offchain);\n\n\n        function disputeTestDrive(uint hid, address sender, bytes32 offchain) public onlyRoot {\n                require(trial[sender].hid == hid && trial[sender].valid);\n                _dispute(hid, sender, offchain);\n        }        \n\n        function dispute(uint hid, bytes32 offchain) public onlyPredictor(hid) {\n                _dispute(hid, msg.sender, offchain);\n        }\n\n        // dispute outcome\n        function _dispute(uint hid, address sender, bytes32 offchain) private {\n                Market storage m = markets[hid]; \n\n                require(now <= m.disputeTime);\n                require(m.state == 2);\n                require(!m.resolved);\n\n                require(!m.disputed[sender]);\n                m.disputed[sender] = true;\n\n                // make sure user places bet on this side\n                uint side = 3 - m.outcome;\n                uint stake = 0;\n                uint outcomeMatchedStake = 0;\n                if (side == 0) {\n                        stake = m.matched[sender][1].stake;   \n                        stake += m.matched[sender][2].stake;   \n                        outcomeMatchedStake = m.outcomeMatchedStake[1];\n                        outcomeMatchedStake += m.outcomeMatchedStake[2];\n\n                } else {\n                        stake = m.matched[sender][side].stake;   \n                        outcomeMatchedStake = m.outcomeMatchedStake[side];\n                }\n                require(stake > 0);\n                m.disputeMatchedStake += stake;\n\n                // if dispute stakes > 50% of the total stakes\n                if (100 * m.disputeMatchedStake > DISPUTE_THRESHOLD * outcomeMatchedStake) {\n                        m.state = 3;\n                }\n                emit __dispute(hid, m.outcome, m.state, offchain);\n        }\n\n\n        event __resolve(uint hid, bytes32 offchain);\n\n        function resolve(uint hid, uint outcome, bytes32 offchain) public onlyRoot {\n                Market storage m = markets[hid]; \n                require(m.state == 3);\n                require(outcome == 1 || outcome == 2 || outcome == 3);\n                m.resolved = true;\n                m.outcome = outcome;\n                m.state = 2;\n                emit __resolve(hid, offchain);\n        }\n\n\n        modifier onlyPredictor(uint hid) {\n                require(markets[hid].matched[msg.sender][1].stake > 0 || \n                        markets[hid].matched[msg.sender][2].stake > 0 || \n                        markets[hid].open[msg.sender][1].stake > 0 || \n                        markets[hid].open[msg.sender][2].stake > 0);\n                _;\n        }\n\n\n        modifier onlyRoot() {\n                require(msg.sender == root);\n                _;\n        }\n}\n",
  "sourcePath": "/Users/trongdth/Autonomous/handshake-protocol/contracts/PredictionHandshake.sol",
  "compiler": {
    "name": "solc",
    "version": "0.4.24+commit.e67f0147.Emscripten.clang"
  },
  "schemaVersion": "2.0.1",
  "updatedAt": "2018-10-15T08:23:50.640Z"
}