{
  "contractName": "PredictionHandshakeWithToken",
  "abi": [
    {
      "constant": true,
      "inputs": [],
      "name": "NETWORK_FEE",
      "outputs": [
        {
          "name": "",
          "type": "uint256"
        }
      ],
      "payable": false,
      "stateMutability": "view",
      "type": "function"
    },
    {
      "constant": true,
      "inputs": [
        {
          "name": "",
          "type": "uint256"
        }
      ],
      "name": "markets",
      "outputs": [
        {
          "name": "creator",
          "type": "address"
        },
        {
          "name": "fee",
          "type": "uint256"
        },
        {
          "name": "source",
          "type": "bytes32"
        },
        {
          "name": "closingTime",
          "type": "uint256"
        },
        {
          "name": "reportTime",
          "type": "uint256"
        },
        {
          "name": "disputeTime",
          "type": "uint256"
        },
        {
          "name": "token",
          "type": "address"
        },
        {
          "name": "state",
          "type": "uint256"
        },
        {
          "name": "outcome",
          "type": "uint256"
        },
        {
          "name": "totalOpenStake",
          "type": "uint256"
        },
        {
          "name": "totalMatchedStake",
          "type": "uint256"
        },
        {
          "name": "disputeMatchedStake",
          "type": "uint256"
        },
        {
          "name": "resolved",
          "type": "bool"
        }
      ],
      "payable": false,
      "stateMutability": "view",
      "type": "function"
    },
    {
      "constant": true,
      "inputs": [],
      "name": "DISPUTE_THRESHOLD",
      "outputs": [
        {
          "name": "",
          "type": "uint256"
        }
      ],
      "payable": false,
      "stateMutability": "view",
      "type": "function"
    },
    {
      "constant": true,
      "inputs": [],
      "name": "EXPIRATION",
      "outputs": [
        {
          "name": "",
          "type": "uint256"
        }
      ],
      "payable": false,
      "stateMutability": "view",
      "type": "function"
    },
    {
      "constant": true,
      "inputs": [
        {
          "name": "",
          "type": "address"
        }
      ],
      "name": "total",
      "outputs": [
        {
          "name": "",
          "type": "uint256"
        }
      ],
      "payable": false,
      "stateMutability": "view",
      "type": "function"
    },
    {
      "constant": true,
      "inputs": [],
      "name": "root",
      "outputs": [
        {
          "name": "",
          "type": "address"
        }
      ],
      "payable": false,
      "stateMutability": "view",
      "type": "function"
    },
    {
      "constant": true,
      "inputs": [],
      "name": "ODDS_1",
      "outputs": [
        {
          "name": "",
          "type": "uint256"
        }
      ],
      "payable": false,
      "stateMutability": "view",
      "type": "function"
    },
    {
      "inputs": [
        {
          "name": "_tokenRegistryAddress",
          "type": "address"
        }
      ],
      "payable": false,
      "stateMutability": "nonpayable",
      "type": "constructor"
    },
    {
      "anonymous": false,
      "inputs": [
        {
          "indexed": false,
          "name": "offchain",
          "type": "bytes32"
        }
      ],
      "name": "__approveNewToken",
      "type": "event"
    },
    {
      "anonymous": false,
      "inputs": [
        {
          "indexed": false,
          "name": "hid",
          "type": "uint256"
        },
        {
          "indexed": false,
          "name": "offchain",
          "type": "bytes32"
        }
      ],
      "name": "__createMarket",
      "type": "event"
    },
    {
      "anonymous": false,
      "inputs": [
        {
          "indexed": false,
          "name": "hid",
          "type": "uint256"
        },
        {
          "indexed": false,
          "name": "offchain",
          "type": "bytes32"
        }
      ],
      "name": "__init",
      "type": "event"
    },
    {
      "anonymous": false,
      "inputs": [
        {
          "indexed": false,
          "name": "stake",
          "type": "uint256"
        }
      ],
      "name": "__test__init",
      "type": "event"
    },
    {
      "anonymous": false,
      "inputs": [
        {
          "indexed": false,
          "name": "hid",
          "type": "uint256"
        },
        {
          "indexed": false,
          "name": "offchain",
          "type": "bytes32"
        }
      ],
      "name": "__uninit",
      "type": "event"
    },
    {
      "anonymous": false,
      "inputs": [
        {
          "indexed": false,
          "name": "stake",
          "type": "uint256"
        }
      ],
      "name": "__test__uninit",
      "type": "event"
    },
    {
      "anonymous": false,
      "inputs": [
        {
          "indexed": false,
          "name": "hid",
          "type": "uint256"
        },
        {
          "indexed": false,
          "name": "offchain",
          "type": "bytes32"
        }
      ],
      "name": "__shake",
      "type": "event"
    },
    {
      "anonymous": false,
      "inputs": [
        {
          "indexed": false,
          "name": "hid",
          "type": "uint256"
        },
        {
          "indexed": false,
          "name": "offchain",
          "type": "bytes32"
        }
      ],
      "name": "__collect",
      "type": "event"
    },
    {
      "anonymous": false,
      "inputs": [
        {
          "indexed": false,
          "name": "network",
          "type": "uint256"
        },
        {
          "indexed": false,
          "name": "market",
          "type": "uint256"
        },
        {
          "indexed": false,
          "name": "trader",
          "type": "uint256"
        }
      ],
      "name": "__test__collect",
      "type": "event"
    },
    {
      "anonymous": false,
      "inputs": [
        {
          "indexed": false,
          "name": "hid",
          "type": "uint256"
        },
        {
          "indexed": false,
          "name": "offchain",
          "type": "bytes32"
        }
      ],
      "name": "__refund",
      "type": "event"
    },
    {
      "anonymous": false,
      "inputs": [
        {
          "indexed": false,
          "name": "amt",
          "type": "uint256"
        }
      ],
      "name": "__test__refund",
      "type": "event"
    },
    {
      "anonymous": false,
      "inputs": [
        {
          "indexed": false,
          "name": "hid",
          "type": "uint256"
        },
        {
          "indexed": false,
          "name": "offchain",
          "type": "bytes32"
        }
      ],
      "name": "__report",
      "type": "event"
    },
    {
      "anonymous": false,
      "inputs": [
        {
          "indexed": false,
          "name": "hid",
          "type": "uint256"
        },
        {
          "indexed": false,
          "name": "state",
          "type": "uint256"
        },
        {
          "indexed": false,
          "name": "offchain",
          "type": "bytes32"
        }
      ],
      "name": "__dispute",
      "type": "event"
    },
    {
      "anonymous": false,
      "inputs": [
        {
          "indexed": false,
          "name": "hid",
          "type": "uint256"
        },
        {
          "indexed": false,
          "name": "offchain",
          "type": "bytes32"
        }
      ],
      "name": "__resolve",
      "type": "event"
    },
    {
      "constant": true,
      "inputs": [
        {
          "name": "hid",
          "type": "uint256"
        },
        {
          "name": "side",
          "type": "uint256"
        },
        {
          "name": "user",
          "type": "address"
        },
        {
          "name": "userOdds",
          "type": "uint256"
        }
      ],
      "name": "getMatchedData",
      "outputs": [
        {
          "name": "",
          "type": "uint256"
        },
        {
          "name": "",
          "type": "uint256"
        },
        {
          "name": "",
          "type": "uint256"
        },
        {
          "name": "",
          "type": "uint256"
        }
      ],
      "payable": false,
      "stateMutability": "view",
      "type": "function"
    },
    {
      "constant": true,
      "inputs": [
        {
          "name": "hid",
          "type": "uint256"
        },
        {
          "name": "side",
          "type": "uint256"
        },
        {
          "name": "user",
          "type": "address"
        },
        {
          "name": "userOdds",
          "type": "uint256"
        }
      ],
      "name": "getOpenData",
      "outputs": [
        {
          "name": "",
          "type": "uint256"
        },
        {
          "name": "",
          "type": "uint256"
        },
        {
          "name": "",
          "type": "uint256"
        },
        {
          "name": "",
          "type": "uint256"
        }
      ],
      "payable": false,
      "stateMutability": "view",
      "type": "function"
    },
    {
      "constant": false,
      "inputs": [
        {
          "name": "_tokenAddresses",
          "type": "address[]"
        }
      ],
      "name": "approveNewTokens",
      "outputs": [],
      "payable": false,
      "stateMutability": "nonpayable",
      "type": "function"
    },
    {
      "constant": false,
      "inputs": [
        {
          "name": "tokenAddress",
          "type": "address"
        },
        {
          "name": "offchain",
          "type": "bytes32"
        }
      ],
      "name": "approveNewToken",
      "outputs": [],
      "payable": false,
      "stateMutability": "nonpayable",
      "type": "function"
    },
    {
      "constant": false,
      "inputs": [
        {
          "name": "fee",
          "type": "uint256"
        },
        {
          "name": "source",
          "type": "bytes32"
        },
        {
          "name": "tokenAddress",
          "type": "address"
        },
        {
          "name": "closingWindow",
          "type": "uint256"
        },
        {
          "name": "reportWindow",
          "type": "uint256"
        },
        {
          "name": "disputeWindow",
          "type": "uint256"
        },
        {
          "name": "offchain",
          "type": "bytes32"
        }
      ],
      "name": "createMarket",
      "outputs": [],
      "payable": false,
      "stateMutability": "nonpayable",
      "type": "function"
    },
    {
      "constant": false,
      "inputs": [
        {
          "name": "creator",
          "type": "address"
        },
        {
          "name": "fee",
          "type": "uint256"
        },
        {
          "name": "source",
          "type": "bytes32"
        },
        {
          "name": "tokenAddress",
          "type": "address"
        },
        {
          "name": "closingWindow",
          "type": "uint256"
        },
        {
          "name": "reportWindow",
          "type": "uint256"
        },
        {
          "name": "disputeWindow",
          "type": "uint256"
        },
        {
          "name": "offchain",
          "type": "bytes32"
        }
      ],
      "name": "createMarketForShurikenUser",
      "outputs": [],
      "payable": false,
      "stateMutability": "nonpayable",
      "type": "function"
    },
    {
      "constant": false,
      "inputs": [
        {
          "name": "hid",
          "type": "uint256"
        },
        {
          "name": "side",
          "type": "uint256"
        },
        {
          "name": "odds",
          "type": "uint256"
        },
        {
          "name": "amount",
          "type": "uint256"
        },
        {
          "name": "offchain",
          "type": "bytes32"
        }
      ],
      "name": "init",
      "outputs": [],
      "payable": false,
      "stateMutability": "nonpayable",
      "type": "function"
    },
    {
      "constant": false,
      "inputs": [
        {
          "name": "hid",
          "type": "uint256"
        },
        {
          "name": "side",
          "type": "uint256"
        },
        {
          "name": "stake",
          "type": "uint256"
        },
        {
          "name": "odds",
          "type": "uint256"
        },
        {
          "name": "offchain",
          "type": "bytes32"
        }
      ],
      "name": "uninit",
      "outputs": [],
      "payable": false,
      "stateMutability": "nonpayable",
      "type": "function"
    },
    {
      "constant": false,
      "inputs": [
        {
          "name": "hid",
          "type": "uint256"
        },
        {
          "name": "side",
          "type": "uint256"
        },
        {
          "name": "takerOdds",
          "type": "uint256"
        },
        {
          "name": "maker",
          "type": "address"
        },
        {
          "name": "makerOdds",
          "type": "uint256"
        },
        {
          "name": "amount",
          "type": "uint256"
        },
        {
          "name": "offchain",
          "type": "bytes32"
        }
      ],
      "name": "shake",
      "outputs": [],
      "payable": false,
      "stateMutability": "nonpayable",
      "type": "function"
    },
    {
      "constant": false,
      "inputs": [
        {
          "name": "hid",
          "type": "uint256"
        },
        {
          "name": "offchain",
          "type": "bytes32"
        }
      ],
      "name": "collect",
      "outputs": [],
      "payable": false,
      "stateMutability": "nonpayable",
      "type": "function"
    },
    {
      "constant": false,
      "inputs": [
        {
          "name": "hid",
          "type": "uint256"
        },
        {
          "name": "offchain",
          "type": "bytes32"
        }
      ],
      "name": "refund",
      "outputs": [],
      "payable": false,
      "stateMutability": "nonpayable",
      "type": "function"
    },
    {
      "constant": false,
      "inputs": [
        {
          "name": "hid",
          "type": "uint256"
        },
        {
          "name": "outcome",
          "type": "uint256"
        },
        {
          "name": "offchain",
          "type": "bytes32"
        }
      ],
      "name": "report",
      "outputs": [],
      "payable": false,
      "stateMutability": "nonpayable",
      "type": "function"
    },
    {
      "constant": false,
      "inputs": [
        {
          "name": "hid",
          "type": "uint256"
        },
        {
          "name": "offchain",
          "type": "bytes32"
        }
      ],
      "name": "dispute",
      "outputs": [],
      "payable": false,
      "stateMutability": "nonpayable",
      "type": "function"
    },
    {
      "constant": false,
      "inputs": [
        {
          "name": "hid",
          "type": "uint256"
        },
        {
          "name": "outcome",
          "type": "uint256"
        },
        {
          "name": "offchain",
          "type": "bytes32"
        }
      ],
      "name": "resolve",
      "outputs": [],
      "payable": false,
      "stateMutability": "nonpayable",
      "type": "function"
    }
  ],
  "bytecode": "0x608060405260146000556064600155603260025562278d0060035534801561002657600080fd5b5060405160208061466a8339810180604052810190808051906020019092919050505033600560006101000a81548173ffffffffffffffffffffffffffffffffffffffff021916908373ffffffffffffffffffffffffffffffffffffffff16021790555080600860006101000a81548173ffffffffffffffffffffffffffffffffffffffff021916908373ffffffffffffffffffffffffffffffffffffffff16021790555080600760006101000a81548173ffffffffffffffffffffffffffffffffffffffff021916908373ffffffffffffffffffffffffffffffffffffffff1602179055505061454e8061011c6000396000f30060806040526004361061011d576000357c0100000000000000000000000000000000000000000000000000000000900463ffffffff1680630977aee5146101225780630eb7a276146101885780633afc30ab146101e15780635542ac26146102685780635f25794a1461030f57806371eedb88146103995780639437142c146103d45780639be5c02414610425578063a420d8d914610450578063a7d07c82146104a9578063abb74f79146104ee578063b1283e7714610571578063b9e9c8b41461066a578063bb4b573414610695578063d2514e84146106c0578063d320ac3014610717578063da676f20146107a1578063de847ff8146107e6578063ebf0c71714610821578063f3692c3e14610878578063faf374a4146108b3575b600080fd5b34801561012e57600080fd5b50610186600480360381019080803590602001908201803590602001908080602002602001604051908101604052809392919081815260200183836020028082843782019150505050505091929192905050506108de565b005b34801561019457600080fd5b506101df600480360381019080803590602001909291908035906020019092919080359060200190929190803590602001909291908035600019169060200190929190505050610bb9565b005b3480156101ed57600080fd5b50610266600480360381019080803590602001909291908035600019169060200190929190803573ffffffffffffffffffffffffffffffffffffffff1690602001909291908035906020019092919080359060200190929190803590602001909291908035600019169060200190929190505050610f5a565b005b34801561027457600080fd5b5061030d600480360381019080803573ffffffffffffffffffffffffffffffffffffffff169060200190929190803590602001909291908035600019169060200190929190803573ffffffffffffffffffffffffffffffffffffffff169060200190929190803590602001909291908035906020019092919080359060200190929190803560001916906020019092919050505061107f565b005b34801561031b57600080fd5b5061036e6004803603810190808035906020019092919080359060200190929190803573ffffffffffffffffffffffffffffffffffffffff16906020019092919080359060200190929190505050611201565b6040518085815260200184815260200183815260200182815260200194505050505060405180910390f35b3480156103a557600080fd5b506103d260048036038101908080359060200190929190803560001916906020019092919050505061130f565b005b3480156103e057600080fd5b50610423600480360381019080803573ffffffffffffffffffffffffffffffffffffffff1690602001909291908035600019169060200190929190505050611a65565b005b34801561043157600080fd5b5061043a611d34565b6040518082815260200191505060405180910390f35b34801561045c57600080fd5b506104a7600480360381019080803590602001909291908035906020019092919080359060200190929190803590602001909291908035600019169060200190929190505050611d3a565b005b3480156104b557600080fd5b506104ec60048036038101908080359060200190929190803590602001909291908035600019169060200190929190505050612389565b005b3480156104fa57600080fd5b5061056f600480360381019080803590602001909291908035906020019092919080359060200190929190803573ffffffffffffffffffffffffffffffffffffffff169060200190929190803590602001909291908035906020019092919080356000191690602001909291905050506124bb565b005b34801561057d57600080fd5b5061059c60048036038101908080359060200190929190505050612c99565b604051808e73ffffffffffffffffffffffffffffffffffffffff1673ffffffffffffffffffffffffffffffffffffffff1681526020018d81526020018c600019166000191681526020018b81526020018a81526020018981526020018873ffffffffffffffffffffffffffffffffffffffff1673ffffffffffffffffffffffffffffffffffffffff168152602001878152602001868152602001858152602001848152602001838152602001821515151581526020019d505050505050505050505050505060405180910390f35b34801561067657600080fd5b5061067f612d5b565b6040518082815260200191505060405180910390f35b3480156106a157600080fd5b506106aa612d61565b6040518082815260200191505060405180910390f35b3480156106cc57600080fd5b50610701600480360381019080803573ffffffffffffffffffffffffffffffffffffffff169060200190929190505050612d67565b6040518082815260200191505060405180910390f35b34801561072357600080fd5b506107766004803603810190808035906020019092919080359060200190929190803573ffffffffffffffffffffffffffffffffffffffff16906020019092919080359060200190929190505050612d7f565b6040518085815260200184815260200183815260200182815260200194505050505060405180910390f35b3480156107ad57600080fd5b506107e460048036038101908080359060200190929190803590602001909291908035600019169060200190929190505050612e8d565b005b3480156107f257600080fd5b5061081f600480360381019080803590602001909291908035600019169060200190929190505050612f92565b005b34801561082d57600080fd5b506108366134bd565b604051808273ffffffffffffffffffffffffffffffffffffffff1673ffffffffffffffffffffffffffffffffffffffff16815260200191505060405180910390f35b34801561088457600080fd5b506108b16004803603810190808035906020019092919080356000191690602001909291905050506134e3565b005b3480156108bf57600080fd5b506108c86136ec565b6040518082815260200191505060405180910390f35b6000600560009054906101000a900473ffffffffffffffffffffffffffffffffffffffff1673ffffffffffffffffffffffffffffffffffffffff163373ffffffffffffffffffffffffffffffffffffffff1614151561093c57600080fd5b600090505b8151811015610bb55760011515600760009054906101000a900473ffffffffffffffffffffffffffffffffffffffff1673ffffffffffffffffffffffffffffffffffffffff166361eeeb8c848481518110151561099a57fe5b906020019060200201516040518263ffffffff167c0100000000000000000000000000000000000000000000000000000000028152600401808273ffffffffffffffffffffffffffffffffffffffff1673ffffffffffffffffffffffffffffffffffffffff168152602001915050602060405180830381600087803b158015610a2257600080fd5b505af1158015610a36573d6000803e3d6000fd5b505050506040513d6020811015610a4c57600080fd5b810190808051906020019092919050505015151415610ba8578181815181101515610a7357fe5b9060200190602002015173ffffffffffffffffffffffffffffffffffffffff1663095ea7b3600860009054906101000a900473ffffffffffffffffffffffffffffffffffffffff167fffffffffffffffffffffffffffffffffffffffffffffffffffffffffffffffff6040518363ffffffff167c0100000000000000000000000000000000000000000000000000000000028152600401808373ffffffffffffffffffffffffffffffffffffffff1673ffffffffffffffffffffffffffffffffffffffff16815260200182815260200192505050602060405180830381600087803b158015610b6157600080fd5b505af1158015610b75573d6000803e3d6000fd5b505050506040513d6020811015610b8b57600080fd5b81019080805190602001909291905050501515610ba757600080fd5b5b8080600101915050610941565b5050565b6000600486815481101515610bca57fe5b90600052602060002090601102019050806003015442101515610bec57600080fd5b60018160070154141515610bff57600080fd5b600760009054906101000a900473ffffffffffffffffffffffffffffffffffffffff1673ffffffffffffffffffffffffffffffffffffffff16632c54de4f8260060160009054906101000a900473ffffffffffffffffffffffffffffffffffffffff163330876040518563ffffffff167c0100000000000000000000000000000000000000000000000000000000028152600401808573ffffffffffffffffffffffffffffffffffffffff1673ffffffffffffffffffffffffffffffffffffffff1681526020018473ffffffffffffffffffffffffffffffffffffffff1673ffffffffffffffffffffffffffffffffffffffff1681526020018373ffffffffffffffffffffffffffffffffffffffff1673ffffffffffffffffffffffffffffffffffffffff168152602001828152602001945050505050602060405180830381600087803b158015610d5057600080fd5b505af1158015610d64573d6000803e3d6000fd5b505050506040513d6020811015610d7a57600080fd5b81019080805190602001909291905050501515610d9657600080fd5b8281600e0160003373ffffffffffffffffffffffffffffffffffffffff1673ffffffffffffffffffffffffffffffffffffffff1681526020019081526020016000206000878152602001908152602001600020600001600082825401925050819055508281600e0160003373ffffffffffffffffffffffffffffffffffffffff1673ffffffffffffffffffffffffffffffffffffffff16815260200190815260200160002060008781526020019081526020016000206002016000868152602001908152602001600020600082825401925050819055508281600901600082825401925050819055507f21c02be65fa434a2e6b80a50c93b2654e65a53835f1b04697e4b5c09175beb1386836040518083815260200182600019166000191681526020019250505060405180910390a17f72db17618faa0dcae9145af507e210a9234e6659a2f96e8bd184a05dfcdb78f081600e0160003373ffffffffffffffffffffffffffffffffffffffff1673ffffffffffffffffffffffffffffffffffffffff1681526020019081526020016000206000878152602001908152602001600020600001546040518082815260200191505060405180910390a1505050505050565b8460011515600760009054906101000a900473ffffffffffffffffffffffffffffffffffffffff1673ffffffffffffffffffffffffffffffffffffffff166361eeeb8c836040518263ffffffff167c0100000000000000000000000000000000000000000000000000000000028152600401808273ffffffffffffffffffffffffffffffffffffffff1673ffffffffffffffffffffffffffffffffffffffff168152602001915050602060405180830381600087803b15801561101c57600080fd5b505af1158015611030573d6000803e3d6000fd5b505050506040513d602081101561104657600080fd5b8101908080519060200190929190505050151514151561106557600080fd5b61107533898989898989896136f2565b5050505050505050565b8460011515600760009054906101000a900473ffffffffffffffffffffffffffffffffffffffff1673ffffffffffffffffffffffffffffffffffffffff166361eeeb8c836040518263ffffffff167c0100000000000000000000000000000000000000000000000000000000028152600401808273ffffffffffffffffffffffffffffffffffffffff1673ffffffffffffffffffffffffffffffffffffffff168152602001915050602060405180830381600087803b15801561114157600080fd5b505af1158015611155573d6000803e3d6000fd5b505050506040513d602081101561116b57600080fd5b8101908080519060200190929190505050151514151561118a57600080fd5b600560009054906101000a900473ffffffffffffffffffffffffffffffffffffffff1673ffffffffffffffffffffffffffffffffffffffff163373ffffffffffffffffffffffffffffffffffffffff161415156111e657600080fd5b6111f689898989898989896136f2565b505050505050505050565b600080600080600080600560009054906101000a900473ffffffffffffffffffffffffffffffffffffffff1673ffffffffffffffffffffffffffffffffffffffff163373ffffffffffffffffffffffffffffffffffffffff1614151561126657600080fd5b60048a81548110151561127557fe5b9060005260206000209060110201915081600e0160008973ffffffffffffffffffffffffffffffffffffffff1673ffffffffffffffffffffffffffffffffffffffff16815260200190815260200160002060008a8152602001908152602001600020905080600001548160010154888360020160008b81526020019081526020016000205495509550955095505050945094509450949050565b60008083600060048281548110151561132457fe5b9060005260206000209060110201600f0160003373ffffffffffffffffffffffffffffffffffffffff1673ffffffffffffffffffffffffffffffffffffffff168152602001908152602001600020600060018152602001908152602001600020600001541180611406575060006004828154811015156113a057fe5b9060005260206000209060110201600f0160003373ffffffffffffffffffffffffffffffffffffffff1673ffffffffffffffffffffffffffffffffffffffff16815260200190815260200160002060006002815260200190815260200160002060000154115b806114835750600060048281548110151561141d57fe5b9060005260206000209060110201600e0160003373ffffffffffffffffffffffffffffffffffffffff1673ffffffffffffffffffffffffffffffffffffffff16815260200190815260200160002060006001815260200190815260200160002060000154115b806115005750600060048281548110151561149a57fe5b9060005260206000209060110201600e0160003373ffffffffffffffffffffffffffffffffffffffff1673ffffffffffffffffffffffffffffffffffffffff16815260200190815260200160002060006002815260200190815260200160002060000154115b151561150b57600080fd5b60048581548110151561151a57fe5b90600052602060002090601102019250600183600701541480611541575060038360080154145b151561154c57600080fd5b82600401544211151561155e57600080fd5b82600f0160003373ffffffffffffffffffffffffffffffffffffffff1673ffffffffffffffffffffffffffffffffffffffff168152602001908152602001600020600060018152602001908152602001600020600001548201915082600f0160003373ffffffffffffffffffffffffffffffffffffffff1673ffffffffffffffffffffffffffffffffffffffff168152602001908152602001600020600060028152602001908152602001600020600001548201915082600e0160003373ffffffffffffffffffffffffffffffffffffffff1673ffffffffffffffffffffffffffffffffffffffff168152602001908152602001600020600060018152602001908152602001600020600001548201915082600e0160003373ffffffffffffffffffffffffffffffffffffffff1673ffffffffffffffffffffffffffffffffffffffff16815260200190815260200160002060006002815260200190815260200160002060000154820191506000821115156116d957600080fd5b600083600f0160003373ffffffffffffffffffffffffffffffffffffffff1673ffffffffffffffffffffffffffffffffffffffff16815260200190815260200160002060006001815260200190815260200160002060000181905550600083600f0160003373ffffffffffffffffffffffffffffffffffffffff1673ffffffffffffffffffffffffffffffffffffffff16815260200190815260200160002060006002815260200190815260200160002060000181905550600083600e0160003373ffffffffffffffffffffffffffffffffffffffff1673ffffffffffffffffffffffffffffffffffffffff16815260200190815260200160002060006001815260200190815260200160002060000181905550600083600e0160003373ffffffffffffffffffffffffffffffffffffffff1673ffffffffffffffffffffffffffffffffffffffff16815260200190815260200160002060006002815260200190815260200160002060000181905550600760009054906101000a900473ffffffffffffffffffffffffffffffffffffffff1673ffffffffffffffffffffffffffffffffffffffff16632c54de4f8460060160009054906101000a900473ffffffffffffffffffffffffffffffffffffffff163033866040518563ffffffff167c0100000000000000000000000000000000000000000000000000000000028152600401808573ffffffffffffffffffffffffffffffffffffffff1673ffffffffffffffffffffffffffffffffffffffff1681526020018473ffffffffffffffffffffffffffffffffffffffff1673ffffffffffffffffffffffffffffffffffffffff1681526020018373ffffffffffffffffffffffffffffffffffffffff1673ffffffffffffffffffffffffffffffffffffffff168152602001828152602001945050505050602060405180830381600087803b15801561199a57600080fd5b505af11580156119ae573d6000803e3d6000fd5b505050506040513d60208110156119c457600080fd5b810190808051906020019092919050505015156119e057600080fd5b7f6fe9fe9590d9b235fcb84468bf92bf905ca3795c7c284fa06eec9b10776ea4b485856040518083815260200182600019166000191681526020019250505060405180910390a17fe518c6999b8fc54688a71bb20779df78e259f03f0118b6e5c13099dd3dd4ebf4826040518082815260200191505060405180910390a15050505050565b600560009054906101000a900473ffffffffffffffffffffffffffffffffffffffff1673ffffffffffffffffffffffffffffffffffffffff163373ffffffffffffffffffffffffffffffffffffffff16141515611ac157600080fd5b60011515600760009054906101000a900473ffffffffffffffffffffffffffffffffffffffff1673ffffffffffffffffffffffffffffffffffffffff166361eeeb8c846040518263ffffffff167c0100000000000000000000000000000000000000000000000000000000028152600401808273ffffffffffffffffffffffffffffffffffffffff1673ffffffffffffffffffffffffffffffffffffffff168152602001915050602060405180830381600087803b158015611b8257600080fd5b505af1158015611b96573d6000803e3d6000fd5b505050506040513d6020811015611bac57600080fd5b810190808051906020019092919050505015151415611d30578173ffffffffffffffffffffffffffffffffffffffff1663095ea7b3600860009054906101000a900473ffffffffffffffffffffffffffffffffffffffff167fffffffffffffffffffffffffffffffffffffffffffffffffffffffffffffffff6040518363ffffffff167c0100000000000000000000000000000000000000000000000000000000028152600401808373ffffffffffffffffffffffffffffffffffffffff1673ffffffffffffffffffffffffffffffffffffffff16815260200182815260200192505050602060405180830381600087803b158015611caa57600080fd5b505af1158015611cbe573d6000803e3d6000fd5b505050506040513d6020811015611cd457600080fd5b81019080805190602001909291905050501515611cf057600080fd5b7f9e77a8b456f7d417899a901bad076c5e13c2d8343a1c189681e67ca31942f6be8160405180826000191660001916815260200191505060405180910390a15b5050565b60005481565b6000856000600482815481101515611d4e57fe5b9060005260206000209060110201600f0160003373ffffffffffffffffffffffffffffffffffffffff1673ffffffffffffffffffffffffffffffffffffffff168152602001908152602001600020600060018152602001908152602001600020600001541180611e3057506000600482815481101515611dca57fe5b9060005260206000209060110201600f0160003373ffffffffffffffffffffffffffffffffffffffff1673ffffffffffffffffffffffffffffffffffffffff16815260200190815260200160002060006002815260200190815260200160002060000154115b80611ead57506000600482815481101515611e4757fe5b9060005260206000209060110201600e0160003373ffffffffffffffffffffffffffffffffffffffff1673ffffffffffffffffffffffffffffffffffffffff16815260200190815260200160002060006001815260200190815260200160002060000154115b80611f2a57506000600482815481101515611ec457fe5b9060005260206000209060110201600e0160003373ffffffffffffffffffffffffffffffffffffffff1673ffffffffffffffffffffffffffffffffffffffff16815260200190815260200160002060006002815260200190815260200160002060000154115b1515611f3557600080fd5b600487815481101515611f4457fe5b906000526020600020906011020191508482600e0160003373ffffffffffffffffffffffffffffffffffffffff1673ffffffffffffffffffffffffffffffffffffffff16815260200190815260200160002060008881526020019081526020016000206000015410151515611fb857600080fd5b8482600e0160003373ffffffffffffffffffffffffffffffffffffffff1673ffffffffffffffffffffffffffffffffffffffff16815260200190815260200160002060008881526020019081526020016000206002016000868152602001908152602001600020541015151561202d57600080fd5b600760009054906101000a900473ffffffffffffffffffffffffffffffffffffffff1673ffffffffffffffffffffffffffffffffffffffff16632c54de4f8360060160009054906101000a900473ffffffffffffffffffffffffffffffffffffffff163033896040518563ffffffff167c0100000000000000000000000000000000000000000000000000000000028152600401808573ffffffffffffffffffffffffffffffffffffffff1673ffffffffffffffffffffffffffffffffffffffff1681526020018473ffffffffffffffffffffffffffffffffffffffff1673ffffffffffffffffffffffffffffffffffffffff1681526020018373ffffffffffffffffffffffffffffffffffffffff1673ffffffffffffffffffffffffffffffffffffffff168152602001828152602001945050505050602060405180830381600087803b15801561217e57600080fd5b505af1158015612192573d6000803e3d6000fd5b505050506040513d60208110156121a857600080fd5b810190808051906020019092919050505015156121c457600080fd5b8482600e0160003373ffffffffffffffffffffffffffffffffffffffff1673ffffffffffffffffffffffffffffffffffffffff1681526020019081526020016000206000888152602001908152602001600020600001600082825403925050819055508482600e0160003373ffffffffffffffffffffffffffffffffffffffff1673ffffffffffffffffffffffffffffffffffffffff16815260200190815260200160002060008881526020019081526020016000206002016000868152602001908152602001600020600082825403925050819055508482600901600082825403925050819055507fab0e14e0a016fa8a0d17ecf0051bf0b27117e332369e6660521a8969574c272d87846040518083815260200182600019166000191681526020019250505060405180910390a17f30f13748a6589be9202bec03bb7695d7130248949254c600de71e04ad970633c82600e0160003373ffffffffffffffffffffffffffffffffffffffff1673ffffffffffffffffffffffffffffffffffffffff1681526020019081526020016000206000888152602001908152602001600020600001546040518082815260200191505060405180910390a150505050505050565b6000600560009054906101000a900473ffffffffffffffffffffffffffffffffffffffff1673ffffffffffffffffffffffffffffffffffffffff163373ffffffffffffffffffffffffffffffffffffffff161415156123e757600080fd5b6004848154811015156123f657fe5b906000526020600020906011020190506003816007015414151561241957600080fd5b60018314806124285750600283145b806124335750600383145b151561243e57600080fd5b600181600c0160006101000a81548160ff021916908315150217905550828160080181905550600281600701819055507f43db73c3d115ee5896bed665630bc1f24065e21274b5dbc4acc4a84bb682d58a84836040518083815260200182600019166000191681526020019250505060405180910390a150505050565b60008060008060008060008a73ffffffffffffffffffffffffffffffffffffffff16141515156124ea57600080fd5b6001548b101515156124fb57600080fd5b600154891015151561250c57600080fd5b60048d81548110151561251b57fe5b906000526020600020906011020195506001866007015414151561253e57600080fd5b85600301544210151561255057600080fd5b8b6003039450600760009054906101000a900473ffffffffffffffffffffffffffffffffffffffff1673ffffffffffffffffffffffffffffffffffffffff16632c54de4f8760060160009054906101000a900473ffffffffffffffffffffffffffffffffffffffff1633308c6040518563ffffffff167c0100000000000000000000000000000000000000000000000000000000028152600401808573ffffffffffffffffffffffffffffffffffffffff1673ffffffffffffffffffffffffffffffffffffffff1681526020018473ffffffffffffffffffffffffffffffffffffffff1673ffffffffffffffffffffffffffffffffffffffff1681526020018373ffffffffffffffffffffffffffffffffffffffff1673ffffffffffffffffffffffffffffffffffffffff168152602001828152602001945050505050602060405180830381600087803b1580156126a757600080fd5b505af11580156126bb573d6000803e3d6000fd5b505050506040513d60208110156126d157600080fd5b810190808051906020019092919050505015156126ed57600080fd5b87935085600e0160008b73ffffffffffffffffffffffffffffffffffffffff1673ffffffffffffffffffffffffffffffffffffffff16815260200190815260200160002060008681526020019081526020016000206000015492506001548b850281151561275757fe5b04915060015489840281151561276957fe5b0490508082101561278157838203925081905061278a565b82810393508091505b6001548b0389026001548c02101515156127a357600080fd5b8286600e0160008c73ffffffffffffffffffffffffffffffffffffffff1673ffffffffffffffffffffffffffffffffffffffff168152602001908152602001600020600087815260200190815260200160002060020160008b8152602001908152602001600020541015151561281857600080fd5b8286600e0160008c73ffffffffffffffffffffffffffffffffffffffff1673ffffffffffffffffffffffffffffffffffffffff1681526020019081526020016000206000878152602001908152602001600020600001541015151561287c57600080fd5b8286600e0160008c73ffffffffffffffffffffffffffffffffffffffff1673ffffffffffffffffffffffffffffffffffffffff168152602001908152602001600020600087815260200190815260200160002060020160008b8152602001908152602001600020600082825403925050819055508286600e0160008c73ffffffffffffffffffffffffffffffffffffffff1673ffffffffffffffffffffffffffffffffffffffff1681526020019081526020016000206000878152602001908152602001600020600001600082825403925050819055508286600901600082825403925050819055508286600f0160008c73ffffffffffffffffffffffffffffffffffffffff1673ffffffffffffffffffffffffffffffffffffffff168152602001908152602001600020600087815260200190815260200160002060020160008b8152602001908152602001600020600082825401925050819055508286600f0160008c73ffffffffffffffffffffffffffffffffffffffff1673ffffffffffffffffffffffffffffffffffffffff1681526020019081526020016000206000878152602001908152602001600020600001600082825401925050819055508086600f0160008c73ffffffffffffffffffffffffffffffffffffffff1673ffffffffffffffffffffffffffffffffffffffff1681526020019081526020016000206000878152602001908152602001600020600101600082825401925050819055508286600a01600082825401925050819055508286600d016000878152602001908152602001600020600082825401925050819055508386600f0160003373ffffffffffffffffffffffffffffffffffffffff1673ffffffffffffffffffffffffffffffffffffffff16815260200190815260200160002060008e815260200190815260200160002060020160008d8152602001908152602001600020600082825401925050819055508386600f0160003373ffffffffffffffffffffffffffffffffffffffff1673ffffffffffffffffffffffffffffffffffffffff16815260200190815260200160002060008e8152602001908152602001600020600001600082825401925050819055508186600f0160003373ffffffffffffffffffffffffffffffffffffffff1673ffffffffffffffffffffffffffffffffffffffff16815260200190815260200160002060008e8152602001908152602001600020600101600082825401925050819055508386600a01600082825401925050819055508386600d0160008e8152602001908152602001600020600082825401925050819055507f6a5ee55c9df2daa4375d2b5e4ec8b9e5662f1863207bcbe6e38c6f5fe3c243008d886040518083815260200182600019166000191681526020019250505060405180910390a150505050505050505050505050565b600481815481101515612ca857fe5b90600052602060002090601102016000915090508060000160009054906101000a900473ffffffffffffffffffffffffffffffffffffffff16908060010154908060020154908060030154908060040154908060050154908060060160009054906101000a900473ffffffffffffffffffffffffffffffffffffffff169080600701549080600801549080600901549080600a01549080600b01549080600c0160009054906101000a900460ff1690508d565b60025481565b60035481565b60066020528060005260406000206000915090505481565b600080600080600080600560009054906101000a900473ffffffffffffffffffffffffffffffffffffffff1673ffffffffffffffffffffffffffffffffffffffff163373ffffffffffffffffffffffffffffffffffffffff16141515612de457600080fd5b60048a815481101515612df357fe5b9060005260206000209060110201915081600f0160008973ffffffffffffffffffffffffffffffffffffffff1673ffffffffffffffffffffffffffffffffffffffff16815260200190815260200160002060008a8152602001908152602001600020905080600001548160010154888360020160008b81526020019081526020016000205495509550955095505050945094509450949050565b6000600484815481101515612e9e57fe5b9060005260206000209060110201905080600401544211151515612ec157600080fd5b8060000160009054906101000a900473ffffffffffffffffffffffffffffffffffffffff1673ffffffffffffffffffffffffffffffffffffffff163373ffffffffffffffffffffffffffffffffffffffff16141515612f1f57600080fd5b60018160070154141515612f3257600080fd5b828160080181905550600281600701819055507f71c8b3ac7d9125fc562f0e493b93c79c2f22d445820a039344e6732d22871d3c84836040518083815260200182600019166000191681526020019250505060405180910390a150505050565b600080600080856000600482815481101515612faa57fe5b9060005260206000209060110201600f0160003373ffffffffffffffffffffffffffffffffffffffff1673ffffffffffffffffffffffffffffffffffffffff16815260200190815260200160002060006001815260200190815260200160002060000154118061308c5750600060048281548110151561302657fe5b9060005260206000209060110201600f0160003373ffffffffffffffffffffffffffffffffffffffff1673ffffffffffffffffffffffffffffffffffffffff16815260200190815260200160002060006002815260200190815260200160002060000154115b80613109575060006004828154811015156130a357fe5b9060005260206000209060110201600e0160003373ffffffffffffffffffffffffffffffffffffffff1673ffffffffffffffffffffffffffffffffffffffff16815260200190815260200160002060006001815260200190815260200160002060000154115b806131865750600060048281548110151561312057fe5b9060005260206000209060110201600e0160003373ffffffffffffffffffffffffffffffffffffffff1673ffffffffffffffffffffffffffffffffffffffff16815260200190815260200160002060006002815260200190815260200160002060000154115b151561319157600080fd5b6004878154811015156131a057fe5b90600052602060002090601102019450846005015442111515156131c357600080fd5b600285600701541415156131d657600080fd5b84600c0160009054906101000a900460ff161515156131f457600080fd5b8460100160003373ffffffffffffffffffffffffffffffffffffffff1673ffffffffffffffffffffffffffffffffffffffff16815260200190815260200160002060009054906101000a900460ff1615151561324f57600080fd5b60018560100160003373ffffffffffffffffffffffffffffffffffffffff1673ffffffffffffffffffffffffffffffffffffffff16815260200190815260200160002060006101000a81548160ff02191690831515021790555084600801546003039350600092506000915060008414156133b15784600f0160003373ffffffffffffffffffffffffffffffffffffffff1673ffffffffffffffffffffffffffffffffffffffff16815260200190815260200160002060006001815260200190815260200160002060000154925084600f0160003373ffffffffffffffffffffffffffffffffffffffff1673ffffffffffffffffffffffffffffffffffffffff168152602001908152602001600020600060028152602001908152602001600020600001548301925084600d0160006001815260200190815260200160002054915084600d016000600281526020019081526020016000205482019150613422565b84600f0160003373ffffffffffffffffffffffffffffffffffffffff1673ffffffffffffffffffffffffffffffffffffffff168152602001908152602001600020600085815260200190815260200160002060000154925084600d0160008581526020019081526020016000205491505b60008311151561343157600080fd5b8285600b0160008282540192505081905550816002540285600b0154606402111561346157600385600701819055505b7f71c5e2f984c07a51200c1ec481c3baba8e6e0bfd88fc393921c30d3f10bad4fc87866007015488604051808481526020018381526020018260001916600019168152602001935050505060405180910390a150505050505050565b600560009054906101000a900473ffffffffffffffffffffffffffffffffffffffff1681565b8160006004828154811015156134f557fe5b9060005260206000209060110201600f0160003373ffffffffffffffffffffffffffffffffffffffff1673ffffffffffffffffffffffffffffffffffffffff1681526020019081526020016000206000600181526020019081526020016000206000015411806135d75750600060048281548110151561357157fe5b9060005260206000209060110201600f0160003373ffffffffffffffffffffffffffffffffffffffff1673ffffffffffffffffffffffffffffffffffffffff16815260200190815260200160002060006002815260200190815260200160002060000154115b80613654575060006004828154811015156135ee57fe5b9060005260206000209060110201600e0160003373ffffffffffffffffffffffffffffffffffffffff1673ffffffffffffffffffffffffffffffffffffffff16815260200190815260200160002060006001815260200190815260200160002060000154115b806136d15750600060048281548110151561366b57fe5b9060005260206000209060110201600e0160003373ffffffffffffffffffffffffffffffffffffffff1673ffffffffffffffffffffffffffffffffffffffff16815260200190815260200160002060006002815260200190815260200160002060000154115b15156136dc57600080fd5b6136e7833384613970565b505050565b60015481565b6136fa614488565b88816000019073ffffffffffffffffffffffffffffffffffffffff16908173ffffffffffffffffffffffffffffffffffffffff1681525050878160200181815250508681604001906000191690816000191681525050858160c0019073ffffffffffffffffffffffffffffffffffffffff16908173ffffffffffffffffffffffffffffffffffffffff168152505060018502420181606001818152505060018402816060015101816080018181525050600183028160800151018160a001818152505060018160e00181815250506004819080600181540180825580915050906001820390600052602060002090601102016000909192909190915060008201518160000160006101000a81548173ffffffffffffffffffffffffffffffffffffffff021916908373ffffffffffffffffffffffffffffffffffffffff1602179055506020820151816001015560408201518160020190600019169055606082015181600301556080820151816004015560a0820151816005015560c08201518160060160006101000a81548173ffffffffffffffffffffffffffffffffffffffff021916908373ffffffffffffffffffffffffffffffffffffffff16021790555060e082015181600701556101008201518160080155610120820151816009015561014082015181600a015561016082015181600b015561018082015181600c0160006101000a81548160ff0219169083151502179055505050507f6ca4bad73e644d473be8bf4f88e57b9c92f4aae31d45b3a7f90cd9438343b641600160048054905003836040518083815260200182600019166000191681526020019250505060405180910390a1505050505050505050565b60008060008060048781548110151561398557fe5b90600052602060002090601102019350600284600701541415156139a857600080fd5b8360050154421115156139ba57600080fd5b6064846001015485600f0160008973ffffffffffffffffffffffffffffffffffffffff1673ffffffffffffffffffffffffffffffffffffffff1681526020019081526020016000206000876008015481526020019081526020016000206001015402811515613a2557fe5b04925060646000548402811515613a3857fe5b04915083600f0160008773ffffffffffffffffffffffffffffffffffffffff1673ffffffffffffffffffffffffffffffffffffffff16815260200190815260200160002060008560080154815260200190815260200160002060010154905083600e0160008773ffffffffffffffffffffffffffffffffffffffff1673ffffffffffffffffffffffffffffffffffffffff168152602001908152602001600020600060018152602001908152602001600020600001548101905083600e0160008773ffffffffffffffffffffffffffffffffffffffff1673ffffffffffffffffffffffffffffffffffffffff16815260200190815260200160002060006002815260200190815260200160002060000154810190506000838203111515613b5e57600080fd5b6000828403111515613b6f57600080fd5b83600e0160008773ffffffffffffffffffffffffffffffffffffffff1673ffffffffffffffffffffffffffffffffffffffff16815260200190815260200160002060006001815260200190815260200160002060000154846009016000828254039250508190555083600e0160008773ffffffffffffffffffffffffffffffffffffffff1673ffffffffffffffffffffffffffffffffffffffff16815260200190815260200160002060006002815260200190815260200160002060000154846009016000828254039250508190555083600f0160008773ffffffffffffffffffffffffffffffffffffffff1673ffffffffffffffffffffffffffffffffffffffff1681526020019081526020016000206000600181526020019081526020016000206000015484600a016000828254039250508190555083600f0160008773ffffffffffffffffffffffffffffffffffffffff1673ffffffffffffffffffffffffffffffffffffffff1681526020019081526020016000206000600281526020019081526020016000206000015484600a0160008282540392505081905550600084600e0160008873ffffffffffffffffffffffffffffffffffffffff1673ffffffffffffffffffffffffffffffffffffffff16815260200190815260200160002060006001815260200190815260200160002060000181905550600084600e0160008873ffffffffffffffffffffffffffffffffffffffff1673ffffffffffffffffffffffffffffffffffffffff16815260200190815260200160002060006002815260200190815260200160002060000181905550600084600f0160008873ffffffffffffffffffffffffffffffffffffffff1673ffffffffffffffffffffffffffffffffffffffff16815260200190815260200160002060006001815260200190815260200160002060000181905550600084600f0160008873ffffffffffffffffffffffffffffffffffffffff1673ffffffffffffffffffffffffffffffffffffffff16815260200190815260200160002060006002815260200190815260200160002060000181905550600084600f0160008873ffffffffffffffffffffffffffffffffffffffff1673ffffffffffffffffffffffffffffffffffffffff16815260200190815260200160002060008660080154815260200190815260200160002060010181905550600760009054906101000a900473ffffffffffffffffffffffffffffffffffffffff1673ffffffffffffffffffffffffffffffffffffffff16632c54de4f8560060160009054906101000a900473ffffffffffffffffffffffffffffffffffffffff1630898786036040518563ffffffff167c0100000000000000000000000000000000000000000000000000000000028152600401808573ffffffffffffffffffffffffffffffffffffffff1673ffffffffffffffffffffffffffffffffffffffff1681526020018473ffffffffffffffffffffffffffffffffffffffff1673ffffffffffffffffffffffffffffffffffffffff1681526020018373ffffffffffffffffffffffffffffffffffffffff1673ffffffffffffffffffffffffffffffffffffffff168152602001828152602001945050505050602060405180830381600087803b15801561403157600080fd5b505af1158015614045573d6000803e3d6000fd5b505050506040513d602081101561405b57600080fd5b8101908080519060200190929190505050151561407757600080fd5b600760009054906101000a900473ffffffffffffffffffffffffffffffffffffffff1673ffffffffffffffffffffffffffffffffffffffff16632c54de4f8560060160009054906101000a900473ffffffffffffffffffffffffffffffffffffffff16308760000160009054906101000a900473ffffffffffffffffffffffffffffffffffffffff168688036040518563ffffffff167c0100000000000000000000000000000000000000000000000000000000028152600401808573ffffffffffffffffffffffffffffffffffffffff1673ffffffffffffffffffffffffffffffffffffffff1681526020018473ffffffffffffffffffffffffffffffffffffffff1673ffffffffffffffffffffffffffffffffffffffff1681526020018373ffffffffffffffffffffffffffffffffffffffff1673ffffffffffffffffffffffffffffffffffffffff168152602001828152602001945050505050602060405180830381600087803b1580156141ee57600080fd5b505af1158015614202573d6000803e3d6000fd5b505050506040513d602081101561421857600080fd5b8101908080519060200190929190505050151561423457600080fd5b600760009054906101000a900473ffffffffffffffffffffffffffffffffffffffff1673ffffffffffffffffffffffffffffffffffffffff16632c54de4f8560060160009054906101000a900473ffffffffffffffffffffffffffffffffffffffff1630600560009054906101000a900473ffffffffffffffffffffffffffffffffffffffff16866040518563ffffffff167c0100000000000000000000000000000000000000000000000000000000028152600401808573ffffffffffffffffffffffffffffffffffffffff1673ffffffffffffffffffffffffffffffffffffffff1681526020018473ffffffffffffffffffffffffffffffffffffffff1673ffffffffffffffffffffffffffffffffffffffff1681526020018373ffffffffffffffffffffffffffffffffffffffff1673ffffffffffffffffffffffffffffffffffffffff168152602001828152602001945050505050602060405180830381600087803b1580156143a757600080fd5b505af11580156143bb573d6000803e3d6000fd5b505050506040513d60208110156143d157600080fd5b810190808051906020019092919050505015156143ed57600080fd5b7f524cfe0d33d142e24b3c16c7f11234b23eae5fe14f95d328f3991837dc56d31487866040518083815260200182600019166000191681526020019250505060405180910390a17f8de0c4178df0ca7d776c505c09fe7699d34fb83545c4b23c03fc2e87461604888283850385840360405180848152602001838152602001828152602001935050505060405180910390a150505050505050565b6101a060405190810160405280600073ffffffffffffffffffffffffffffffffffffffff1681526020016000815260200160008019168152602001600081526020016000815260200160008152602001600073ffffffffffffffffffffffffffffffffffffffff168152602001600081526020016000815260200160008152602001600081526020016000815260200160001515815250905600a165627a7a723058201a0ecd0af1b18ceaa85ab3624b2ee2e5022f97dd10f41d8b3221e06fa7dba2c60029",
  "source": "/*\n*\n* PredictionExchange is an exchange contract that doesn't accept bets on the outcomes,\n* but instead matchedes backers/takers (those betting on odds) with layers/makers \n* (those offering the odds).\n*\n* Note:\n*\n*       side: 0 (unknown), 1 (support), 2 (against), 3 (draw)\n*       role: 0 (unknown), 1 (maker), 2 (taker)\n*       state: 0 (unknown), 1 (created), 2 (reported), 3 (disputed)\n*       __test__* events will be removed prior to production deployment\n*       odds are rounded up (2.25 is 225)\n*\n*/\n\npragma solidity ^0.4.24;\n\nimport \"./TokenRegistry.sol\";\n\ncontract PredictionHandshakeWithToken {\n    struct Market {\n        address creator;\n        uint fee; \n        bytes32 source;\n        uint closingTime; \n        uint reportTime; \n        uint disputeTime;\n        \n        address token;\n\n        uint state;\n        uint outcome;\n\n        uint totalOpenStake;\n        uint totalMatchedStake;\n        uint disputeMatchedStake;\n        bool resolved;\n        mapping(uint => uint) outcomeMatchedStake;\n\n        mapping(address => mapping(uint => Order)) open; // address => side => order\n        mapping(address => mapping(uint => Order)) matched; // address => side => order\n        mapping(address => bool) disputed;\n    }\n    \n    function getMatchedData(uint hid, uint side, address user, uint userOdds) public onlyRoot view returns \n    (\n        uint256,\n        uint256,\n        uint256,\n        uint256\n    ) \n    {\n        Market storage m = markets[hid];\n        Order storage o = m.matched[user][side];\n        // return (stake, payout, odds, pool size)\n        return (o.stake, o.payout, userOdds, o.odds[userOdds]);\n    }\n        \n    function getOpenData(uint hid, uint side, address user, uint userOdds) public onlyRoot view returns \n    (\n        uint256,\n        uint256,\n        uint256,\n        uint256\n    ) \n    {\n        Market storage m = markets[hid];\n        Order storage o = m.open[user][side];\n        // return (stake, payout, odds, pool size)\n        return (o.stake, o.payout, userOdds, o.odds[userOdds]);\n    }\n\n    struct Order {\n        uint stake;\n        uint payout;\n        mapping(uint => uint) odds; // odds => pool size\n    }\n\n    uint public NETWORK_FEE = 20; // 20%\n    uint public ODDS_1 = 100; // 1.00 is 100; 2.25 is 225 \n    uint public DISPUTE_THRESHOLD = 50; // 50%\n    uint public EXPIRATION = 30 days; \n\n    Market[] public markets;\n    address public root;\n    mapping(address => uint) public total;\n    \n    // token management\n    TokenRegistry tokenRegistry;\n    address tokenRegistryAddress;\n\n    constructor(address _tokenRegistryAddress) public {\n        root = msg.sender;\n        tokenRegistryAddress = _tokenRegistryAddress;\n        tokenRegistry = TokenRegistry(_tokenRegistryAddress);\n    } \n\n    modifier tokenExisted(address _tokenAddr) {\n        require(tokenRegistry.tokenIsExisted(_tokenAddr) == true);\n        _;\n    }\n\n    // grant permission for this contract to send ERC20 token\n    function approveNewTokens(address[] _tokenAddresses) public onlyRoot {\n        for(uint i = 0; i < _tokenAddresses.length; i++) {\n            if (tokenRegistry.tokenIsExisted(_tokenAddresses[i]) == true) {\n                require(\n                    Token(_tokenAddresses[i]).approve(tokenRegistryAddress, 2**256-1)\n                );\n            } \n        }\n    }\n\n    event __approveNewToken(bytes32 offchain); \n\n    function approveNewToken(address tokenAddress, bytes32 offchain) public onlyRoot {\n        if (tokenRegistry.tokenIsExisted(tokenAddress) == true) {\n            require(\n                Token(tokenAddress).approve(tokenRegistryAddress, 2**256-1)\n            );\n            emit __approveNewToken(offchain);\n        }\n    }\n\n    event __createMarket(uint hid, bytes32 offchain); \n\n    function createMarket(\n        uint fee, \n        bytes32 source,\n        address tokenAddress,\n        uint closingWindow, \n        uint reportWindow, \n        uint disputeWindow,\n        bytes32 offchain\n    ) \n        public \n        tokenExisted(tokenAddress)\n    {\n        _createMarket(msg.sender, fee, source, tokenAddress, closingWindow, reportWindow, disputeWindow, offchain);\n    }\n\n\n    function createMarketForShurikenUser(\n        address creator,\n        uint fee, \n        bytes32 source,\n        address tokenAddress,\n        uint closingWindow, \n        uint reportWindow, \n        uint disputeWindow,\n        bytes32 offchain\n    ) \n        public \n        tokenExisted(tokenAddress)\n        onlyRoot\n    {\n        _createMarket(creator, fee, source, tokenAddress, closingWindow, reportWindow, disputeWindow, offchain);\n    }\n\n\n    function _createMarket(\n        address creator,\n        uint fee, \n        bytes32 source,\n        address tokenAddress,\n        uint closingWindow, \n        uint reportWindow, \n        uint disputeWindow,\n        bytes32 offchain\n    ) \n        private \n    {\n        Market memory m;\n        m.creator = creator;\n        m.fee = fee;\n        m.source = source;\n        m.token = tokenAddress;\n        m.closingTime = now + closingWindow * 1 seconds;\n        m.reportTime = m.closingTime + reportWindow * 1 seconds;\n        m.disputeTime = m.reportTime + disputeWindow * 1 seconds;\n        m.state = 1;\n        markets.push(m);\n\n        emit __createMarket(markets.length - 1, offchain);\n    }\n\n\n    event __init(uint hid, bytes32 offchain);\n    event __test__init(uint stake);\n\n    // market maker\n    function init(\n        uint hid, \n        uint side, \n        uint odds, \n        uint amount,\n        bytes32 offchain\n    ) \n        public \n    {\n        Market storage m = markets[hid];\n\n        require(now < m.closingTime);\n        require(m.state == 1);\n        require(tokenRegistry.transferToken(m.token, msg.sender, address(this), amount));\n\n        m.open[msg.sender][side].stake += amount;\n        m.open[msg.sender][side].odds[odds] += amount;\n        m.totalOpenStake += amount;\n\n        emit __init(hid, offchain);\n        emit __test__init(m.open[msg.sender][side].stake);\n    }\n    \n    \n    event __uninit(uint hid, bytes32 offchain);\n    event __test__uninit(uint stake);\n\n    // market maker cancels order\n    function uninit(\n        uint hid, \n        uint side, \n        uint stake, \n        uint odds, \n        bytes32 offchain\n    ) \n        public \n        onlyPredictor(hid) \n    {\n        Market storage m = markets[hid];\n\n        require(m.open[msg.sender][side].stake >= stake);\n        require(m.open[msg.sender][side].odds[odds] >= stake);\n        require(tokenRegistry.transferToken(m.token, address(this), msg.sender, stake));\n\n        m.open[msg.sender][side].stake -= stake;\n        m.open[msg.sender][side].odds[odds] -= stake;\n        m.totalOpenStake -= stake;\n\n        emit __uninit(hid, offchain);\n        emit __test__uninit(m.open[msg.sender][side].stake);\n    }\n\n    event __shake(uint hid, bytes32 offchain);\n\n    // market taker\n    function shake(\n        uint hid, \n        uint side, \n        uint takerOdds, \n        address maker, \n        uint makerOdds, \n        uint amount,\n        bytes32 offchain\n    ) \n        public \n    {\n        require(maker != 0);\n        require(takerOdds >= ODDS_1);\n        require(makerOdds >= ODDS_1);\n\n        Market storage m = markets[hid];\n\n        require(m.state == 1);\n        require(now < m.closingTime);\n\n        uint makerSide = 3 - side;\n\n        require(tokenRegistry.transferToken(m.token, msg.sender, address(this), amount));\n        uint takerStake = amount;\n        uint makerStake = m.open[maker][makerSide].stake;\n\n        uint takerPayout = (takerStake * takerOdds) / ODDS_1;\n        uint makerPayout = (makerStake * makerOdds) / ODDS_1;\n\n        if (takerPayout < makerPayout) {\n            makerStake = takerPayout - takerStake;\n            makerPayout = takerPayout;\n        } else {\n            takerStake = makerPayout - makerStake;\n            takerPayout = makerPayout;\n        }\n\n        // check if the odds matching is valid\n        require(takerOdds * ODDS_1 >= makerOdds * (takerOdds - ODDS_1));\n\n        // check if the stake is sufficient\n        require(m.open[maker][makerSide].odds[makerOdds] >= makerStake);\n        require(m.open[maker][makerSide].stake >= makerStake);\n\n        // remove maker's order from open (could be partial)\n        m.open[maker][makerSide].odds[makerOdds] -= makerStake;\n        m.open[maker][makerSide].stake -= makerStake;\n        m.totalOpenStake -=  makerStake;\n\n        // add maker's order to matched\n        m.matched[maker][makerSide].odds[makerOdds] += makerStake;\n        m.matched[maker][makerSide].stake += makerStake;\n        m.matched[maker][makerSide].payout += makerPayout;\n        m.totalMatchedStake += makerStake;\n        m.outcomeMatchedStake[makerSide] += makerStake;\n\n        // add taker's order to matched\n        m.matched[msg.sender][side].odds[takerOdds] += takerStake;\n        m.matched[msg.sender][side].stake += takerStake;\n        m.matched[msg.sender][side].payout += takerPayout;\n        m.totalMatchedStake += takerStake;\n        m.outcomeMatchedStake[side] += takerStake;\n\n        emit __shake(hid, offchain);\n    }\n\n\n    event __collect(uint hid, bytes32 offchain);\n    event __test__collect(uint network, uint market, uint trader);\n\n    function collect(uint hid, bytes32 offchain) public onlyPredictor(hid) {\n        _collect(hid, msg.sender, offchain);\n    }\n\n    // collect payouts & outstanding stakes (if there is outcome)\n    function _collect(uint hid, address winner, bytes32 offchain) private {\n        Market storage m = markets[hid]; \n\n        require(m.state == 2);\n        require(now > m.disputeTime);\n\n        // calc network commission, market commission and winnings\n        uint marketComm = (m.matched[winner][m.outcome].payout * m.fee) / 100;\n        uint networkComm = (marketComm * NETWORK_FEE) / 100;\n\n        uint amt = m.matched[winner][m.outcome].payout;\n\n        amt += m.open[winner][1].stake; \n        amt += m.open[winner][2].stake;\n\n        require(amt - marketComm > 0);\n        require(marketComm - networkComm > 0);\n\n        // update totals\n        m.totalOpenStake -= m.open[winner][1].stake;\n        m.totalOpenStake -= m.open[winner][2].stake;\n        m.totalMatchedStake -= m.matched[winner][1].stake;\n        m.totalMatchedStake -= m.matched[winner][2].stake;\n\n        // wipe data\n        m.open[winner][1].stake = 0; \n        m.open[winner][2].stake = 0;\n        m.matched[winner][1].stake = 0; \n        m.matched[winner][2].stake = 0;\n        m.matched[winner][m.outcome].payout = 0;\n\n        require(tokenRegistry.transferToken(m.token, address(this), winner, amt - marketComm));\n        require(tokenRegistry.transferToken(m.token, address(this), m.creator, marketComm - networkComm));\n        require(tokenRegistry.transferToken(m.token, address(this), root, networkComm));\n\n        emit __collect(hid, offchain);\n        emit __test__collect(networkComm, marketComm - networkComm, amt - marketComm);\n    }\n\n\n    event __refund(uint hid, bytes32 offchain);\n    event __test__refund(uint amt);\n\n    // refund stakes when market closes (if there is no outcome)\n    function refund(uint hid, bytes32 offchain) public onlyPredictor(hid) {\n\n        Market storage m = markets[hid]; \n\n        require(m.state == 1 || m.outcome == 3);\n        require(now > m.reportTime);\n\n        // calc refund amt\n        uint amt;\n        amt += m.matched[msg.sender][1].stake;\n        amt += m.matched[msg.sender][2].stake;\n        amt += m.open[msg.sender][1].stake;\n        amt += m.open[msg.sender][2].stake;\n\n        require(amt > 0);\n\n        // wipe data\n        m.matched[msg.sender][1].stake = 0;\n        m.matched[msg.sender][2].stake = 0;\n        m.open[msg.sender][1].stake = 0;\n        m.open[msg.sender][2].stake = 0;\n\n        require(tokenRegistry.transferToken(m.token, address(this), msg.sender, amt));\n        \n        emit __refund(hid, offchain);\n        emit __test__refund(amt);\n    }\n\n\n    event __report(uint hid, bytes32 offchain);\n\n    // report outcome\n    function report(uint hid, uint outcome, bytes32 offchain) public {\n        Market storage m = markets[hid]; \n        require(now <= m.reportTime);\n        require(msg.sender == m.creator);\n        require(m.state == 1);\n        m.outcome = outcome;\n        m.state = 2;\n        emit __report(hid, offchain);\n    }\n\n\n    event __dispute(uint hid, uint state, bytes32 offchain);\n\n    // dispute outcome\n    function dispute(uint hid, bytes32 offchain) public onlyPredictor(hid) {\n        Market storage m = markets[hid]; \n\n        require(now <= m.disputeTime);\n        require(m.state == 2);\n        require(!m.resolved);\n\n        require(!m.disputed[msg.sender]);\n        m.disputed[msg.sender] = true;\n\n        // make sure user places bet on this side\n        uint side = 3 - m.outcome;\n        uint stake = 0;\n        uint outcomeMatchedStake = 0;\n        if (side == 0) {\n            stake = m.matched[msg.sender][1].stake;   \n            stake += m.matched[msg.sender][2].stake;   \n            outcomeMatchedStake = m.outcomeMatchedStake[1];\n            outcomeMatchedStake += m.outcomeMatchedStake[2];\n\n        } else {\n            stake = m.matched[msg.sender][side].stake;   \n            outcomeMatchedStake = m.outcomeMatchedStake[side];\n        }\n        require(stake > 0);\n        m.disputeMatchedStake += stake;\n\n        // if dispute stakes > 50% of the total stakes\n        if (100 * m.disputeMatchedStake > DISPUTE_THRESHOLD * outcomeMatchedStake) {\n            m.state = 3;\n        }\n        emit __dispute(hid, m.state, offchain);\n    }\n\n\n    event __resolve(uint hid, bytes32 offchain);\n\n    function resolve(uint hid, uint outcome, bytes32 offchain) public onlyRoot {\n        Market storage m = markets[hid]; \n        require(m.state == 3);\n        require(outcome == 1 || outcome == 2 || outcome == 3);\n        m.resolved = true;\n        m.outcome = outcome;\n        m.state = 2;\n        emit __resolve(hid, offchain);\n    }\n\n\n    modifier onlyPredictor(uint hid) {\n        require(markets[hid].matched[msg.sender][1].stake > 0 ||\n                markets[hid].matched[msg.sender][2].stake > 0 || \n                markets[hid].open[msg.sender][1].stake > 0 || \n                markets[hid].open[msg.sender][2].stake > 0);\n        _;\n    }\n\n\n    modifier onlyRoot() {\n        require(msg.sender == root);\n        _;\n    }\n}\n",
  "sourcePath": "/Users/trongdth/Autonomous/handshake-protocol/contracts/PredictionHandshakeWithToken.sol",
  "compiler": {
    "name": "solc",
    "version": "0.4.24+commit.e67f0147.Emscripten.clang"
  },
  "schemaVersion": "2.0.1",
  "updatedAt": "2018-08-31T04:59:44.401Z"
}