{
  "contractName": "PredictionHandshakeWithToken",
  "abi": [
    {
      "constant": true,
      "inputs": [],
      "name": "NETWORK_FEE",
      "outputs": [
        {
          "name": "",
          "type": "uint256"
        }
      ],
      "payable": false,
      "stateMutability": "view",
      "type": "function"
    },
    {
      "constant": true,
      "inputs": [
        {
          "name": "",
          "type": "uint256"
        }
      ],
      "name": "markets",
      "outputs": [
        {
          "name": "creator",
          "type": "address"
        },
        {
          "name": "fee",
          "type": "uint256"
        },
        {
          "name": "source",
          "type": "bytes32"
        },
        {
          "name": "closingTime",
          "type": "uint256"
        },
        {
          "name": "reportTime",
          "type": "uint256"
        },
        {
          "name": "disputeTime",
          "type": "uint256"
        },
        {
          "name": "token",
          "type": "address"
        },
        {
          "name": "state",
          "type": "uint256"
        },
        {
          "name": "outcome",
          "type": "uint256"
        },
        {
          "name": "totalOpenStake",
          "type": "uint256"
        },
        {
          "name": "totalMatchedStake",
          "type": "uint256"
        },
        {
          "name": "disputeMatchedStake",
          "type": "uint256"
        },
        {
          "name": "resolved",
          "type": "bool"
        }
      ],
      "payable": false,
      "stateMutability": "view",
      "type": "function"
    },
    {
      "constant": true,
      "inputs": [],
      "name": "DISPUTE_THRESHOLD",
      "outputs": [
        {
          "name": "",
          "type": "uint256"
        }
      ],
      "payable": false,
      "stateMutability": "view",
      "type": "function"
    },
    {
      "constant": true,
      "inputs": [],
      "name": "EXPIRATION",
      "outputs": [
        {
          "name": "",
          "type": "uint256"
        }
      ],
      "payable": false,
      "stateMutability": "view",
      "type": "function"
    },
    {
      "constant": true,
      "inputs": [
        {
          "name": "",
          "type": "address"
        }
      ],
      "name": "total",
      "outputs": [
        {
          "name": "",
          "type": "uint256"
        }
      ],
      "payable": false,
      "stateMutability": "view",
      "type": "function"
    },
    {
      "constant": true,
      "inputs": [],
      "name": "root",
      "outputs": [
        {
          "name": "",
          "type": "address"
        }
      ],
      "payable": false,
      "stateMutability": "view",
      "type": "function"
    },
    {
      "constant": true,
      "inputs": [],
      "name": "ODDS_1",
      "outputs": [
        {
          "name": "",
          "type": "uint256"
        }
      ],
      "payable": false,
      "stateMutability": "view",
      "type": "function"
    },
    {
      "inputs": [
        {
          "name": "_tokenRegistryAddress",
          "type": "address"
        }
      ],
      "payable": false,
      "stateMutability": "nonpayable",
      "type": "constructor"
    },
    {
      "anonymous": false,
      "inputs": [
        {
          "indexed": false,
          "name": "hid",
          "type": "uint256"
        },
        {
          "indexed": false,
          "name": "offchain",
          "type": "bytes32"
        }
      ],
      "name": "__createMarket",
      "type": "event"
    },
    {
      "anonymous": false,
      "inputs": [
        {
          "indexed": false,
          "name": "hid",
          "type": "uint256"
        },
        {
          "indexed": false,
          "name": "offchain",
          "type": "bytes32"
        }
      ],
      "name": "__init",
      "type": "event"
    },
    {
      "anonymous": false,
      "inputs": [
        {
          "indexed": false,
          "name": "stake",
          "type": "uint256"
        }
      ],
      "name": "__test__init",
      "type": "event"
    },
    {
      "anonymous": false,
      "inputs": [
        {
          "indexed": false,
          "name": "hid",
          "type": "uint256"
        },
        {
          "indexed": false,
          "name": "offchain",
          "type": "bytes32"
        }
      ],
      "name": "__uninit",
      "type": "event"
    },
    {
      "anonymous": false,
      "inputs": [
        {
          "indexed": false,
          "name": "stake",
          "type": "uint256"
        }
      ],
      "name": "__test__uninit",
      "type": "event"
    },
    {
      "anonymous": false,
      "inputs": [
        {
          "indexed": false,
          "name": "hid",
          "type": "uint256"
        },
        {
          "indexed": false,
          "name": "offchain",
          "type": "bytes32"
        }
      ],
      "name": "__shake",
      "type": "event"
    },
    {
      "anonymous": false,
      "inputs": [
        {
          "indexed": false,
          "name": "hid",
          "type": "uint256"
        },
        {
          "indexed": false,
          "name": "offchain",
          "type": "bytes32"
        }
      ],
      "name": "__collect",
      "type": "event"
    },
    {
      "anonymous": false,
      "inputs": [
        {
          "indexed": false,
          "name": "network",
          "type": "uint256"
        },
        {
          "indexed": false,
          "name": "market",
          "type": "uint256"
        },
        {
          "indexed": false,
          "name": "trader",
          "type": "uint256"
        }
      ],
      "name": "__test__collect",
      "type": "event"
    },
    {
      "anonymous": false,
      "inputs": [
        {
          "indexed": false,
          "name": "hid",
          "type": "uint256"
        },
        {
          "indexed": false,
          "name": "offchain",
          "type": "bytes32"
        }
      ],
      "name": "__refund",
      "type": "event"
    },
    {
      "anonymous": false,
      "inputs": [
        {
          "indexed": false,
          "name": "amt",
          "type": "uint256"
        }
      ],
      "name": "__test__refund",
      "type": "event"
    },
    {
      "anonymous": false,
      "inputs": [
        {
          "indexed": false,
          "name": "hid",
          "type": "uint256"
        },
        {
          "indexed": false,
          "name": "offchain",
          "type": "bytes32"
        }
      ],
      "name": "__report",
      "type": "event"
    },
    {
      "anonymous": false,
      "inputs": [
        {
          "indexed": false,
          "name": "hid",
          "type": "uint256"
        },
        {
          "indexed": false,
          "name": "state",
          "type": "uint256"
        },
        {
          "indexed": false,
          "name": "offchain",
          "type": "bytes32"
        }
      ],
      "name": "__dispute",
      "type": "event"
    },
    {
      "anonymous": false,
      "inputs": [
        {
          "indexed": false,
          "name": "hid",
          "type": "uint256"
        },
        {
          "indexed": false,
          "name": "offchain",
          "type": "bytes32"
        }
      ],
      "name": "__resolve",
      "type": "event"
    },
    {
      "constant": true,
      "inputs": [
        {
          "name": "hid",
          "type": "uint256"
        },
        {
          "name": "user",
          "type": "address"
        },
        {
          "name": "side",
          "type": "uint256"
        }
      ],
      "name": "getOpenData",
      "outputs": [
        {
          "name": "",
          "type": "uint256"
        },
        {
          "name": "",
          "type": "uint256"
        }
      ],
      "payable": false,
      "stateMutability": "view",
      "type": "function"
    },
    {
      "constant": true,
      "inputs": [
        {
          "name": "hid",
          "type": "uint256"
        },
        {
          "name": "user",
          "type": "address"
        },
        {
          "name": "side",
          "type": "uint256"
        }
      ],
      "name": "getMatchedData",
      "outputs": [
        {
          "name": "",
          "type": "uint256"
        },
        {
          "name": "",
          "type": "uint256"
        }
      ],
      "payable": false,
      "stateMutability": "view",
      "type": "function"
    },
    {
      "constant": false,
      "inputs": [
        {
          "name": "tokenAddress",
          "type": "address"
        }
      ],
      "name": "approveNewToken",
      "outputs": [],
      "payable": false,
      "stateMutability": "nonpayable",
      "type": "function"
    },
    {
      "constant": false,
      "inputs": [
        {
          "name": "_tokenAddresses",
          "type": "address[]"
        }
      ],
      "name": "approveNewToken",
      "outputs": [],
      "payable": false,
      "stateMutability": "nonpayable",
      "type": "function"
    },
    {
      "constant": false,
      "inputs": [
        {
          "name": "fee",
          "type": "uint256"
        },
        {
          "name": "source",
          "type": "bytes32"
        },
        {
          "name": "tokenAddress",
          "type": "address"
        },
        {
          "name": "closingWindow",
          "type": "uint256"
        },
        {
          "name": "reportWindow",
          "type": "uint256"
        },
        {
          "name": "disputeWindow",
          "type": "uint256"
        },
        {
          "name": "offchain",
          "type": "bytes32"
        }
      ],
      "name": "createMarket",
      "outputs": [],
      "payable": false,
      "stateMutability": "nonpayable",
      "type": "function"
    },
    {
      "constant": false,
      "inputs": [
        {
          "name": "creator",
          "type": "address"
        },
        {
          "name": "fee",
          "type": "uint256"
        },
        {
          "name": "source",
          "type": "bytes32"
        },
        {
          "name": "tokenAddress",
          "type": "address"
        },
        {
          "name": "closingWindow",
          "type": "uint256"
        },
        {
          "name": "reportWindow",
          "type": "uint256"
        },
        {
          "name": "disputeWindow",
          "type": "uint256"
        },
        {
          "name": "offchain",
          "type": "bytes32"
        }
      ],
      "name": "createMarketForShurikenUser",
      "outputs": [],
      "payable": false,
      "stateMutability": "nonpayable",
      "type": "function"
    },
    {
      "constant": false,
      "inputs": [
        {
          "name": "hid",
          "type": "uint256"
        },
        {
          "name": "side",
          "type": "uint256"
        },
        {
          "name": "odds",
          "type": "uint256"
        },
        {
          "name": "amount",
          "type": "uint256"
        },
        {
          "name": "offchain",
          "type": "bytes32"
        }
      ],
      "name": "init",
      "outputs": [],
      "payable": false,
      "stateMutability": "nonpayable",
      "type": "function"
    },
    {
      "constant": false,
      "inputs": [
        {
          "name": "hid",
          "type": "uint256"
        },
        {
          "name": "side",
          "type": "uint256"
        },
        {
          "name": "stake",
          "type": "uint256"
        },
        {
          "name": "odds",
          "type": "uint256"
        },
        {
          "name": "offchain",
          "type": "bytes32"
        }
      ],
      "name": "uninit",
      "outputs": [],
      "payable": false,
      "stateMutability": "nonpayable",
      "type": "function"
    },
    {
      "constant": false,
      "inputs": [
        {
          "name": "hid",
          "type": "uint256"
        },
        {
          "name": "side",
          "type": "uint256"
        },
        {
          "name": "takerOdds",
          "type": "uint256"
        },
        {
          "name": "maker",
          "type": "address"
        },
        {
          "name": "makerOdds",
          "type": "uint256"
        },
        {
          "name": "amount",
          "type": "uint256"
        },
        {
          "name": "offchain",
          "type": "bytes32"
        }
      ],
      "name": "shake",
      "outputs": [],
      "payable": false,
      "stateMutability": "nonpayable",
      "type": "function"
    },
    {
      "constant": false,
      "inputs": [
        {
          "name": "hid",
          "type": "uint256"
        },
        {
          "name": "offchain",
          "type": "bytes32"
        }
      ],
      "name": "collect",
      "outputs": [],
      "payable": false,
      "stateMutability": "nonpayable",
      "type": "function"
    },
    {
      "constant": false,
      "inputs": [
        {
          "name": "hid",
          "type": "uint256"
        },
        {
          "name": "offchain",
          "type": "bytes32"
        }
      ],
      "name": "refund",
      "outputs": [],
      "payable": false,
      "stateMutability": "nonpayable",
      "type": "function"
    },
    {
      "constant": false,
      "inputs": [
        {
          "name": "hid",
          "type": "uint256"
        },
        {
          "name": "outcome",
          "type": "uint256"
        },
        {
          "name": "offchain",
          "type": "bytes32"
        }
      ],
      "name": "report",
      "outputs": [],
      "payable": false,
      "stateMutability": "nonpayable",
      "type": "function"
    },
    {
      "constant": false,
      "inputs": [
        {
          "name": "hid",
          "type": "uint256"
        },
        {
          "name": "offchain",
          "type": "bytes32"
        }
      ],
      "name": "dispute",
      "outputs": [],
      "payable": false,
      "stateMutability": "nonpayable",
      "type": "function"
    },
    {
      "constant": false,
      "inputs": [
        {
          "name": "hid",
          "type": "uint256"
        },
        {
          "name": "outcome",
          "type": "uint256"
        },
        {
          "name": "offchain",
          "type": "bytes32"
        }
      ],
      "name": "resolve",
      "outputs": [],
      "payable": false,
      "stateMutability": "nonpayable",
      "type": "function"
    }
  ],
  "bytecode": "0x608060405260146000556064600155600560025562278d0060035534801561002657600080fd5b506040516020806144858339810180604052810190808051906020019092919050505033600560006101000a81548173ffffffffffffffffffffffffffffffffffffffff021916908373ffffffffffffffffffffffffffffffffffffffff16021790555080600860006101000a81548173ffffffffffffffffffffffffffffffffffffffff021916908373ffffffffffffffffffffffffffffffffffffffff16021790555080600760006101000a81548173ffffffffffffffffffffffffffffffffffffffff021916908373ffffffffffffffffffffffffffffffffffffffff160217905550506143698061011c6000396000f30060806040526004361061011d576000357c0100000000000000000000000000000000000000000000000000000000900463ffffffff1680630eb7a276146101225780633afc30ab1461017b5780635542ac261461020257806370a2afe4146102a957806371eedb881461031b57806388fc65d6146103565780639be5c024146103995780639f43ba7d146103c4578063a420d8d91461042a578063a7d07c8214610483578063abb74f79146104c8578063b1283e771461054b578063b9e9c8b414610644578063bb4b57341461066f578063c26f06eb1461069a578063d2514e841461070c578063da676f2014610763578063de847ff8146107a8578063ebf0c717146107e3578063f3692c3e1461083a578063faf374a414610875575b600080fd5b34801561012e57600080fd5b506101796004803603810190808035906020019092919080359060200190929190803590602001909291908035906020019092919080356000191690602001909291905050506108a0565b005b34801561018757600080fd5b50610200600480360381019080803590602001909291908035600019169060200190929190803573ffffffffffffffffffffffffffffffffffffffff1690602001909291908035906020019092919080359060200190929190803590602001909291908035600019169060200190929190505050610c41565b005b34801561020e57600080fd5b506102a7600480360381019080803573ffffffffffffffffffffffffffffffffffffffff169060200190929190803590602001909291908035600019169060200190929190803573ffffffffffffffffffffffffffffffffffffffff1690602001909291908035906020019092919080359060200190929190803590602001909291908035600019169060200190929190505050610d66565b005b3480156102b557600080fd5b506102fe60048036038101908080359060200190929190803573ffffffffffffffffffffffffffffffffffffffff16906020019092919080359060200190929190505050610ee8565b604051808381526020018281526020019250505060405180910390f35b34801561032757600080fd5b50610354600480360381019080803590602001909291908035600019169060200190929190505050610fd5565b005b34801561036257600080fd5b50610397600480360381019080803573ffffffffffffffffffffffffffffffffffffffff16906020019092919050505061172b565b005b3480156103a557600080fd5b506103ae6119ba565b6040518082815260200191505060405180910390f35b3480156103d057600080fd5b50610428600480360381019080803590602001908201803590602001908080602002602001604051908101604052809392919081815260200183836020028082843782019150505050505091929192905050506119c0565b005b34801561043657600080fd5b50610481600480360381019080803590602001909291908035906020019092919080359060200190929190803590602001909291908035600019169060200190929190505050611c9b565b005b34801561048f57600080fd5b506104c6600480360381019080803590602001909291908035906020019092919080356000191690602001909291905050506122ea565b005b3480156104d457600080fd5b50610549600480360381019080803590602001909291908035906020019092919080359060200190929190803573ffffffffffffffffffffffffffffffffffffffff1690602001909291908035906020019092919080359060200190929190803560001916906020019092919050505061240a565b005b34801561055757600080fd5b5061057660048036038101908080359060200190929190505050612ba2565b604051808e73ffffffffffffffffffffffffffffffffffffffff1673ffffffffffffffffffffffffffffffffffffffff1681526020018d81526020018c600019166000191681526020018b81526020018a81526020018981526020018873ffffffffffffffffffffffffffffffffffffffff1673ffffffffffffffffffffffffffffffffffffffff168152602001878152602001868152602001858152602001848152602001838152602001821515151581526020019d505050505050505050505050505060405180910390f35b34801561065057600080fd5b50610659612c64565b6040518082815260200191505060405180910390f35b34801561067b57600080fd5b50610684612c6a565b6040518082815260200191505060405180910390f35b3480156106a657600080fd5b506106ef60048036038101908080359060200190929190803573ffffffffffffffffffffffffffffffffffffffff16906020019092919080359060200190929190505050612c70565b604051808381526020018281526020019250505060405180910390f35b34801561071857600080fd5b5061074d600480360381019080803573ffffffffffffffffffffffffffffffffffffffff169060200190929190505050612d5d565b6040518082815260200191505060405180910390f35b34801561076f57600080fd5b506107a660048036038101908080359060200190929190803590602001909291908035600019169060200190929190505050612d75565b005b3480156107b457600080fd5b506107e1600480360381019080803590602001909291908035600019169060200190929190505050612e7a565b005b3480156107ef57600080fd5b506107f86132d8565b604051808273ffffffffffffffffffffffffffffffffffffffff1673ffffffffffffffffffffffffffffffffffffffff16815260200191505060405180910390f35b34801561084657600080fd5b506108736004803603810190808035906020019092919080356000191690602001909291905050506132fe565b005b34801561088157600080fd5b5061088a613507565b6040518082815260200191505060405180910390f35b60006004868154811015156108b157fe5b906000526020600020906010020190508060030154421015156108d357600080fd5b600181600701541415156108e657600080fd5b600760009054906101000a900473ffffffffffffffffffffffffffffffffffffffff1673ffffffffffffffffffffffffffffffffffffffff16632c54de4f8260060160009054906101000a900473ffffffffffffffffffffffffffffffffffffffff163330876040518563ffffffff167c0100000000000000000000000000000000000000000000000000000000028152600401808573ffffffffffffffffffffffffffffffffffffffff1673ffffffffffffffffffffffffffffffffffffffff1681526020018473ffffffffffffffffffffffffffffffffffffffff1673ffffffffffffffffffffffffffffffffffffffff1681526020018373ffffffffffffffffffffffffffffffffffffffff1673ffffffffffffffffffffffffffffffffffffffff168152602001828152602001945050505050602060405180830381600087803b158015610a3757600080fd5b505af1158015610a4b573d6000803e3d6000fd5b505050506040513d6020811015610a6157600080fd5b81019080805190602001909291905050501515610a7d57600080fd5b8281600d0160003373ffffffffffffffffffffffffffffffffffffffff1673ffffffffffffffffffffffffffffffffffffffff1681526020019081526020016000206000878152602001908152602001600020600001600082825401925050819055508281600d0160003373ffffffffffffffffffffffffffffffffffffffff1673ffffffffffffffffffffffffffffffffffffffff16815260200190815260200160002060008781526020019081526020016000206002016000868152602001908152602001600020600082825401925050819055508281600901600082825401925050819055507f21c02be65fa434a2e6b80a50c93b2654e65a53835f1b04697e4b5c09175beb1386836040518083815260200182600019166000191681526020019250505060405180910390a17f72db17618faa0dcae9145af507e210a9234e6659a2f96e8bd184a05dfcdb78f081600d0160003373ffffffffffffffffffffffffffffffffffffffff1673ffffffffffffffffffffffffffffffffffffffff1681526020019081526020016000206000878152602001908152602001600020600001546040518082815260200191505060405180910390a1505050505050565b8460011515600760009054906101000a900473ffffffffffffffffffffffffffffffffffffffff1673ffffffffffffffffffffffffffffffffffffffff166361eeeb8c836040518263ffffffff167c0100000000000000000000000000000000000000000000000000000000028152600401808273ffffffffffffffffffffffffffffffffffffffff1673ffffffffffffffffffffffffffffffffffffffff168152602001915050602060405180830381600087803b158015610d0357600080fd5b505af1158015610d17573d6000803e3d6000fd5b505050506040513d6020811015610d2d57600080fd5b81019080805190602001909291905050501515141515610d4c57600080fd5b610d5c338989898989898961350d565b5050505050505050565b8460011515600760009054906101000a900473ffffffffffffffffffffffffffffffffffffffff1673ffffffffffffffffffffffffffffffffffffffff166361eeeb8c836040518263ffffffff167c0100000000000000000000000000000000000000000000000000000000028152600401808273ffffffffffffffffffffffffffffffffffffffff1673ffffffffffffffffffffffffffffffffffffffff168152602001915050602060405180830381600087803b158015610e2857600080fd5b505af1158015610e3c573d6000803e3d6000fd5b505050506040513d6020811015610e5257600080fd5b81019080805190602001909291905050501515141515610e7157600080fd5b600560009054906101000a900473ffffffffffffffffffffffffffffffffffffffff1673ffffffffffffffffffffffffffffffffffffffff163373ffffffffffffffffffffffffffffffffffffffff16141515610ecd57600080fd5b610edd898989898989898961350d565b505050505050505050565b600080600080600560009054906101000a900473ffffffffffffffffffffffffffffffffffffffff1673ffffffffffffffffffffffffffffffffffffffff163373ffffffffffffffffffffffffffffffffffffffff16141515610f4a57600080fd5b600487815481101515610f5957fe5b9060005260206000209060100201915081600e0160008773ffffffffffffffffffffffffffffffffffffffff1673ffffffffffffffffffffffffffffffffffffffff1681526020019081526020016000206000868152602001908152602001600020905080600001548160010154935093505050935093915050565b600080836000600482815481101515610fea57fe5b9060005260206000209060100201600e0160003373ffffffffffffffffffffffffffffffffffffffff1673ffffffffffffffffffffffffffffffffffffffff1681526020019081526020016000206000600181526020019081526020016000206000015411806110cc5750600060048281548110151561106657fe5b9060005260206000209060100201600e0160003373ffffffffffffffffffffffffffffffffffffffff1673ffffffffffffffffffffffffffffffffffffffff16815260200190815260200160002060006002815260200190815260200160002060000154115b80611149575060006004828154811015156110e357fe5b9060005260206000209060100201600d0160003373ffffffffffffffffffffffffffffffffffffffff1673ffffffffffffffffffffffffffffffffffffffff16815260200190815260200160002060006001815260200190815260200160002060000154115b806111c65750600060048281548110151561116057fe5b9060005260206000209060100201600d0160003373ffffffffffffffffffffffffffffffffffffffff1673ffffffffffffffffffffffffffffffffffffffff16815260200190815260200160002060006002815260200190815260200160002060000154115b15156111d157600080fd5b6004858154811015156111e057fe5b90600052602060002090601002019250600183600701541480611207575060038360080154145b151561121257600080fd5b82600401544211151561122457600080fd5b82600e0160003373ffffffffffffffffffffffffffffffffffffffff1673ffffffffffffffffffffffffffffffffffffffff168152602001908152602001600020600060018152602001908152602001600020600001548201915082600e0160003373ffffffffffffffffffffffffffffffffffffffff1673ffffffffffffffffffffffffffffffffffffffff168152602001908152602001600020600060028152602001908152602001600020600001548201915082600d0160003373ffffffffffffffffffffffffffffffffffffffff1673ffffffffffffffffffffffffffffffffffffffff168152602001908152602001600020600060018152602001908152602001600020600001548201915082600d0160003373ffffffffffffffffffffffffffffffffffffffff1673ffffffffffffffffffffffffffffffffffffffff168152602001908152602001600020600060028152602001908152602001600020600001548201915060008211151561139f57600080fd5b600083600e0160003373ffffffffffffffffffffffffffffffffffffffff1673ffffffffffffffffffffffffffffffffffffffff16815260200190815260200160002060006001815260200190815260200160002060000181905550600083600e0160003373ffffffffffffffffffffffffffffffffffffffff1673ffffffffffffffffffffffffffffffffffffffff16815260200190815260200160002060006002815260200190815260200160002060000181905550600083600d0160003373ffffffffffffffffffffffffffffffffffffffff1673ffffffffffffffffffffffffffffffffffffffff16815260200190815260200160002060006001815260200190815260200160002060000181905550600083600d0160003373ffffffffffffffffffffffffffffffffffffffff1673ffffffffffffffffffffffffffffffffffffffff16815260200190815260200160002060006002815260200190815260200160002060000181905550600760009054906101000a900473ffffffffffffffffffffffffffffffffffffffff1673ffffffffffffffffffffffffffffffffffffffff16632c54de4f8460060160009054906101000a900473ffffffffffffffffffffffffffffffffffffffff163033866040518563ffffffff167c0100000000000000000000000000000000000000000000000000000000028152600401808573ffffffffffffffffffffffffffffffffffffffff1673ffffffffffffffffffffffffffffffffffffffff1681526020018473ffffffffffffffffffffffffffffffffffffffff1673ffffffffffffffffffffffffffffffffffffffff1681526020018373ffffffffffffffffffffffffffffffffffffffff1673ffffffffffffffffffffffffffffffffffffffff168152602001828152602001945050505050602060405180830381600087803b15801561166057600080fd5b505af1158015611674573d6000803e3d6000fd5b505050506040513d602081101561168a57600080fd5b810190808051906020019092919050505015156116a657600080fd5b7f6fe9fe9590d9b235fcb84468bf92bf905ca3795c7c284fa06eec9b10776ea4b485856040518083815260200182600019166000191681526020019250505060405180910390a17fe518c6999b8fc54688a71bb20779df78e259f03f0118b6e5c13099dd3dd4ebf4826040518082815260200191505060405180910390a15050505050565b600560009054906101000a900473ffffffffffffffffffffffffffffffffffffffff1673ffffffffffffffffffffffffffffffffffffffff163373ffffffffffffffffffffffffffffffffffffffff1614151561178757600080fd5b60011515600760009054906101000a900473ffffffffffffffffffffffffffffffffffffffff1673ffffffffffffffffffffffffffffffffffffffff166361eeeb8c836040518263ffffffff167c0100000000000000000000000000000000000000000000000000000000028152600401808273ffffffffffffffffffffffffffffffffffffffff1673ffffffffffffffffffffffffffffffffffffffff168152602001915050602060405180830381600087803b15801561184857600080fd5b505af115801561185c573d6000803e3d6000fd5b505050506040513d602081101561187257600080fd5b8101908080519060200190929190505050151514156119b7578073ffffffffffffffffffffffffffffffffffffffff1663095ea7b3600860009054906101000a900473ffffffffffffffffffffffffffffffffffffffff167fffffffffffffffffffffffffffffffffffffffffffffffffffffffffffffffff6040518363ffffffff167c0100000000000000000000000000000000000000000000000000000000028152600401808373ffffffffffffffffffffffffffffffffffffffff1673ffffffffffffffffffffffffffffffffffffffff16815260200182815260200192505050602060405180830381600087803b15801561197057600080fd5b505af1158015611984573d6000803e3d6000fd5b505050506040513d602081101561199a57600080fd5b810190808051906020019092919050505015156119b657600080fd5b5b50565b60005481565b6000600560009054906101000a900473ffffffffffffffffffffffffffffffffffffffff1673ffffffffffffffffffffffffffffffffffffffff163373ffffffffffffffffffffffffffffffffffffffff16141515611a1e57600080fd5b600090505b8151811015611c975760011515600760009054906101000a900473ffffffffffffffffffffffffffffffffffffffff1673ffffffffffffffffffffffffffffffffffffffff166361eeeb8c8484815181101515611a7c57fe5b906020019060200201516040518263ffffffff167c0100000000000000000000000000000000000000000000000000000000028152600401808273ffffffffffffffffffffffffffffffffffffffff1673ffffffffffffffffffffffffffffffffffffffff168152602001915050602060405180830381600087803b158015611b0457600080fd5b505af1158015611b18573d6000803e3d6000fd5b505050506040513d6020811015611b2e57600080fd5b810190808051906020019092919050505015151415611c8a578181815181101515611b5557fe5b9060200190602002015173ffffffffffffffffffffffffffffffffffffffff1663095ea7b3600860009054906101000a900473ffffffffffffffffffffffffffffffffffffffff167fffffffffffffffffffffffffffffffffffffffffffffffffffffffffffffffff6040518363ffffffff167c0100000000000000000000000000000000000000000000000000000000028152600401808373ffffffffffffffffffffffffffffffffffffffff1673ffffffffffffffffffffffffffffffffffffffff16815260200182815260200192505050602060405180830381600087803b158015611c4357600080fd5b505af1158015611c57573d6000803e3d6000fd5b505050506040513d6020811015611c6d57600080fd5b81019080805190602001909291905050501515611c8957600080fd5b5b8080600101915050611a23565b5050565b6000856000600482815481101515611caf57fe5b9060005260206000209060100201600e0160003373ffffffffffffffffffffffffffffffffffffffff1673ffffffffffffffffffffffffffffffffffffffff168152602001908152602001600020600060018152602001908152602001600020600001541180611d9157506000600482815481101515611d2b57fe5b9060005260206000209060100201600e0160003373ffffffffffffffffffffffffffffffffffffffff1673ffffffffffffffffffffffffffffffffffffffff16815260200190815260200160002060006002815260200190815260200160002060000154115b80611e0e57506000600482815481101515611da857fe5b9060005260206000209060100201600d0160003373ffffffffffffffffffffffffffffffffffffffff1673ffffffffffffffffffffffffffffffffffffffff16815260200190815260200160002060006001815260200190815260200160002060000154115b80611e8b57506000600482815481101515611e2557fe5b9060005260206000209060100201600d0160003373ffffffffffffffffffffffffffffffffffffffff1673ffffffffffffffffffffffffffffffffffffffff16815260200190815260200160002060006002815260200190815260200160002060000154115b1515611e9657600080fd5b600487815481101515611ea557fe5b906000526020600020906010020191508482600d0160003373ffffffffffffffffffffffffffffffffffffffff1673ffffffffffffffffffffffffffffffffffffffff16815260200190815260200160002060008881526020019081526020016000206000015410151515611f1957600080fd5b8482600d0160003373ffffffffffffffffffffffffffffffffffffffff1673ffffffffffffffffffffffffffffffffffffffff168152602001908152602001600020600088815260200190815260200160002060020160008681526020019081526020016000205410151515611f8e57600080fd5b600760009054906101000a900473ffffffffffffffffffffffffffffffffffffffff1673ffffffffffffffffffffffffffffffffffffffff16632c54de4f8360060160009054906101000a900473ffffffffffffffffffffffffffffffffffffffff163033896040518563ffffffff167c0100000000000000000000000000000000000000000000000000000000028152600401808573ffffffffffffffffffffffffffffffffffffffff1673ffffffffffffffffffffffffffffffffffffffff1681526020018473ffffffffffffffffffffffffffffffffffffffff1673ffffffffffffffffffffffffffffffffffffffff1681526020018373ffffffffffffffffffffffffffffffffffffffff1673ffffffffffffffffffffffffffffffffffffffff168152602001828152602001945050505050602060405180830381600087803b1580156120df57600080fd5b505af11580156120f3573d6000803e3d6000fd5b505050506040513d602081101561210957600080fd5b8101908080519060200190929190505050151561212557600080fd5b8482600d0160003373ffffffffffffffffffffffffffffffffffffffff1673ffffffffffffffffffffffffffffffffffffffff1681526020019081526020016000206000888152602001908152602001600020600001600082825403925050819055508482600d0160003373ffffffffffffffffffffffffffffffffffffffff1673ffffffffffffffffffffffffffffffffffffffff16815260200190815260200160002060008881526020019081526020016000206002016000868152602001908152602001600020600082825403925050819055508482600901600082825403925050819055507fab0e14e0a016fa8a0d17ecf0051bf0b27117e332369e6660521a8969574c272d87846040518083815260200182600019166000191681526020019250505060405180910390a17f30f13748a6589be9202bec03bb7695d7130248949254c600de71e04ad970633c82600d0160003373ffffffffffffffffffffffffffffffffffffffff1673ffffffffffffffffffffffffffffffffffffffff1681526020019081526020016000206000888152602001908152602001600020600001546040518082815260200191505060405180910390a150505050505050565b6000600560009054906101000a900473ffffffffffffffffffffffffffffffffffffffff1673ffffffffffffffffffffffffffffffffffffffff163373ffffffffffffffffffffffffffffffffffffffff1614151561234857600080fd5b60048481548110151561235757fe5b906000526020600020906010020190506003816007015414151561237a57600080fd5b600181600c0160006101000a81548160ff021916908315150217905550828160080181905550600083146123af5760026123b2565b60015b60ff1681600701819055507f43db73c3d115ee5896bed665630bc1f24065e21274b5dbc4acc4a84bb682d58a84836040518083815260200182600019166000191681526020019250505060405180910390a150505050565b60008060008060008060008a73ffffffffffffffffffffffffffffffffffffffff161415151561243957600080fd5b6001548b1015151561244a57600080fd5b600154891015151561245b57600080fd5b60048d81548110151561246a57fe5b906000526020600020906010020195506001866007015414151561248d57600080fd5b85600301544210151561249f57600080fd5b8b6003039450600760009054906101000a900473ffffffffffffffffffffffffffffffffffffffff1673ffffffffffffffffffffffffffffffffffffffff16632c54de4f8760060160009054906101000a900473ffffffffffffffffffffffffffffffffffffffff1633308c6040518563ffffffff167c0100000000000000000000000000000000000000000000000000000000028152600401808573ffffffffffffffffffffffffffffffffffffffff1673ffffffffffffffffffffffffffffffffffffffff1681526020018473ffffffffffffffffffffffffffffffffffffffff1673ffffffffffffffffffffffffffffffffffffffff1681526020018373ffffffffffffffffffffffffffffffffffffffff1673ffffffffffffffffffffffffffffffffffffffff168152602001828152602001945050505050602060405180830381600087803b1580156125f657600080fd5b505af115801561260a573d6000803e3d6000fd5b505050506040513d602081101561262057600080fd5b8101908080519060200190929190505050151561263c57600080fd5b87935085600d0160008b73ffffffffffffffffffffffffffffffffffffffff1673ffffffffffffffffffffffffffffffffffffffff16815260200190815260200160002060008681526020019081526020016000206000015492506001548b85028115156126a657fe5b0491506001548984028115156126b857fe5b049050808210156126d05783820392508190506126d9565b82810393508091505b6001548b0389026001548c02101515156126f257600080fd5b8286600d0160008c73ffffffffffffffffffffffffffffffffffffffff1673ffffffffffffffffffffffffffffffffffffffff168152602001908152602001600020600087815260200190815260200160002060020160008b8152602001908152602001600020541015151561276757600080fd5b8286600d0160008c73ffffffffffffffffffffffffffffffffffffffff1673ffffffffffffffffffffffffffffffffffffffff168152602001908152602001600020600087815260200190815260200160002060000154101515156127cb57600080fd5b8286600d0160008c73ffffffffffffffffffffffffffffffffffffffff1673ffffffffffffffffffffffffffffffffffffffff168152602001908152602001600020600087815260200190815260200160002060020160008b8152602001908152602001600020600082825403925050819055508286600d0160008c73ffffffffffffffffffffffffffffffffffffffff1673ffffffffffffffffffffffffffffffffffffffff1681526020019081526020016000206000878152602001908152602001600020600001600082825403925050819055508286600901600082825403925050819055508286600e0160008c73ffffffffffffffffffffffffffffffffffffffff1673ffffffffffffffffffffffffffffffffffffffff168152602001908152602001600020600087815260200190815260200160002060020160008b8152602001908152602001600020600082825401925050819055508286600e0160008c73ffffffffffffffffffffffffffffffffffffffff1673ffffffffffffffffffffffffffffffffffffffff1681526020019081526020016000206000878152602001908152602001600020600001600082825401925050819055508086600e0160008c73ffffffffffffffffffffffffffffffffffffffff1673ffffffffffffffffffffffffffffffffffffffff1681526020019081526020016000206000878152602001908152602001600020600101600082825401925050819055508286600a01600082825401925050819055508386600e0160003373ffffffffffffffffffffffffffffffffffffffff1673ffffffffffffffffffffffffffffffffffffffff16815260200190815260200160002060008e815260200190815260200160002060020160008d8152602001908152602001600020600082825401925050819055508386600e0160003373ffffffffffffffffffffffffffffffffffffffff1673ffffffffffffffffffffffffffffffffffffffff16815260200190815260200160002060008e8152602001908152602001600020600001600082825401925050819055508186600e0160003373ffffffffffffffffffffffffffffffffffffffff1673ffffffffffffffffffffffffffffffffffffffff16815260200190815260200160002060008e8152602001908152602001600020600101600082825401925050819055508386600a01600082825401925050819055507f6a5ee55c9df2daa4375d2b5e4ec8b9e5662f1863207bcbe6e38c6f5fe3c243008d886040518083815260200182600019166000191681526020019250505060405180910390a150505050505050505050505050565b600481815481101515612bb157fe5b90600052602060002090601002016000915090508060000160009054906101000a900473ffffffffffffffffffffffffffffffffffffffff16908060010154908060020154908060030154908060040154908060050154908060060160009054906101000a900473ffffffffffffffffffffffffffffffffffffffff169080600701549080600801549080600901549080600a01549080600b01549080600c0160009054906101000a900460ff1690508d565b60025481565b60035481565b600080600080600560009054906101000a900473ffffffffffffffffffffffffffffffffffffffff1673ffffffffffffffffffffffffffffffffffffffff163373ffffffffffffffffffffffffffffffffffffffff16141515612cd257600080fd5b600487815481101515612ce157fe5b9060005260206000209060100201915081600d0160008773ffffffffffffffffffffffffffffffffffffffff1673ffffffffffffffffffffffffffffffffffffffff1681526020019081526020016000206000868152602001908152602001600020905080600001548160010154935093505050935093915050565b60066020528060005260406000206000915090505481565b6000600484815481101515612d8657fe5b9060005260206000209060100201905080600401544211151515612da957600080fd5b8060000160009054906101000a900473ffffffffffffffffffffffffffffffffffffffff1673ffffffffffffffffffffffffffffffffffffffff163373ffffffffffffffffffffffffffffffffffffffff16141515612e0757600080fd5b60018160070154141515612e1a57600080fd5b828160080181905550600281600701819055507f71c8b3ac7d9125fc562f0e493b93c79c2f22d445820a039344e6732d22871d3c84836040518083815260200182600019166000191681526020019250505060405180910390a150505050565b6000826000600482815481101515612e8e57fe5b9060005260206000209060100201600e0160003373ffffffffffffffffffffffffffffffffffffffff1673ffffffffffffffffffffffffffffffffffffffff168152602001908152602001600020600060018152602001908152602001600020600001541180612f7057506000600482815481101515612f0a57fe5b9060005260206000209060100201600e0160003373ffffffffffffffffffffffffffffffffffffffff1673ffffffffffffffffffffffffffffffffffffffff16815260200190815260200160002060006002815260200190815260200160002060000154115b80612fed57506000600482815481101515612f8757fe5b9060005260206000209060100201600d0160003373ffffffffffffffffffffffffffffffffffffffff1673ffffffffffffffffffffffffffffffffffffffff16815260200190815260200160002060006001815260200190815260200160002060000154115b8061306a5750600060048281548110151561300457fe5b9060005260206000209060100201600d0160003373ffffffffffffffffffffffffffffffffffffffff1673ffffffffffffffffffffffffffffffffffffffff16815260200190815260200160002060006002815260200190815260200160002060000154115b151561307557600080fd5b60048481548110151561308457fe5b90600052602060002090601002019150816005015442111515156130a757600080fd5b600282600701541415156130ba57600080fd5b81600c0160009054906101000a900460ff161515156130d857600080fd5b81600f0160003373ffffffffffffffffffffffffffffffffffffffff1673ffffffffffffffffffffffffffffffffffffffff16815260200190815260200160002060009054906101000a900460ff1615151561313357600080fd5b600182600f0160003373ffffffffffffffffffffffffffffffffffffffff1673ffffffffffffffffffffffffffffffffffffffff16815260200190815260200160002060006101000a81548160ff02191690831515021790555081600e0160003373ffffffffffffffffffffffffffffffffffffffff1673ffffffffffffffffffffffffffffffffffffffff1681526020019081526020016000206000600181526020019081526020016000206000015482600b016000828254019250508190555081600e0160003373ffffffffffffffffffffffffffffffffffffffff1673ffffffffffffffffffffffffffffffffffffffff1681526020019081526020016000206000600281526020019081526020016000206000015482600b016000828254019250508190555081600a01546002540282600b0154606402111561327f57600382600701819055505b7f71c5e2f984c07a51200c1ec481c3baba8e6e0bfd88fc393921c30d3f10bad4fc84836007015485604051808481526020018381526020018260001916600019168152602001935050505060405180910390a150505050565b600560009054906101000a900473ffffffffffffffffffffffffffffffffffffffff1681565b81600060048281548110151561331057fe5b9060005260206000209060100201600e0160003373ffffffffffffffffffffffffffffffffffffffff1673ffffffffffffffffffffffffffffffffffffffff1681526020019081526020016000206000600181526020019081526020016000206000015411806133f25750600060048281548110151561338c57fe5b9060005260206000209060100201600e0160003373ffffffffffffffffffffffffffffffffffffffff1673ffffffffffffffffffffffffffffffffffffffff16815260200190815260200160002060006002815260200190815260200160002060000154115b8061346f5750600060048281548110151561340957fe5b9060005260206000209060100201600d0160003373ffffffffffffffffffffffffffffffffffffffff1673ffffffffffffffffffffffffffffffffffffffff16815260200190815260200160002060006001815260200190815260200160002060000154115b806134ec5750600060048281548110151561348657fe5b9060005260206000209060100201600d0160003373ffffffffffffffffffffffffffffffffffffffff1673ffffffffffffffffffffffffffffffffffffffff16815260200190815260200160002060006002815260200190815260200160002060000154115b15156134f757600080fd5b61350283338461378b565b505050565b60015481565b6135156142a3565b88816000019073ffffffffffffffffffffffffffffffffffffffff16908173ffffffffffffffffffffffffffffffffffffffff1681525050878160200181815250508681604001906000191690816000191681525050858160c0019073ffffffffffffffffffffffffffffffffffffffff16908173ffffffffffffffffffffffffffffffffffffffff168152505060018502420181606001818152505060018402816060015101816080018181525050600183028160800151018160a001818152505060018160e00181815250506004819080600181540180825580915050906001820390600052602060002090601002016000909192909190915060008201518160000160006101000a81548173ffffffffffffffffffffffffffffffffffffffff021916908373ffffffffffffffffffffffffffffffffffffffff1602179055506020820151816001015560408201518160020190600019169055606082015181600301556080820151816004015560a0820151816005015560c08201518160060160006101000a81548173ffffffffffffffffffffffffffffffffffffffff021916908373ffffffffffffffffffffffffffffffffffffffff16021790555060e082015181600701556101008201518160080155610120820151816009015561014082015181600a015561016082015181600b015561018082015181600c0160006101000a81548160ff0219169083151502179055505050507f6ca4bad73e644d473be8bf4f88e57b9c92f4aae31d45b3a7f90cd9438343b641600160048054905003836040518083815260200182600019166000191681526020019250505060405180910390a1505050505050505050565b6000806000806004878154811015156137a057fe5b90600052602060002090601002019350600284600701541415156137c357600080fd5b8360050154421115156137d557600080fd5b6064846001015485600e0160008973ffffffffffffffffffffffffffffffffffffffff1673ffffffffffffffffffffffffffffffffffffffff168152602001908152602001600020600087600801548152602001908152602001600020600101540281151561384057fe5b0492506064600054840281151561385357fe5b04915083600e0160008773ffffffffffffffffffffffffffffffffffffffff1673ffffffffffffffffffffffffffffffffffffffff16815260200190815260200160002060008560080154815260200190815260200160002060010154905083600d0160008773ffffffffffffffffffffffffffffffffffffffff1673ffffffffffffffffffffffffffffffffffffffff168152602001908152602001600020600060018152602001908152602001600020600001548101905083600d0160008773ffffffffffffffffffffffffffffffffffffffff1673ffffffffffffffffffffffffffffffffffffffff1681526020019081526020016000206000600281526020019081526020016000206000015481019050600083820311151561397957600080fd5b600082840311151561398a57600080fd5b83600d0160008773ffffffffffffffffffffffffffffffffffffffff1673ffffffffffffffffffffffffffffffffffffffff16815260200190815260200160002060006001815260200190815260200160002060000154846009016000828254039250508190555083600d0160008773ffffffffffffffffffffffffffffffffffffffff1673ffffffffffffffffffffffffffffffffffffffff16815260200190815260200160002060006002815260200190815260200160002060000154846009016000828254039250508190555083600e0160008773ffffffffffffffffffffffffffffffffffffffff1673ffffffffffffffffffffffffffffffffffffffff1681526020019081526020016000206000600181526020019081526020016000206000015484600a016000828254039250508190555083600e0160008773ffffffffffffffffffffffffffffffffffffffff1673ffffffffffffffffffffffffffffffffffffffff1681526020019081526020016000206000600281526020019081526020016000206000015484600a0160008282540392505081905550600084600d0160008873ffffffffffffffffffffffffffffffffffffffff1673ffffffffffffffffffffffffffffffffffffffff16815260200190815260200160002060006001815260200190815260200160002060000181905550600084600d0160008873ffffffffffffffffffffffffffffffffffffffff1673ffffffffffffffffffffffffffffffffffffffff16815260200190815260200160002060006002815260200190815260200160002060000181905550600084600e0160008873ffffffffffffffffffffffffffffffffffffffff1673ffffffffffffffffffffffffffffffffffffffff16815260200190815260200160002060006001815260200190815260200160002060000181905550600084600e0160008873ffffffffffffffffffffffffffffffffffffffff1673ffffffffffffffffffffffffffffffffffffffff16815260200190815260200160002060006002815260200190815260200160002060000181905550600084600e0160008873ffffffffffffffffffffffffffffffffffffffff1673ffffffffffffffffffffffffffffffffffffffff16815260200190815260200160002060008660080154815260200190815260200160002060010181905550600760009054906101000a900473ffffffffffffffffffffffffffffffffffffffff1673ffffffffffffffffffffffffffffffffffffffff16632c54de4f8560060160009054906101000a900473ffffffffffffffffffffffffffffffffffffffff1630898786036040518563ffffffff167c0100000000000000000000000000000000000000000000000000000000028152600401808573ffffffffffffffffffffffffffffffffffffffff1673ffffffffffffffffffffffffffffffffffffffff1681526020018473ffffffffffffffffffffffffffffffffffffffff1673ffffffffffffffffffffffffffffffffffffffff1681526020018373ffffffffffffffffffffffffffffffffffffffff1673ffffffffffffffffffffffffffffffffffffffff168152602001828152602001945050505050602060405180830381600087803b158015613e4c57600080fd5b505af1158015613e60573d6000803e3d6000fd5b505050506040513d6020811015613e7657600080fd5b81019080805190602001909291905050501515613e9257600080fd5b600760009054906101000a900473ffffffffffffffffffffffffffffffffffffffff1673ffffffffffffffffffffffffffffffffffffffff16632c54de4f8560060160009054906101000a900473ffffffffffffffffffffffffffffffffffffffff16308760000160009054906101000a900473ffffffffffffffffffffffffffffffffffffffff168688036040518563ffffffff167c0100000000000000000000000000000000000000000000000000000000028152600401808573ffffffffffffffffffffffffffffffffffffffff1673ffffffffffffffffffffffffffffffffffffffff1681526020018473ffffffffffffffffffffffffffffffffffffffff1673ffffffffffffffffffffffffffffffffffffffff1681526020018373ffffffffffffffffffffffffffffffffffffffff1673ffffffffffffffffffffffffffffffffffffffff168152602001828152602001945050505050602060405180830381600087803b15801561400957600080fd5b505af115801561401d573d6000803e3d6000fd5b505050506040513d602081101561403357600080fd5b8101908080519060200190929190505050151561404f57600080fd5b600760009054906101000a900473ffffffffffffffffffffffffffffffffffffffff1673ffffffffffffffffffffffffffffffffffffffff16632c54de4f8560060160009054906101000a900473ffffffffffffffffffffffffffffffffffffffff1630600560009054906101000a900473ffffffffffffffffffffffffffffffffffffffff16866040518563ffffffff167c0100000000000000000000000000000000000000000000000000000000028152600401808573ffffffffffffffffffffffffffffffffffffffff1673ffffffffffffffffffffffffffffffffffffffff1681526020018473ffffffffffffffffffffffffffffffffffffffff1673ffffffffffffffffffffffffffffffffffffffff1681526020018373ffffffffffffffffffffffffffffffffffffffff1673ffffffffffffffffffffffffffffffffffffffff168152602001828152602001945050505050602060405180830381600087803b1580156141c257600080fd5b505af11580156141d6573d6000803e3d6000fd5b505050506040513d60208110156141ec57600080fd5b8101908080519060200190929190505050151561420857600080fd5b7f524cfe0d33d142e24b3c16c7f11234b23eae5fe14f95d328f3991837dc56d31487866040518083815260200182600019166000191681526020019250505060405180910390a17f8de0c4178df0ca7d776c505c09fe7699d34fb83545c4b23c03fc2e87461604888283850385840360405180848152602001838152602001828152602001935050505060405180910390a150505050505050565b6101a060405190810160405280600073ffffffffffffffffffffffffffffffffffffffff1681526020016000815260200160008019168152602001600081526020016000815260200160008152602001600073ffffffffffffffffffffffffffffffffffffffff168152602001600081526020016000815260200160008152602001600081526020016000815260200160001515815250905600a165627a7a72305820c797a135ac57a876495ff6589cc7c10d265a3d6d25d5f3dd4a7a5a43a7b3ccd10029",
  "source": "/*\n*\n* PredictionExchange is an exchange contract that doesn't accept bets on the outcomes,\n* but instead matchedes backers/takers (those betting on odds) with layers/makers \n* (those offering the odds).\n*\n* Note:\n*\n*       side: 0 (unknown), 1 (support), 2 (against), 3 (draw)\n*       role: 0 (unknown), 1 (maker), 2 (taker)\n*       state: 0 (unknown), 1 (created), 2 (reported), 3 (disputed)\n*       __test__* events will be removed prior to production deployment\n*       odds are rounded up (2.25 is 225)\n*\n*/\n\npragma solidity ^0.4.24;\n\nimport \"./TokenRegistry.sol\";\n\ncontract PredictionHandshakeWithToken {\n    struct Market {\n        address creator;\n        uint fee; \n        bytes32 source;\n        uint closingTime; \n        uint reportTime; \n        uint disputeTime;\n        \n        address token;\n\n        uint state;\n        uint outcome;\n\n        uint totalOpenStake;\n        uint totalMatchedStake;\n        uint disputeMatchedStake;\n        bool resolved;\n\n        mapping(address => mapping(uint => Order)) open; // address => side => order\n        mapping(address => mapping(uint => Order)) matched; // address => side => order\n        mapping(address => bool) disputed;\n    }\n\n    function getOpenData(uint hid, address user, uint side) public onlyRoot view returns(uint, uint)  {\n        Market storage m = markets[hid];\n        Order storage o = m.open[user][side];\n        return (o.stake, o.payout);\n    }\n\n    function getMatchedData(uint hid, address user, uint side) public onlyRoot view returns(uint, uint)  {\n        Market storage m = markets[hid];\n        Order storage o = m.matched[user][side];\n        return (o.stake, o.payout);\n    }\n\n    struct Order {\n        uint stake;\n        uint payout;\n        mapping(uint => uint) odds; // odds => pool size\n    }\n\n    uint public NETWORK_FEE = 20; // 20%\n    uint public ODDS_1 = 100; // 1.00 is 100; 2.25 is 225 \n    uint public DISPUTE_THRESHOLD = 5; // 5%\n    uint public EXPIRATION = 30 days; \n\n    Market[] public markets;\n    address public root;\n    mapping(address => uint) public total;\n    \n    // token management\n    TokenRegistry tokenRegistry;\n    address tokenRegistryAddress;\n\n    constructor(address _tokenRegistryAddress) public {\n        root = msg.sender;\n        tokenRegistryAddress = _tokenRegistryAddress;\n        tokenRegistry = TokenRegistry(_tokenRegistryAddress);\n    } \n\n    modifier tokenExisted(address _tokenAddr) {\n        require(tokenRegistry.tokenIsExisted(_tokenAddr) == true);\n        _;\n    }\n\n    // grant permission for this contract to send ERC20 token\n    function approveNewToken(address[] _tokenAddresses) public onlyRoot {\n        for(uint i = 0; i < _tokenAddresses.length; i++) {\n            if (tokenRegistry.tokenIsExisted(_tokenAddresses[i]) == true) {\n                require(\n                    Token(_tokenAddresses[i]).approve(tokenRegistryAddress, 2**256-1)\n                );\n            } \n        }\n    }\n\n    function approveNewToken(address tokenAddress) public onlyRoot {\n        if (tokenRegistry.tokenIsExisted(tokenAddress) == true) {\n            require(\n                Token(tokenAddress).approve(tokenRegistryAddress, 2**256-1)\n            );\n        } \n    }\n\n    event __createMarket(uint hid, bytes32 offchain); \n\n    function createMarket(\n        uint fee, \n        bytes32 source,\n        address tokenAddress,\n        uint closingWindow, \n        uint reportWindow, \n        uint disputeWindow,\n        bytes32 offchain\n    ) \n        public \n        tokenExisted(tokenAddress)\n    {\n        _createMarket(msg.sender, fee, source, tokenAddress, closingWindow, reportWindow, disputeWindow, offchain);\n    }\n\n\n    function createMarketForShurikenUser(\n        address creator,\n        uint fee, \n        bytes32 source,\n        address tokenAddress,\n        uint closingWindow, \n        uint reportWindow, \n        uint disputeWindow,\n        bytes32 offchain\n    ) \n        public \n        tokenExisted(tokenAddress)\n        onlyRoot\n    {\n        _createMarket(creator, fee, source, tokenAddress, closingWindow, reportWindow, disputeWindow, offchain);\n    }\n\n\n    function _createMarket(\n        address creator,\n        uint fee, \n        bytes32 source,\n        address tokenAddress,\n        uint closingWindow, \n        uint reportWindow, \n        uint disputeWindow,\n        bytes32 offchain\n    ) \n        private \n    {\n        Market memory m;\n        m.creator = creator;\n        m.fee = fee;\n        m.source = source;\n        m.token = tokenAddress;\n        m.closingTime = now + closingWindow * 1 seconds;\n        m.reportTime = m.closingTime + reportWindow * 1 seconds;\n        m.disputeTime = m.reportTime + disputeWindow * 1 seconds;\n        m.state = 1;\n        markets.push(m);\n\n        emit __createMarket(markets.length - 1, offchain);\n    }\n\n\n    event __init(uint hid, bytes32 offchain);\n    event __test__init(uint stake);\n\n    // market maker\n    function init(\n        uint hid, \n        uint side, \n        uint odds, \n        uint amount,\n        bytes32 offchain\n    ) \n        public \n    {\n        Market storage m = markets[hid];\n\n        require(now < m.closingTime);\n        require(m.state == 1);\n        require(tokenRegistry.transferToken(m.token, msg.sender, address(this), amount));\n\n        m.open[msg.sender][side].stake += amount;\n        m.open[msg.sender][side].odds[odds] += amount;\n        m.totalOpenStake += amount;\n\n        emit __init(hid, offchain);\n        emit __test__init(m.open[msg.sender][side].stake);\n    }\n    \n    \n    event __uninit(uint hid, bytes32 offchain);\n    event __test__uninit(uint stake);\n\n    // market maker cancels order\n    function uninit(\n        uint hid, \n        uint side, \n        uint stake, \n        uint odds, \n        bytes32 offchain\n    ) \n        public \n        onlyPredictor(hid) \n    {\n        Market storage m = markets[hid];\n\n        require(m.open[msg.sender][side].stake >= stake);\n        require(m.open[msg.sender][side].odds[odds] >= stake);\n        require(tokenRegistry.transferToken(m.token, address(this), msg.sender, stake));\n\n        m.open[msg.sender][side].stake -= stake;\n        m.open[msg.sender][side].odds[odds] -= stake;\n        m.totalOpenStake -= stake;\n\n        emit __uninit(hid, offchain);\n        emit __test__uninit(m.open[msg.sender][side].stake);\n    }\n\n    event __shake(uint hid, bytes32 offchain);\n\n    // market taker\n    function shake(\n        uint hid, \n        uint side, \n        uint takerOdds, \n        address maker, \n        uint makerOdds, \n        uint amount,\n        bytes32 offchain\n    ) \n        public \n    {\n        require(maker != 0);\n        require(takerOdds >= ODDS_1);\n        require(makerOdds >= ODDS_1);\n\n        Market storage m = markets[hid];\n\n        require(m.state == 1);\n        require(now < m.closingTime);\n\n        uint makerSide = 3 - side;\n\n        require(tokenRegistry.transferToken(m.token, msg.sender, address(this), amount));\n        uint takerStake = amount;\n        uint makerStake = m.open[maker][makerSide].stake;\n\n        uint takerPayout = (takerStake * takerOdds) / ODDS_1;\n        uint makerPayout = (makerStake * makerOdds) / ODDS_1;\n\n        if (takerPayout < makerPayout) {\n            makerStake = takerPayout - takerStake;\n            makerPayout = takerPayout;\n        } else {\n            takerStake = makerPayout - makerStake;\n            takerPayout = makerPayout;\n        }\n\n        // check if the odds matching is valid\n        require(takerOdds * ODDS_1 >= makerOdds * (takerOdds - ODDS_1));\n\n        // check if the stake is sufficient\n        require(m.open[maker][makerSide].odds[makerOdds] >= makerStake);\n        require(m.open[maker][makerSide].stake >= makerStake);\n\n        // remove maker's order from open (could be partial)\n        m.open[maker][makerSide].odds[makerOdds] -= makerStake;\n        m.open[maker][makerSide].stake -= makerStake;\n        m.totalOpenStake -=  makerStake;\n\n        // add maker's order to matched\n        m.matched[maker][makerSide].odds[makerOdds] += makerStake;\n        m.matched[maker][makerSide].stake += makerStake;\n        m.matched[maker][makerSide].payout += makerPayout;\n        m.totalMatchedStake += makerStake;\n\n        // add taker's order to matched\n        m.matched[msg.sender][side].odds[takerOdds] += takerStake;\n        m.matched[msg.sender][side].stake += takerStake;\n        m.matched[msg.sender][side].payout += takerPayout;\n        m.totalMatchedStake += takerStake;\n\n        emit __shake(hid, offchain);\n    }\n\n\n    event __collect(uint hid, bytes32 offchain);\n    event __test__collect(uint network, uint market, uint trader);\n\n    function collect(uint hid, bytes32 offchain) public onlyPredictor(hid) {\n        _collect(hid, msg.sender, offchain);\n    }\n\n    // collect payouts & outstanding stakes (if there is outcome)\n    function _collect(uint hid, address winner, bytes32 offchain) private {\n        Market storage m = markets[hid]; \n\n        require(m.state == 2);\n        require(now > m.disputeTime);\n\n        // calc network commission, market commission and winnings\n        uint marketComm = (m.matched[winner][m.outcome].payout * m.fee) / 100;\n        uint networkComm = (marketComm * NETWORK_FEE) / 100;\n\n        uint amt = m.matched[winner][m.outcome].payout;\n\n        amt += m.open[winner][1].stake; \n        amt += m.open[winner][2].stake;\n\n        require(amt - marketComm > 0);\n        require(marketComm - networkComm > 0);\n\n        // update totals\n        m.totalOpenStake -= m.open[winner][1].stake;\n        m.totalOpenStake -= m.open[winner][2].stake;\n        m.totalMatchedStake -= m.matched[winner][1].stake;\n        m.totalMatchedStake -= m.matched[winner][2].stake;\n\n        // wipe data\n        m.open[winner][1].stake = 0; \n        m.open[winner][2].stake = 0;\n        m.matched[winner][1].stake = 0; \n        m.matched[winner][2].stake = 0;\n        m.matched[winner][m.outcome].payout = 0;\n\n        require(tokenRegistry.transferToken(m.token, address(this), winner, amt - marketComm));\n        require(tokenRegistry.transferToken(m.token, address(this), m.creator, marketComm - networkComm));\n        require(tokenRegistry.transferToken(m.token, address(this), root, networkComm));\n\n        emit __collect(hid, offchain);\n        emit __test__collect(networkComm, marketComm - networkComm, amt - marketComm);\n    }\n\n\n    event __refund(uint hid, bytes32 offchain);\n    event __test__refund(uint amt);\n\n    // refund stakes when market closes (if there is no outcome)\n    function refund(uint hid, bytes32 offchain) public onlyPredictor(hid) {\n\n        Market storage m = markets[hid]; \n\n        require(m.state == 1 || m.outcome == 3);\n        require(now > m.reportTime);\n\n        // calc refund amt\n        uint amt;\n        amt += m.matched[msg.sender][1].stake;\n        amt += m.matched[msg.sender][2].stake;\n        amt += m.open[msg.sender][1].stake;\n        amt += m.open[msg.sender][2].stake;\n\n        require(amt > 0);\n\n        // wipe data\n        m.matched[msg.sender][1].stake = 0;\n        m.matched[msg.sender][2].stake = 0;\n        m.open[msg.sender][1].stake = 0;\n        m.open[msg.sender][2].stake = 0;\n\n        require(tokenRegistry.transferToken(m.token, address(this), msg.sender, amt));\n        \n        emit __refund(hid, offchain);\n        emit __test__refund(amt);\n    }\n\n\n    event __report(uint hid, bytes32 offchain);\n\n    // report outcome\n    function report(uint hid, uint outcome, bytes32 offchain) public {\n        Market storage m = markets[hid]; \n        require(now <= m.reportTime);\n        require(msg.sender == m.creator);\n        require(m.state == 1);\n        m.outcome = outcome;\n        m.state = 2;\n        emit __report(hid, offchain);\n    }\n\n\n    event __dispute(uint hid, uint state, bytes32 offchain);\n\n    // dispute outcome\n    function dispute(uint hid, bytes32 offchain) public onlyPredictor(hid) {\n        Market storage m = markets[hid]; \n\n        require(now <= m.disputeTime);\n        require(m.state == 2);\n        require(!m.resolved);\n\n        require(!m.disputed[msg.sender]);\n        m.disputed[msg.sender] = true;\n\n        m.disputeMatchedStake += m.matched[msg.sender][1].stake;\n        m.disputeMatchedStake += m.matched[msg.sender][2].stake;\n\n        // if dispute stakes > 5% of the total stakes\n        if (100 * m.disputeMatchedStake > DISPUTE_THRESHOLD * m.totalMatchedStake) {\n            m.state = 3;\n        }\n        emit __dispute(hid, m.state, offchain);\n    }\n\n\n    event __resolve(uint hid, bytes32 offchain);\n\n    function resolve(uint hid, uint outcome, bytes32 offchain) public onlyRoot {\n        Market storage m = markets[hid]; \n        require(m.state == 3);\n        m.resolved = true;\n        m.outcome = outcome;\n        m.state = outcome == 0? 1: 2;\n        emit __resolve(hid, offchain);\n    }\n\n\n    modifier onlyPredictor(uint hid) {\n        require(markets[hid].matched[msg.sender][1].stake > 0 ||\n                markets[hid].matched[msg.sender][2].stake > 0 || \n                markets[hid].open[msg.sender][1].stake > 0 || \n                markets[hid].open[msg.sender][2].stake > 0);\n        _;\n    }\n\n\n    modifier onlyRoot() {\n        require(msg.sender == root);\n        _;\n    }\n}\n",
  "sourcePath": "/Users/trongdth/Autonomous/handshake-protocol/contracts/PredictionHandshakeWithToken.sol",
  "compiler": {
    "name": "solc",
    "version": "0.4.24+commit.e67f0147.Emscripten.clang"
  },
  "schemaVersion": "2.0.1",
  "updatedAt": "2018-07-20T09:49:54.245Z"
}